{
  "_format": "hh-sol-artifact-1",
  "contractName": "NakshNFTMarketplace",
  "sourceName": "contracts/naksh.sol",
  "abi": [
    {
      "inputs": [
        {
          "internalType": "string",
          "name": "_name",
          "type": "string"
        },
        {
          "internalType": "string",
          "name": "_symbol",
          "type": "string"
        },
        {
          "internalType": "address payable",
          "name": "org",
          "type": "address"
        },
        {
          "internalType": "address payable",
          "name": "_admin",
          "type": "address"
        }
      ],
      "stateMutability": "nonpayable",
      "type": "constructor"
    },
    {
      "anonymous": false,
      "inputs": [
        {
          "indexed": true,
          "internalType": "address",
          "name": "owner",
          "type": "address"
        },
        {
          "indexed": true,
          "internalType": "address",
          "name": "approved",
          "type": "address"
        },
        {
          "indexed": true,
          "internalType": "uint256",
          "name": "tokenId",
          "type": "uint256"
        }
      ],
      "name": "Approval",
      "type": "event"
    },
    {
      "anonymous": false,
      "inputs": [
        {
          "indexed": true,
          "internalType": "address",
          "name": "owner",
          "type": "address"
        },
        {
          "indexed": true,
          "internalType": "address",
          "name": "operator",
          "type": "address"
        },
        {
          "indexed": false,
          "internalType": "bool",
          "name": "approved",
          "type": "bool"
        }
      ],
      "name": "ApprovalForAll",
      "type": "event"
    },
    {
      "anonymous": false,
      "inputs": [
        {
          "indexed": true,
          "internalType": "uint256",
          "name": "_tokenId",
          "type": "uint256"
        },
        {
          "indexed": true,
          "internalType": "address",
          "name": "_bidder",
          "type": "address"
        },
        {
          "indexed": true,
          "internalType": "uint256",
          "name": "_amount",
          "type": "uint256"
        }
      ],
      "name": "Bidding",
      "type": "event"
    },
    {
      "anonymous": false,
      "inputs": [
        {
          "indexed": true,
          "internalType": "address",
          "name": "_creator",
          "type": "address"
        }
      ],
      "name": "DelistCreator",
      "type": "event"
    },
    {
      "anonymous": false,
      "inputs": [
        {
          "indexed": true,
          "internalType": "uint256",
          "name": "_tokenId",
          "type": "uint256"
        },
        {
          "indexed": true,
          "internalType": "address",
          "name": "_buyer",
          "type": "address"
        },
        {
          "indexed": true,
          "internalType": "uint256",
          "name": "highestBID",
          "type": "uint256"
        }
      ],
      "name": "EndedAuction",
      "type": "event"
    },
    {
      "anonymous": false,
      "inputs": [
        {
          "indexed": true,
          "internalType": "address",
          "name": "creator",
          "type": "address"
        },
        {
          "indexed": true,
          "internalType": "uint256",
          "name": "tokenId",
          "type": "uint256"
        },
        {
          "indexed": true,
          "internalType": "string",
          "name": "tokenURI",
          "type": "string"
        }
      ],
      "name": "Mint",
      "type": "event"
    },
    {
      "anonymous": false,
      "inputs": [
        {
          "indexed": true,
          "internalType": "address",
          "name": "newOwner",
          "type": "address"
        }
      ],
      "name": "OwnershipGranted",
      "type": "event"
    },
    {
      "anonymous": false,
      "inputs": [
        {
          "indexed": true,
          "internalType": "address",
          "name": "oldOwner",
          "type": "address"
        },
        {
          "indexed": true,
          "internalType": "address",
          "name": "newOwner",
          "type": "address"
        }
      ],
      "name": "OwnershipTransferred",
      "type": "event"
    },
    {
      "anonymous": false,
      "inputs": [
        {
          "indexed": true,
          "internalType": "uint256",
          "name": "_tokenId",
          "type": "uint256"
        },
        {
          "indexed": true,
          "internalType": "uint256",
          "name": "_price",
          "type": "uint256"
        }
      ],
      "name": "SalePriceSet",
      "type": "event"
    },
    {
      "anonymous": false,
      "inputs": [
        {
          "indexed": true,
          "internalType": "address",
          "name": "_buyer",
          "type": "address"
        },
        {
          "indexed": true,
          "internalType": "address",
          "name": "_seller",
          "type": "address"
        },
        {
          "indexed": false,
          "internalType": "uint256",
          "name": "_amount",
          "type": "uint256"
        },
        {
          "indexed": true,
          "internalType": "uint256",
          "name": "_tokenId",
          "type": "uint256"
        }
      ],
      "name": "Sold",
      "type": "event"
    },
    {
      "anonymous": false,
      "inputs": [
        {
          "indexed": false,
          "internalType": "uint256",
          "name": "startTime",
          "type": "uint256"
        },
        {
          "indexed": false,
          "internalType": "uint256",
          "name": "endTime",
          "type": "uint256"
        },
        {
          "indexed": true,
          "internalType": "uint256",
          "name": "tokenId",
          "type": "uint256"
        },
        {
          "indexed": true,
          "internalType": "address",
          "name": "owner",
          "type": "address"
        },
        {
          "indexed": true,
          "internalType": "uint256",
          "name": "price",
          "type": "uint256"
        }
      ],
      "name": "StartedAuction",
      "type": "event"
    },
    {
      "anonymous": false,
      "inputs": [
        {
          "indexed": true,
          "internalType": "address",
          "name": "from",
          "type": "address"
        },
        {
          "indexed": true,
          "internalType": "address",
          "name": "to",
          "type": "address"
        },
        {
          "indexed": true,
          "internalType": "uint256",
          "name": "tokenId",
          "type": "uint256"
        }
      ],
      "name": "Transfer",
      "type": "event"
    },
    {
      "anonymous": false,
      "inputs": [
        {
          "indexed": true,
          "internalType": "address",
          "name": "_creator",
          "type": "address"
        }
      ],
      "name": "WhitelistCreator",
      "type": "event"
    },
    {
      "inputs": [
        {
          "internalType": "address",
          "name": "to",
          "type": "address"
        },
        {
          "internalType": "uint256",
          "name": "tokenId",
          "type": "uint256"
        }
      ],
      "name": "approve",
      "outputs": [],
      "stateMutability": "nonpayable",
      "type": "function"
    },
    {
      "inputs": [
        {
          "internalType": "uint256",
          "name": "",
          "type": "uint256"
        }
      ],
      "name": "auctionData",
      "outputs": [
        {
          "internalType": "uint256",
          "name": "startTime",
          "type": "uint256"
        },
        {
          "internalType": "uint256",
          "name": "endTime",
          "type": "uint256"
        },
        {
          "internalType": "uint256",
          "name": "tokenId",
          "type": "uint256"
        },
        {
          "internalType": "address",
          "name": "owner",
          "type": "address"
        },
        {
          "internalType": "uint256",
          "name": "price",
          "type": "uint256"
        },
        {
          "internalType": "uint256",
          "name": "highestBid",
          "type": "uint256"
        },
        {
          "internalType": "address",
          "name": "highestBidder",
          "type": "address"
        }
      ],
      "stateMutability": "view",
      "type": "function"
    },
    {
      "inputs": [
        {
          "internalType": "address",
          "name": "owner",
          "type": "address"
        }
      ],
      "name": "balanceOf",
      "outputs": [
        {
          "internalType": "uint256",
          "name": "",
          "type": "uint256"
        }
      ],
      "stateMutability": "view",
      "type": "function"
    },
    {
      "inputs": [
        {
          "internalType": "uint256",
          "name": "_tokenId",
          "type": "uint256"
        }
      ],
      "name": "bid",
      "outputs": [
        {
          "internalType": "bool",
          "name": "",
          "type": "bool"
        }
      ],
      "stateMutability": "payable",
      "type": "function"
    },
    {
      "inputs": [
        {
          "internalType": "address",
          "name": "",
          "type": "address"
        }
      ],
      "name": "bids",
      "outputs": [
        {
          "internalType": "uint256",
          "name": "",
          "type": "uint256"
        }
      ],
      "stateMutability": "view",
      "type": "function"
    },
    {
      "inputs": [
        {
          "internalType": "address[]",
          "name": "_creator",
          "type": "address[]"
        },
        {
          "internalType": "string[]",
          "name": "_tokenURI",
          "type": "string[]"
        },
        {
          "internalType": "string[]",
          "name": "title",
          "type": "string[]"
        },
        {
          "internalType": "string[]",
          "name": "description",
          "type": "string[]"
        },
        {
          "internalType": "string[]",
          "name": "artistName",
          "type": "string[]"
        }
      ],
      "name": "bulkMintByAdmin",
      "outputs": [
        {
          "internalType": "uint256[]",
          "name": "_tokenId",
          "type": "uint256[]"
        }
      ],
      "stateMutability": "nonpayable",
      "type": "function"
    },
    {
      "inputs": [
        {
          "internalType": "string[]",
          "name": "_tokenURI",
          "type": "string[]"
        },
        {
          "internalType": "string[]",
          "name": "title",
          "type": "string[]"
        },
        {
          "internalType": "string[]",
          "name": "description",
          "type": "string[]"
        },
        {
          "internalType": "string",
          "name": "artistName",
          "type": "string"
        }
      ],
      "name": "bulkMintByArtist",
      "outputs": [
        {
          "internalType": "uint256[]",
          "name": "_tokenId",
          "type": "uint256[]"
        }
      ],
      "stateMutability": "nonpayable",
      "type": "function"
    },
    {
      "inputs": [
        {
          "internalType": "uint256",
          "name": "tokenId",
          "type": "uint256"
        }
      ],
      "name": "burn",
      "outputs": [],
      "stateMutability": "nonpayable",
      "type": "function"
    },
    {
      "inputs": [
        {
          "internalType": "uint256",
          "name": "tokenId",
          "type": "uint256"
        },
        {
          "internalType": "address",
          "name": "_nftAddress",
          "type": "address"
        }
      ],
      "name": "buyTokenOnSale",
      "outputs": [],
      "stateMutability": "payable",
      "type": "function"
    },
    {
      "inputs": [
        {
          "internalType": "address",
          "name": "_newOrg",
          "type": "address"
        }
      ],
      "name": "changeOrgAddress",
      "outputs": [],
      "stateMutability": "nonpayable",
      "type": "function"
    },
    {
      "inputs": [
        {
          "internalType": "uint256",
          "name": "_tokenId",
          "type": "uint256"
        },
        {
          "internalType": "uint256",
          "name": "price",
          "type": "uint256"
        }
      ],
      "name": "changePrice",
      "outputs": [],
      "stateMutability": "nonpayable",
      "type": "function"
    },
    {
      "inputs": [],
      "name": "claimContractOwnership",
      "outputs": [],
      "stateMutability": "nonpayable",
      "type": "function"
    },
    {
      "inputs": [
        {
          "internalType": "string",
          "name": "_name",
          "type": "string"
        },
        {
          "internalType": "address",
          "name": "_artist",
          "type": "address"
        },
        {
          "internalType": "string",
          "name": "_image",
          "type": "string"
        }
      ],
      "name": "createArtist",
      "outputs": [
        {
          "internalType": "bool",
          "name": "",
          "type": "bool"
        }
      ],
      "stateMutability": "nonpayable",
      "type": "function"
    },
    {
      "inputs": [
        {
          "internalType": "address",
          "name": "",
          "type": "address"
        }
      ],
      "name": "creatorWhitelist",
      "outputs": [
        {
          "internalType": "bool",
          "name": "",
          "type": "bool"
        }
      ],
      "stateMutability": "view",
      "type": "function"
    },
    {
      "inputs": [
        {
          "internalType": "address[]",
          "name": "_creators",
          "type": "address[]"
        }
      ],
      "name": "delistCreator",
      "outputs": [],
      "stateMutability": "nonpayable",
      "type": "function"
    },
    {
      "inputs": [
        {
          "internalType": "uint256",
          "name": "_tokenId",
          "type": "uint256"
        },
        {
          "internalType": "address",
          "name": "_nftAddress",
          "type": "address"
        }
      ],
      "name": "endAuction",
      "outputs": [],
      "stateMutability": "nonpayable",
      "type": "function"
    },
    {
      "inputs": [
        {
          "internalType": "address",
          "name": "_artist",
          "type": "address"
        }
      ],
      "name": "fetchArtist",
      "outputs": [
        {
          "components": [
            {
              "internalType": "string",
              "name": "name",
              "type": "string"
            },
            {
              "internalType": "address",
              "name": "artistAddress",
              "type": "address"
            },
            {
              "internalType": "string",
              "name": "imageUrl",
              "type": "string"
            }
          ],
          "internalType": "struct NakshNFTMarketplace.artistDetails",
          "name": "",
          "type": "tuple"
        }
      ],
      "stateMutability": "view",
      "type": "function"
    },
    {
      "inputs": [
        {
          "internalType": "uint256",
          "name": "tokenId",
          "type": "uint256"
        }
      ],
      "name": "getApproved",
      "outputs": [
        {
          "internalType": "address",
          "name": "",
          "type": "address"
        }
      ],
      "stateMutability": "view",
      "type": "function"
    },
    {
      "inputs": [
        {
          "internalType": "uint256",
          "name": "_tokenId",
          "type": "uint256"
        }
      ],
      "name": "getBidHistory",
      "outputs": [
        {
          "components": [
            {
              "internalType": "address",
              "name": "bidder",
              "type": "address"
            },
            {
              "internalType": "uint256",
              "name": "amount",
              "type": "uint256"
            },
            {
              "internalType": "uint256",
              "name": "timestamp",
              "type": "uint256"
            }
          ],
          "internalType": "struct NakshNFTMarketplace.bidHistory[]",
          "name": "",
          "type": "tuple[]"
        }
      ],
      "stateMutability": "view",
      "type": "function"
    },
    {
      "inputs": [],
      "name": "getNFTonSale",
      "outputs": [
        {
          "components": [
            {
              "internalType": "uint256",
              "name": "tokenId",
              "type": "uint256"
            },
            {
              "internalType": "string",
              "name": "tokenUri",
              "type": "string"
            },
            {
              "internalType": "string",
              "name": "title",
              "type": "string"
            },
            {
              "internalType": "string",
              "name": "description",
              "type": "string"
            },
            {
              "internalType": "string",
              "name": "artistName",
              "type": "string"
            },
            {
              "internalType": "string",
              "name": "artistImg",
              "type": "string"
            },
            {
              "internalType": "address",
              "name": "creator",
              "type": "address"
            },
            {
              "internalType": "bool",
              "name": "isOnSale",
              "type": "bool"
            },
            {
              "internalType": "uint256",
              "name": "saleprice",
              "type": "uint256"
            },
            {
              "internalType": "enum NakshNFTMarketplace.minter",
              "name": "mintedBy",
              "type": "uint8"
            }
          ],
          "internalType": "struct NakshNFTMarketplace.NFTData[]",
          "name": "",
          "type": "tuple[]"
        }
      ],
      "stateMutability": "view",
      "type": "function"
    },
    {
      "inputs": [],
      "name": "getRoyalties",
      "outputs": [
        {
          "internalType": "uint256",
          "name": "_orgFee",
          "type": "uint256"
        },
        {
          "internalType": "uint256",
          "name": "_creatorRoyalty",
          "type": "uint256"
        },
        {
          "internalType": "uint256",
          "name": "_orgInitialRoyalty",
          "type": "uint256"
        },
        {
          "internalType": "uint256",
          "name": "_sellerFeeInitial",
          "type": "uint256"
        }
      ],
      "stateMutability": "view",
      "type": "function"
    },
    {
      "inputs": [
        {
          "internalType": "uint256",
          "name": "tokenId",
          "type": "uint256"
        }
      ],
      "name": "getSalePrice",
      "outputs": [
        {
          "internalType": "uint256",
          "name": "",
          "type": "uint256"
        }
      ],
      "stateMutability": "view",
      "type": "function"
    },
    {
      "inputs": [],
      "name": "getSellerFee",
      "outputs": [
        {
          "internalType": "uint256",
          "name": "",
          "type": "uint256"
        }
      ],
      "stateMutability": "view",
      "type": "function"
    },
    {
      "inputs": [
        {
          "internalType": "address",
          "name": "newAdmin",
          "type": "address"
        }
      ],
      "name": "grantAdminRights",
      "outputs": [],
      "stateMutability": "nonpayable",
      "type": "function"
    },
    {
      "inputs": [
        {
          "internalType": "address",
          "name": "newOwner",
          "type": "address"
        }
      ],
      "name": "grantContractOwnership",
      "outputs": [],
      "stateMutability": "nonpayable",
      "type": "function"
    },
    {
      "inputs": [
        {
          "internalType": "address",
          "name": "owner",
          "type": "address"
        },
        {
          "internalType": "address",
          "name": "operator",
          "type": "address"
        }
      ],
      "name": "isApprovedForAll",
      "outputs": [
        {
          "internalType": "bool",
          "name": "",
          "type": "bool"
        }
      ],
      "stateMutability": "view",
      "type": "function"
    },
    {
      "inputs": [
        {
          "internalType": "uint256",
          "name": "tokenId",
          "type": "uint256"
        }
      ],
      "name": "isTokenFirstSale",
      "outputs": [
        {
          "internalType": "bool",
          "name": "",
          "type": "bool"
        }
      ],
      "stateMutability": "view",
      "type": "function"
    },
    {
      "inputs": [
        {
          "internalType": "address",
          "name": "_creator",
          "type": "address"
        }
      ],
      "name": "isWhitelisted",
      "outputs": [
        {
          "internalType": "bool",
          "name": "",
          "type": "bool"
        }
      ],
      "stateMutability": "view",
      "type": "function"
    },
    {
      "inputs": [
        {
          "internalType": "address",
          "name": "_creator",
          "type": "address"
        },
        {
          "internalType": "string",
          "name": "_tokenURI",
          "type": "string"
        },
        {
          "internalType": "string",
          "name": "title",
          "type": "string"
        },
        {
          "internalType": "string",
          "name": "description",
          "type": "string"
        },
        {
          "internalType": "string",
          "name": "artistName",
          "type": "string"
        }
      ],
      "name": "mintByAdmin",
      "outputs": [
        {
          "internalType": "uint256",
          "name": "_tokenId",
          "type": "uint256"
        }
      ],
      "stateMutability": "nonpayable",
      "type": "function"
    },
    {
      "inputs": [
        {
          "internalType": "string",
          "name": "_tokenURI",
          "type": "string"
        },
        {
          "internalType": "string",
          "name": "title",
          "type": "string"
        },
        {
          "internalType": "string",
          "name": "description",
          "type": "string"
        },
        {
          "internalType": "string",
          "name": "artistName",
          "type": "string"
        }
      ],
      "name": "mintByArtist",
      "outputs": [
        {
          "internalType": "uint256",
          "name": "_tokenId",
          "type": "uint256"
        }
      ],
      "stateMutability": "nonpayable",
      "type": "function"
    },
    {
      "inputs": [],
      "name": "name",
      "outputs": [
        {
          "internalType": "string",
          "name": "",
          "type": "string"
        }
      ],
      "stateMutability": "view",
      "type": "function"
    },
    {
      "inputs": [
        {
          "internalType": "uint256",
          "name": "",
          "type": "uint256"
        }
      ],
      "name": "nftData",
      "outputs": [
        {
          "internalType": "uint256",
          "name": "tokenId",
          "type": "uint256"
        },
        {
          "internalType": "string",
          "name": "tokenUri",
          "type": "string"
        },
        {
          "internalType": "string",
          "name": "title",
          "type": "string"
        },
        {
          "internalType": "string",
          "name": "description",
          "type": "string"
        },
        {
          "internalType": "string",
          "name": "artistName",
          "type": "string"
        },
        {
          "internalType": "string",
          "name": "artistImg",
          "type": "string"
        },
        {
          "internalType": "address",
          "name": "creator",
          "type": "address"
        },
        {
          "internalType": "bool",
          "name": "isOnSale",
          "type": "bool"
        },
        {
          "internalType": "uint256",
          "name": "saleprice",
          "type": "uint256"
        },
        {
          "internalType": "enum NakshNFTMarketplace.minter",
          "name": "mintedBy",
          "type": "uint8"
        }
      ],
      "stateMutability": "view",
      "type": "function"
    },
    {
      "inputs": [
        {
          "internalType": "uint256",
          "name": "tokenId",
          "type": "uint256"
        }
      ],
      "name": "ownerOf",
      "outputs": [
        {
          "internalType": "address",
          "name": "",
          "type": "address"
        }
      ],
      "stateMutability": "view",
      "type": "function"
    },
    {
      "inputs": [
        {
          "internalType": "uint256",
          "name": "",
          "type": "uint256"
        },
        {
          "internalType": "uint256",
          "name": "",
          "type": "uint256"
        }
      ],
      "name": "prevBidData",
      "outputs": [
        {
          "internalType": "address",
          "name": "bidder",
          "type": "address"
        },
        {
          "internalType": "uint256",
          "name": "amount",
          "type": "uint256"
        },
        {
          "internalType": "uint256",
          "name": "timestamp",
          "type": "uint256"
        }
      ],
      "stateMutability": "view",
      "type": "function"
    },
    {
      "inputs": [
        {
          "internalType": "address",
          "name": "from",
          "type": "address"
        },
        {
          "internalType": "address",
          "name": "to",
          "type": "address"
        },
        {
          "internalType": "uint256",
          "name": "tokenId",
          "type": "uint256"
        }
      ],
      "name": "safeTransferFrom",
      "outputs": [],
      "stateMutability": "nonpayable",
      "type": "function"
    },
    {
      "inputs": [
        {
          "internalType": "address",
          "name": "from",
          "type": "address"
        },
        {
          "internalType": "address",
          "name": "to",
          "type": "address"
        },
        {
          "internalType": "uint256",
          "name": "tokenId",
          "type": "uint256"
        },
        {
          "internalType": "bytes",
          "name": "data",
          "type": "bytes"
        }
      ],
      "name": "safeTransferFrom",
      "outputs": [],
      "stateMutability": "nonpayable",
      "type": "function"
    },
    {
      "inputs": [
        {
          "internalType": "address",
          "name": "operator",
          "type": "address"
        },
        {
          "internalType": "bool",
          "name": "approved",
          "type": "bool"
        }
      ],
      "name": "setApprovalForAll",
      "outputs": [],
      "stateMutability": "nonpayable",
      "type": "function"
    },
    {
      "inputs": [
        {
          "internalType": "uint256",
          "name": "_orgFee",
          "type": "uint256"
        },
        {
          "internalType": "uint256",
          "name": "_creatorFee",
          "type": "uint256"
        }
      ],
      "name": "setRoyaltyPercentage",
      "outputs": [
        {
          "internalType": "bool",
          "name": "",
          "type": "bool"
        }
      ],
      "stateMutability": "nonpayable",
      "type": "function"
    },
    {
      "inputs": [
        {
          "internalType": "uint256",
          "name": "_orgFeeInitial",
          "type": "uint256"
        },
        {
          "internalType": "uint256",
          "name": "_creatorFeeInitial",
          "type": "uint256"
        }
      ],
      "name": "setRoyaltyPercentageFirstSale",
      "outputs": [
        {
          "internalType": "bool",
          "name": "",
          "type": "bool"
        }
      ],
      "stateMutability": "nonpayable",
      "type": "function"
    },
    {
      "inputs": [
        {
          "internalType": "uint256",
          "name": "_tokenId",
          "type": "uint256"
        },
        {
          "internalType": "uint256",
          "name": "price",
          "type": "uint256"
        }
      ],
      "name": "setSale",
      "outputs": [],
      "stateMutability": "nonpayable",
      "type": "function"
    },
    {
      "inputs": [
        {
          "internalType": "uint256",
          "name": "_tokenId",
          "type": "uint256"
        },
        {
          "internalType": "uint256",
          "name": "_price",
          "type": "uint256"
        },
        {
          "internalType": "uint256",
          "name": "_auctionTime",
          "type": "uint256"
        }
      ],
      "name": "startAuction",
      "outputs": [
        {
          "internalType": "bool",
          "name": "",
          "type": "bool"
        }
      ],
      "stateMutability": "nonpayable",
      "type": "function"
    },
    {
      "inputs": [
        {
          "internalType": "bytes4",
          "name": "interfaceId",
          "type": "bytes4"
        }
      ],
      "name": "supportsInterface",
      "outputs": [
        {
          "internalType": "bool",
          "name": "",
          "type": "bool"
        }
      ],
      "stateMutability": "view",
      "type": "function"
    },
    {
      "inputs": [],
      "name": "symbol",
      "outputs": [
        {
          "internalType": "string",
          "name": "",
          "type": "string"
        }
      ],
      "stateMutability": "view",
      "type": "function"
    },
    {
      "inputs": [
        {
          "internalType": "address",
          "name": "_creator",
          "type": "address"
        }
      ],
      "name": "tokenCreators",
      "outputs": [
        {
          "internalType": "uint256[]",
          "name": "",
          "type": "uint256[]"
        }
      ],
      "stateMutability": "view",
      "type": "function"
    },
    {
      "inputs": [
        {
          "internalType": "uint256",
          "name": "tokenId",
          "type": "uint256"
        }
      ],
      "name": "tokenURI",
      "outputs": [
        {
          "internalType": "string",
          "name": "",
          "type": "string"
        }
      ],
      "stateMutability": "view",
      "type": "function"
    },
    {
      "inputs": [],
      "name": "totalSupply",
      "outputs": [
        {
          "internalType": "uint256",
          "name": "",
          "type": "uint256"
        }
      ],
      "stateMutability": "view",
      "type": "function"
    },
    {
      "inputs": [
        {
          "internalType": "address",
          "name": "from",
          "type": "address"
        },
        {
          "internalType": "address",
          "name": "to",
          "type": "address"
        },
        {
          "internalType": "uint256",
          "name": "tokenId",
          "type": "uint256"
        }
      ],
      "name": "transferFrom",
      "outputs": [],
      "stateMutability": "nonpayable",
      "type": "function"
    },
    {
      "inputs": [
        {
          "internalType": "address[]",
          "name": "_creators",
          "type": "address[]"
        }
      ],
      "name": "whitelistCreator",
      "outputs": [],
      "stateMutability": "nonpayable",
      "type": "function"
    }
  ],
  "bytecode": "0x60806040523480156200001157600080fd5b50604051620061dd380380620061dd833981016040819052620000349162000282565b8351849084906200004d906000906020850190620000f2565b50805162000063906001906020840190620000f2565b505060118054336001600160a01b0319918216179091556013805482166001600160a01b038581169190911790915560198054909216908516179055506101f460158190556103e8601681905590620000bf9061271062000311565b620000cb919062000311565b6014556101f46018819055620000e49061271062000311565b601755506200037492505050565b828054620001009062000337565b90600052602060002090601f0160209004810192826200012457600085556200016f565b82601f106200013f57805160ff19168380011785556200016f565b828001600101855582156200016f579182015b828111156200016f57825182559160200191906001019062000152565b506200017d92915062000181565b5090565b5b808211156200017d576000815560010162000182565b634e487b7160e01b600052604160045260246000fd5b600082601f830112620001c057600080fd5b81516001600160401b0380821115620001dd57620001dd62000198565b604051601f8301601f19908116603f0116810190828211818310171562000208576200020862000198565b816040528381526020925086838588010111156200022557600080fd5b600091505b838210156200024957858201830151818301840152908201906200022a565b838211156200025b5760008385830101525b9695505050505050565b80516001600160a01b03811681146200027d57600080fd5b919050565b600080600080608085870312156200029957600080fd5b84516001600160401b0380821115620002b157600080fd5b620002bf88838901620001ae565b95506020870151915080821115620002d657600080fd5b50620002e587828801620001ae565b935050620002f66040860162000265565b9150620003066060860162000265565b905092959194509250565b6000828210156200033257634e487b7160e01b600052601160045260246000fd5b500390565b600181811c908216806200034c57607f821691505b602082108114156200036e57634e487b7160e01b600052602260045260246000fd5b50919050565b615e5980620003846000396000f3fe6080604052600436106102935760003560e01c806370a082311161015a578063b58b98e4116100c1578063ce7e8de81161007a578063ce7e8de81461090c578063e59963a01461092c578063e985e9c51461094c578063f8eb5fc514610995578063f901a18f146109b5578063feeeadfd146109d557600080fd5b8063b58b98e414610857578063b88d4fde1461086a578063bc073e101461088a578063c0738dce1461089f578063c87b56dd146108cc578063cbf8455d146108ec57600080fd5b80639b525665116101135780639b525665146107625780639ba4fd8c14610782578063a22cb465146107b2578063a43f0795146107d2578063a992015f14610817578063b3de019c1461083757600080fd5b806370a0823114610697578063845b446d146106b75780638b034a22146106d75780638c210975146106f757806391e078bb1461072d57806395d89b411461074d57600080fd5b806342966c68116101fe57806355fc62d2116101b757806355fc62d214610528578063597c9f8e146105cd5780635986ebd1146105fa5780635ef895fd1461061a57806362ea82db1461064a5780636352211e1461067757600080fd5b806342966c681461047e578063454a2ab31461049e5780634592cd1d146104b1578063488859bc146104c65780634c8e943e146104e85780634e5dbd881461050857600080fd5b806323b872dd1161025057806323b872dd1461038c578063322a759a146103ac57806333df048e146103cc5780633af32abf1461040557806341d6f9c21461043e57806342842e0e1461045e57600080fd5b806301ffc9a71461029857806306fdde03146102cd578063081812fc146102ef578063095ea7b314610327578063109240d11461034957806318160ddd14610377575b600080fd5b3480156102a457600080fd5b506102b86102b3366004614f3a565b610a02565b60405190151581526020015b60405180910390f35b3480156102d957600080fd5b506102e2610a54565b6040516102c49190614faf565b3480156102fb57600080fd5b5061030f61030a366004614fc2565b610ae6565b6040516001600160a01b0390911681526020016102c4565b34801561033357600080fd5b50610347610342366004614ff0565b610b0d565b005b34801561035557600080fd5b506103696103643660046150d9565b610c28565b6040519081526020016102c4565b34801561038357600080fd5b50610369611099565b34801561039857600080fd5b506103476103a7366004615185565b6110a9565b3480156103b857600080fd5b506103696103c73660046151c6565b6110da565b3480156103d857600080fd5b506015546016546018546017546040805194855260208501939093529183015260608201526080016102c4565b34801561041157600080fd5b506102b8610420366004615285565b6001600160a01b031660009081526007602052604090205460ff1690565b34801561044a57600080fd5b506102b86104593660046152a2565b61155c565b34801561046a57600080fd5b50610347610479366004615185565b611613565b34801561048a57600080fd5b50610347610499366004614fc2565b61162e565b6102b86104ac366004614fc2565b611651565b3480156104bd57600080fd5b50610347611965565b3480156104d257600080fd5b506104db611a36565b6040516102c491906152fc565b3480156104f457600080fd5b506102b86105033660046152a2565b611ddc565b34801561051457600080fd5b50610347610523366004615285565b611e05565b34801561053457600080fd5b5061058c610543366004614fc2565b600c6020526000908152604090208054600182015460028301546003840154600485015460058601546006909601549495939492936001600160a01b0392831693919290911687565b604080519788526020880196909652948601939093526001600160a01b039182166060860152608085015260a08401919091521660c082015260e0016102c4565b3480156105d957600080fd5b506105ed6105e836600461553d565b611ec8565b6040516102c49190615601565b34801561060657600080fd5b50610347610615366004615285565b6123fc565b34801561062657600080fd5b506102b8610635366004614fc2565b6000908152600b602052604090205460ff1690565b34801561065657600080fd5b50610369610665366004615285565b60106020526000908152604090205481565b34801561068357600080fd5b5061030f610692366004614fc2565b61248b565b3480156106a357600080fd5b506103696106b2366004615285565b6124eb565b3480156106c357600080fd5b506103476106d2366004615285565b612571565b3480156106e357600080fd5b506102b86106f2366004615639565b612610565b34801561070357600080fd5b50610717610712366004614fc2565b61272f565b6040516102c49a999897969594939291906156b0565b34801561073957600080fd5b506102b861074836600461575a565b612a37565b34801561075957600080fd5b506102e2612c75565b34801561076e57600080fd5b5061034761077d366004615786565b612c84565b34801561078e57600080fd5b506102b861079d366004615285565b60076020526000908152604090205460ff1681565b3480156107be57600080fd5b506103476107cd3660046157ba565b612dab565b3480156107de57600080fd5b506107f26107ed3660046152a2565b612db6565b604080516001600160a01b0390941684526020840192909252908201526060016102c4565b34801561082357600080fd5b506105ed6108323660046157f8565b612e02565b34801561084357600080fd5b506103476108523660046152a2565b613238565b610347610865366004615875565b61333a565b34801561087657600080fd5b5061034761088536600461589a565b6136be565b34801561089657600080fd5b50601454610369565b3480156108ab57600080fd5b506108bf6108ba366004614fc2565b6136f6565b6040516102c4919061590d565b3480156108d857600080fd5b506102e26108e7366004614fc2565b61378b565b3480156108f857600080fd5b50610347610907366004615875565b613894565b34801561091857600080fd5b506105ed610927366004615285565b613c54565b34801561093857600080fd5b50610347610947366004615786565b613cd8565b34801561095857600080fd5b506102b861096736600461596f565b6001600160a01b03918216600090815260056020908152604080832093909416825291909152205460ff1690565b3480156109a157600080fd5b506103696109b0366004614fc2565b613dfb565b3480156109c157600080fd5b506103476109d03660046152a2565b613e73565b3480156109e157600080fd5b506109f56109f0366004615285565b614141565b6040516102c4919061599d565b60006001600160e01b031982166380ac58cd60e01b1480610a3357506001600160e01b03198216635b5e139f60e01b145b80610a4e57506301ffc9a760e01b6001600160e01b03198316145b92915050565b606060008054610a63906159f5565b80601f0160208091040260200160405190810160405280929190818152602001828054610a8f906159f5565b8015610adc5780601f10610ab157610100808354040283529160200191610adc565b820191906000526020600020905b815481529060010190602001808311610abf57829003601f168201915b5050505050905090565b6000610af18261437b565b506000908152600460205260409020546001600160a01b031690565b6000610b188261248b565b9050806001600160a01b0316836001600160a01b03161415610b8b5760405162461bcd60e51b815260206004820152602160248201527f4552433732313a20617070726f76616c20746f2063757272656e74206f776e656044820152603960f91b60648201526084015b60405180910390fd5b336001600160a01b0382161480610ba75750610ba78133610967565b610c195760405162461bcd60e51b815260206004820152603e60248201527f4552433732313a20617070726f76652063616c6c6572206973206e6f7420746f60448201527f6b656e206f776e6572206e6f7220617070726f76656420666f7220616c6c00006064820152608401610b82565b610c2383836143da565b505050565b3360009081526007602052604081205460ff161515600114610c4957600080fd5b610c57601a80546001019055565b6000610c62601a5490565b600081815260086020908152604080832080546001600160a01b03191633179055519293509091610cb391610c9f91899189918c918a9101615a30565b604051602081830303815290604052614448565b9050600081604051602001610cc89190615b09565b6040516020818303038152906040529050610ce3338461459b565b610ced83826146dd565b600083815260096020908152604080832080546001600160a01b031916339081179091558151610140810183528781528084018d90528083018c9052606081018b9052608081018a9052908452600f9092528220600201805460a083019190610d55906159f5565b80601f0160208091040260200160405190810160405280929190818152602001828054610d81906159f5565b8015610dce5780601f10610da357610100808354040283529160200191610dce565b820191906000526020600020905b815481529060010190602001808311610db157829003601f168201915b50505091835250503360208201526000604082018190526060820152608001600190526000858152600e602090815260409091208251815581830151805193945084939192610e2592600185019290910190614dda565b5060408201518051610e41916002840191602090910190614dda565b5060608201518051610e5d916003840191602090910190614dda565b5060808201518051610e79916004840191602090910190614dda565b5060a08201518051610e95916005840191602090910190614dda565b5060c082015160068201805460e08501511515600160a01b026001600160a81b03199091166001600160a01b0390931692909217919091179055610100820151600782015561012082015160088201805460ff191660018381811115610efd57610efd6152c4565b021790555050601b805460018101825560009190915282516009909102600080516020615d8483398151915281019182556020808501518051869550610f5893600080516020615e0483398151915201929190910190614dda565b5060408201518051610f74916002840191602090910190614dda565b5060608201518051610f90916003840191602090910190614dda565b5060808201518051610fac916004840191602090910190614dda565b5060a08201518051610fc8916005840191602090910190614dda565b5060c082015160068201805460e08501511515600160a01b026001600160a81b03199091166001600160a01b0390931692909217919091179055610100820151600782015561012082015160088201805460ff191660018381811115611030576110306152c4565b021790555050336000908152600a60209081526040808320805460018101825590845291909220018690555161106891508a90615b4e565b6040519081900381209085903390600080516020615da483398151915290600090a45091925050505b949350505050565b60006110a4601a5490565b905090565b6110b33382614777565b6110cf5760405162461bcd60e51b8152600401610b8290615b6a565b610c238383836147f5565b6013546000906001600160a01b031633146110f457600080fd5b611102601a80546001019055565b600061110d601a5490565b600081815260086020908152604080832080546001600160a01b0319166001600160a01b038d1617905551929350909161115391610c9f91899189918c918a9101615a30565b90506000816040516020016111689190615b09565b6040516020818303038152906040529050611183898461459b565b61118d83826146dd565b600083815260096020908152604080832080546001600160a01b0319166001600160a01b038e161790558051610140810182528681528083018c90528082018b9052606081018a905260808101899052338452600f9092528220600201805460a0830191906111fb906159f5565b80601f0160208091040260200160405190810160405280929190818152602001828054611227906159f5565b80156112745780601f1061124957610100808354040283529160200191611274565b820191906000526020600020905b81548152906001019060200180831161125757829003601f168201915b50505091835250506013546001600160a01b03166020820152600060408201819052606082018190526080909101526000858152600e6020908152604090912082518155818301518051939450849391926112d792600185019290910190614dda565b50604082015180516112f3916002840191602090910190614dda565b506060820151805161130f916003840191602090910190614dda565b506080820151805161132b916004840191602090910190614dda565b5060a08201518051611347916005840191602090910190614dda565b5060c082015160068201805460e08501511515600160a01b026001600160a81b03199091166001600160a01b0390931692909217919091179055610100820151600782015561012082015160088201805460ff1916600183818111156113af576113af6152c4565b021790555050601b805460018101825560009190915282516009909102600080516020615d848339815191528101918255602080850151805186955061140a93600080516020615e0483398151915201929190910190614dda565b5060408201518051611426916002840191602090910190614dda565b5060608201518051611442916003840191602090910190614dda565b506080820151805161145e916004840191602090910190614dda565b5060a0820151805161147a916005840191602090910190614dda565b5060c082015160068201805460e08501511515600160a01b026001600160a81b03199091166001600160a01b0390931692909217919091179055610100820151600782015561012082015160088201805460ff1916600183818111156114e2576114e26152c4565b021790555050506001600160a01b038a166000908152600a602090815260408083208054600181018255908452919092200185905551611523908a90615b4e565b6040519081900381209085906001600160a01b038d1690600080516020615da483398151915290600090a4509198975050505050505050565b6011546000906001600160a01b0316331461157657600080fd5b6115808284615bce565b612710116115e65760405162461bcd60e51b815260206004820152602d60248201527f53756d206f662063726561746f722066656520616e64206f726720666565207360448201526c686f756c64206265203130302560981b6064820152608401610b82565b60158390556016829055816115fd84612710615be6565b6116079190615be6565b60145550600192915050565b610c23838383604051806020016040528060008152506136be565b6013546001600160a01b0316331461164557600080fd5b61164e81614991565b50565b6000818152600c60205260408120600101544211156116a65760405162461bcd60e51b8152602060048201526011602482015270105d58dd1a5bdb881a185cc8195b991959607a1b6044820152606401610b82565b6000828152600c60205260409020600401543410156117075760405162461bcd60e51b815260206004820152601860248201527f506179206d6f7265207468616e206261736520707269636500000000000000006044820152606401610b82565b6000828152600c60205260409020600501543410156117685760405162461bcd60e51b815260206004820152601960248201527f506179206d6f7265207468616e206869676865737420626964000000000000006044820152606401610b82565b6000828152600c60205260409020600601546001600160a01b0316156118995760408051606081018252338152346020808301918252428385019081526000878152600d8352858120805460018082018355918352848320875160039092020180546001600160a01b0319166001600160a01b039283161781559551918601919091559151600290940193909355868352600c808352858420600601805483168552601084528685208054908690558986529190935291549451939491939116916108fc841502918491818181858888f1935050505015801561184f573d6000803e3d6000fd5b5050506000828152600c60208181526040808420346005820181905533808752601085529286205593869052919052600690910180546001600160a01b031916909117905561192e565b6000828152600c60209081526040808320600681018054336001600160a01b03199182168117909255346005909301839055835160608101855291825281850192835242828501908152888752600d8652938620805460018181018355918852959096209151600390950290910180549091166001600160a01b03909416939093178355519282019290925590516002909101555b6040513490339084907f25503b4fa67c48e494bd01a58de80d35d064c1797891f4af928672a8f5ee063490600090a4506001919050565b6012546001600160a01b031633146119d05760405162461bcd60e51b815260206004820152602860248201527f4f776e61626c653a2063616c6c6572206973206e6f7420746865206772616e7460448201526732b21037bbb732b960c11b6064820152608401610b82565b6012546011546040516001600160a01b0392831692909116907f8be0079c531659141344cd1fd0a4f28419497f9722a3daafe3b4186f6b6457e090600090a360128054601180546001600160a01b03199081166001600160a01b03841617909155169055565b6060601c805480602002602001604051908101604052809291908181526020016000905b82821015611dd357838290600052602060002090600902016040518061014001604052908160008201548152602001600182018054611a98906159f5565b80601f0160208091040260200160405190810160405280929190818152602001828054611ac4906159f5565b8015611b115780601f10611ae657610100808354040283529160200191611b11565b820191906000526020600020905b815481529060010190602001808311611af457829003601f168201915b50505050508152602001600282018054611b2a906159f5565b80601f0160208091040260200160405190810160405280929190818152602001828054611b56906159f5565b8015611ba35780601f10611b7857610100808354040283529160200191611ba3565b820191906000526020600020905b815481529060010190602001808311611b8657829003601f168201915b50505050508152602001600382018054611bbc906159f5565b80601f0160208091040260200160405190810160405280929190818152602001828054611be8906159f5565b8015611c355780601f10611c0a57610100808354040283529160200191611c35565b820191906000526020600020905b815481529060010190602001808311611c1857829003601f168201915b50505050508152602001600482018054611c4e906159f5565b80601f0160208091040260200160405190810160405280929190818152602001828054611c7a906159f5565b8015611cc75780601f10611c9c57610100808354040283529160200191611cc7565b820191906000526020600020905b815481529060010190602001808311611caa57829003601f168201915b50505050508152602001600582018054611ce0906159f5565b80601f0160208091040260200160405190810160405280929190818152602001828054611d0c906159f5565b8015611d595780601f10611d2e57610100808354040283529160200191611d59565b820191906000526020600020905b815481529060010190602001808311611d3c57829003601f168201915b505050918352505060068201546001600160a01b038116602083015260ff600160a01b909104811615156040830152600783015460608301526008830154608090920191166001811115611daf57611daf6152c4565b6001811115611dc057611dc06152c4565b8152505081526020019060010190611a5a565b50505050905090565b6011546000906001600160a01b03163314611df657600080fd5b50601891909155601755600190565b6011546001600160a01b03163314611e1c57600080fd5b6001600160a01b038116611e725760405162461bcd60e51b815260206004820181905260248201527f4e6577206f776e65722063616e6e6f74206265207a65726f20616464726573736044820152606401610b82565b6040516001600160a01b038216907f24fef68333a009942a0d4864d8fdf2266e208a96399f135b05c1dc92c3c31f9290600090a2601280546001600160a01b0319166001600160a01b0392909216919091179055565b6013546060906001600160a01b03163314611ee257600080fd5b855160609060005b818110156123ef57611f00601a80546001019055565b6000611f0b601a5490565b9050898281518110611f1f57611f1f615bfd565b60200260200101516008600083815260200190815260200160002060006101000a8154816001600160a01b0302191690836001600160a01b031602179055506000611fde898481518110611f7557611f75615bfd565b6020026020010151898581518110611f8f57611f8f615bfd565b60200260200101518c8681518110611fa957611fa9615bfd565b60200260200101518a8781518110611fc357611fc3615bfd565b6020026020010151604051602001610c9f9493929190615a30565b9050600081604051602001611ff39190615b09565b60405160208183030381529060405290506120278c858151811061201957612019615bfd565b60200260200101518461459b565b61203183826146dd565b8b848151811061204357612043615bfd565b60200260200101516009600085815260200190815260200160002060006101000a8154816001600160a01b0302191690836001600160a01b0316021790555060006040518061014001604052808581526020018d87815181106120a8576120a8615bfd565b602002602001015181526020018c87815181106120c7576120c7615bfd565b602002602001015181526020018b87815181106120e6576120e6615bfd565b602002602001015181526020018a878151811061210557612105615bfd565b60200260200101518152602001600f6000336001600160a01b03166001600160a01b031681526020019081526020016000206002018054612145906159f5565b80601f0160208091040260200160405190810160405280929190818152602001828054612171906159f5565b80156121be5780601f10612193576101008083540402835291602001916121be565b820191906000526020600020905b8154815290600101906020018083116121a157829003601f168201915b50505091835250506013546001600160a01b0316602082015260006040820181905260608201819052608090910152601b805460018101825560009190915281516009909102600080516020615d8483398151915281019182556020808401518051949550859461224493600080516020615e0483398151915201929190910190614dda565b5060408201518051612260916002840191602090910190614dda565b506060820151805161227c916003840191602090910190614dda565b5060808201518051612298916004840191602090910190614dda565b5060a082015180516122b4916005840191602090910190614dda565b5060c082015160068201805460e08501511515600160a01b026001600160a81b03199091166001600160a01b0390931692909217919091179055610100820151600782015561012082015160088201805460ff19166001838181111561231c5761231c6152c4565b02179055505050600a60008e878151811061233957612339615bfd565b6020908102919091018101516001600160a01b031682528181019290925260400160009081208054600181018255908252919020018490558b518c908690811061238557612385615bfd565b602002602001015160405161239a9190615b4e565b6040518091039020848e87815181106123b5576123b5615bfd565b60200260200101516001600160a01b0316600080516020615da483398151915260405160405180910390a484600101945050505050611eea565b5090979650505050505050565b6013546001600160a01b0316331461241357600080fd5b6001600160a01b0381166124695760405162461bcd60e51b815260206004820181905260248201527f4e65772041646d696e2063616e6e6f74206265207a65726f20616464726573736044820152606401610b82565b601380546001600160a01b0319166001600160a01b0392909216919091179055565b6000818152600260205260408120546001600160a01b031680610a4e5760405162461bcd60e51b8152602060048201526018602482015277115490cdcc8c4e881a5b9d985b1a59081d1bdad95b88125160421b6044820152606401610b82565b60006001600160a01b0382166125555760405162461bcd60e51b815260206004820152602960248201527f4552433732313a2061646472657373207a65726f206973206e6f7420612076616044820152683634b21037bbb732b960b91b6064820152608401610b82565b506001600160a01b031660009081526003602052604090205490565b6011546001600160a01b0316331461258857600080fd5b6001600160a01b0381166125ee5760405162461bcd60e51b815260206004820152602760248201527f4e6577206f7267616e697a6174696f6e2063616e6e6f74206265207a65726f206044820152666164647265737360c81b6064820152608401610b82565b601980546001600160a01b0319166001600160a01b0392909216919091179055565b6011546000906001600160a01b0316331461262a57600080fd5b6001600160a01b0383166126775760405162461bcd60e51b8152602060048201526014602482015273417274697374206973206164647265737328302960601b6044820152606401610b82565b604080516060810182528581526001600160a01b03851660208083018290528284018690526000918252600f815292902081518051929384936126bd9284920190614dda565b506020828101516001830180546001600160a01b0319166001600160a01b03909216919091179055604083015180516126fc9260028501920190614dda565b5050506001600160a01b0384166000908152600760205260409020805460ff191660019081179091559150509392505050565b600e6020526000908152604090208054600182018054919291612751906159f5565b80601f016020809104026020016040519081016040528092919081815260200182805461277d906159f5565b80156127ca5780601f1061279f576101008083540402835291602001916127ca565b820191906000526020600020905b8154815290600101906020018083116127ad57829003601f168201915b5050505050908060020180546127df906159f5565b80601f016020809104026020016040519081016040528092919081815260200182805461280b906159f5565b80156128585780601f1061282d57610100808354040283529160200191612858565b820191906000526020600020905b81548152906001019060200180831161283b57829003601f168201915b50505050509080600301805461286d906159f5565b80601f0160208091040260200160405190810160405280929190818152602001828054612899906159f5565b80156128e65780601f106128bb576101008083540402835291602001916128e6565b820191906000526020600020905b8154815290600101906020018083116128c957829003601f168201915b5050505050908060040180546128fb906159f5565b80601f0160208091040260200160405190810160405280929190818152602001828054612927906159f5565b80156129745780601f1061294957610100808354040283529160200191612974565b820191906000526020600020905b81548152906001019060200180831161295757829003601f168201915b505050505090806005018054612989906159f5565b80601f01602080910402602001604051908101604052809291908181526020018280546129b5906159f5565b8015612a025780601f106129d757610100808354040283529160200191612a02565b820191906000526020600020905b8154815290600101906020018083116129e557829003601f168201915b5050506006840154600785015460089095015493946001600160a01b0382169460ff600160a01b90930483169450909250168a565b60008333612a448261248b565b6001600160a01b031614612a5757600080fd5b42612a633330886110a9565b6000612a6f8542615bce565b905060006040518060e00160405280848152602001838152602001898152602001336001600160a01b031681526020018881526020016000815260200160006001600160a01b0316815250905080600c60008a815260200190815260200160002060008201518160000155602082015181600101556040820151816002015560608201518160030160006101000a8154816001600160a01b0302191690836001600160a01b031602179055506080820151816004015560a0820151816005015560c08201518160060160006101000a8154816001600160a01b0302191690836001600160a01b03160217905550905050601d81908060018154018082558091505060019003906000526020600020906007020160009091909190915060008201518160000155602082015181600101556040820151816002015560608201518160030160006101000a8154816001600160a01b0302191690836001600160a01b031602179055506080820151816004015560a0820151816005015560c08201518160060160006101000a8154816001600160a01b0302191690836001600160a01b03160217905550505086336001600160a01b0316897f968141d6d28a795167315aa87433685af896e444219ee6a274cd87d89cd6843f8686604051612c5f929190918252602082015260400190565b60405180910390a4506001979650505050505050565b606060018054610a63906159f5565b6011546001600160a01b03163314612c9b57600080fd5b60005b8151811015612da75760076000838381518110612cbd57612cbd615bfd565b6020908102919091018101516001600160a01b031682528101919091526040016000205460ff1615612cee57612d95565b600160076000848481518110612d0657612d06615bfd565b60200260200101516001600160a01b03166001600160a01b0316815260200190815260200160002060006101000a81548160ff021916908315150217905550818181518110612d5757612d57615bfd565b60200260200101516001600160a01b03167f55eed0aed3ec6e015b9ad5e984675fe36c0ce3aebdcb70f467670773f19f7f8d60405160405180910390a25b80612d9f81615c13565b915050612c9e565b5050565b612da73383836149d1565b600d6020528160005260406000208181548110612dd257600080fd5b60009182526020909120600390910201805460018201546002909201546001600160a01b03909116935090915083565b3360009081526007602052604090205460609060ff161515600114612e2657600080fd5b835160609060005b8181101561322c57612e44601a80546001019055565b6000612e4f601a5490565b600081815260086020526040812080546001600160a01b03191633179055895191925090612ed9908a9085908110612e8957612e89615bfd565b6020026020010151898581518110612ea357612ea3615bfd565b60200260200101518c8681518110612ebd57612ebd615bfd565b60200260200101518a604051602001610c9f9493929190615a30565b9050600081604051602001612eee9190615b09565b6040516020818303038152906040529050612f09338461459b565b612f1383826146dd565b600083815260096020908152604080832080546001600160a01b03191633179055805161014081019091528581528d5190918201908e9088908110612f5a57612f5a615bfd565b602002602001015181526020018c8781518110612f7957612f79615bfd565b602002602001015181526020018b8781518110612f9857612f98615bfd565b602002602001015181526020018a8152602001600f6000336001600160a01b03166001600160a01b031681526020019081526020016000206002018054612fde906159f5565b80601f016020809104026020016040519081016040528092919081815260200182805461300a906159f5565b80156130575780601f1061302c57610100808354040283529160200191613057565b820191906000526020600020905b81548152906001019060200180831161303a57829003601f168201915b5050509183525050336020820152600060408201819052606082015260800160019052601b805460018101825560009190915281516009909102600080516020615d848339815191528101918255602080840151805194955085946130d193600080516020615e0483398151915201929190910190614dda565b50604082015180516130ed916002840191602090910190614dda565b5060608201518051613109916003840191602090910190614dda565b5060808201518051613125916004840191602090910190614dda565b5060a08201518051613141916005840191602090910190614dda565b5060c082015160068201805460e08501511515600160a01b026001600160a81b03199091166001600160a01b0390931692909217919091179055610100820151600782015561012082015160088201805460ff1916600183818111156131a9576131a96152c4565b021790555050336000908152600a6020908152604082208054600181018255908352912001859055508b518c90869081106131e6576131e6615bfd565b60200260200101516040516131fb9190615b4e565b6040519081900381209085903390600080516020615da483398151915290600090a484600101945050505050612e2e565b50909695505050505050565b81336132438261248b565b6001600160a01b03161461325657600080fd5b6000838152600e6020526040902060060154600160a01b900460ff1615156001146132b85760405162461bcd60e51b81526020600482015260126024820152714e4654206973206e6f74206f6e2073616c6560701b6044820152606401610b82565b600082116133245760405162461bcd60e51b815260206004820152603360248201527f6368616e676550726963653a2050726963652063616e6e6f742062652063686160448201527206e67656420746f206c657373207468616e203606c1b6064820152608401610b82565b506000918252600e602052604090912060070155565b6000828152600e6020526040812060070154829161335760145490565b60165460155491925090836133ae5760405162461bcd60e51b815260206004820152601860248201527f627579546f6b656e3a20707269636520657175616c73203000000000000000006044820152606401610b82565b833410156134175760405162461bcd60e51b815260206004820152603060248201527f627579546f6b656e3a20707269636520646f65736e277420657175616c20736160448201526f6c6550726963655b746f6b656e49645d60801b6064820152608401610b82565b6040516331a9108f60e11b8152600481018890526000906001600160a01b03871690636352211e90602401602060405180830381865afa15801561345f573d6000803e3d6000fd5b505050506040513d601f19601f820116820180604052508101906134839190615c2e565b604051632142170760e11b81526001600160a01b038083166004830152336024830152604482018b9052919250908716906342842e0e90606401600060405180830381600087803b1580156134d757600080fd5b505af11580156134eb573d6000803e3d6000fd5b5050506000898152600e6020908152604080832060068101805460ff60a01b19169055600701839055600b90915290205460ff161515905061354e5760185460175460008a8152600b60205260408120805460ff19166001179055909550935091505b600061271061355d8634615c4b565b6135679190615c80565b905060006127106135788634615c4b565b6135829190615c80565b905060006127106135938634615c4b565b61359d9190615c80565b60008c8152600960205260408082205490519293506001600160a01b03908116929087169186156108fc02918791818181858888f193505050501580156135e8573d6000803e3d6000fd5b508215613627576040516001600160a01b0382169084156108fc029085906000818181858888f19350505050158015613625573d6000803e3d6000fd5b505b6019546040516001600160a01b039091169083156108fc029084906000818181858888f19350505050158015613661573d6000803e3d6000fd5b508b856001600160a01b0316336001600160a01b03167f16dd16959a056953a63cf14bf427881e762e54f03d86b864efea8238dd3b822f346040516136a891815260200190565b60405180910390a4505050505050505050505050565b6136c83383614777565b6136e45760405162461bcd60e51b8152600401610b8290615b6a565b6136f084848484614aa0565b50505050565b6060600d6000838152602001908152602001600020805480602002602001604051908101604052809291908181526020016000905b82821015613780576000848152602090819020604080516060810182526003860290920180546001600160a01b031683526001808201548486015260029091015491830191909152908352909201910161372b565b505050509050919050565b60606137968261437b565b600082815260066020526040812080546137af906159f5565b80601f01602080910402602001604051908101604052809291908181526020018280546137db906159f5565b80156138285780601f106137fd57610100808354040283529160200191613828565b820191906000526020600020905b81548152906001019060200180831161380b57829003601f168201915b50505050509050600061384660408051602081019091526000815290565b9050805160001415613859575092915050565b81511561388b578082604051602001613873929190615c94565b60405160208183030381529060405292505050919050565b61109184614ad3565b6000828152600c6020908152604091829020825160e0810184528154815260018201549281019290925260028101549282019290925260038201546001600160a01b039081166060830181905260048401546080840152600584015460a08401526006909301541660c082015290829033146139525760405162461bcd60e51b815260206004820152601f60248201527f4f6e6c79206f776e6572206f66206e66742063616e2063616c6c2074686973006044820152606401610b82565b42826020015111156139a65760405162461bcd60e51b815260206004820152601960248201527f41756374696f6e20686173206e6f742079657420656e646564000000000000006044820152606401610b82565b60c08201516001600160a01b031615613ba75760006139c460145490565b6016546015546000888152600b6020526040902054929350909160ff16613a0b5750506018546017546000878152600b60205260408120805460ff19166001179055909250905b6000612710848760a00151613a209190615c4b565b613a2a9190615c80565b90506000612710848860a00151613a419190615c4b565b613a4b9190615c80565b90506000612710848960a00151613a629190615c4b565b613a6c9190615c80565b60008b8152600960205260408082205490519293506001600160a01b031691339186156108fc02918791818181858888f19350505050158015613ab3573d6000803e3d6000fd5b508215613af2576040516001600160a01b0382169084156108fc029085906000818181858888f19350505050158015613af0573d6000803e3d6000fd5b505b6019546040516001600160a01b039091169083156108fc029084906000818181858888f19350505050158015613b2c573d6000803e3d6000fd5b5060c0890151604051632142170760e11b81523060048201526001600160a01b039182166024820152604481018d9052908916906342842e0e90606401600060405180830381600087803b158015613b8357600080fd5b505af1158015613b97573d6000803e3d6000fd5b5050505050505050505050613c0e565b604051632142170760e11b8152306004820152336024820152604481018590526001600160a01b038216906342842e0e90606401600060405180830381600087803b158015613bf557600080fd5b505af1158015613c09573d6000803e3d6000fd5b505050505b8160a001518260c001516001600160a01b0316857ff3745838906e0091221724f2af33775afbacb94216f63612b5caeaf848a5530060405160405180910390a450505050565b6011546060906001600160a01b03163314613c6e57600080fd5b6001600160a01b0382166000908152600a602090815260409182902080548351818402810184019094528084529091830182828015613ccc57602002820191906000526020600020905b815481526020019060010190808311613cb8575b50505050509050919050565b6011546001600160a01b03163314613cef57600080fd5b60005b8151811015612da75760076000838381518110613d1157613d11615bfd565b6020908102919091018101516001600160a01b031682528101919091526040016000205460ff16151560011415613de957600060076000848481518110613d5a57613d5a615bfd565b60200260200101516001600160a01b03166001600160a01b0316815260200190815260200160002060006101000a81548160ff021916908315150217905550818181518110613dab57613dab615bfd565b60200260200101516001600160a01b03167f6cf070d2f10c217d5a08be5e12920a2019956160f831e8cd524ac95f84768df360405160405180910390a25b80613df381615c13565b915050613cf2565b6000818152600e6020526040812060060154600160a01b900460ff161515600114613e5d5760405162461bcd60e51b81526020600482015260126024820152714e4654206973206e6f74206f6e2053616c6560701b6044820152606401610b82565b506000908152600e602052604090206007015490565b8133613e7e8261248b565b6001600160a01b031614613e9157600080fd5b6000838152600e6020526040902060060154600160a01b900460ff1615613ef35760405162461bcd60e51b81526020600482015260166024820152754e465420697320616c7265616479206f6e2073616c6560501b6044820152606401610b82565b6000613efe8461248b565b90506001600160a01b038116613f565760405162461bcd60e51b815260206004820152601a60248201527f73657453616c653a206e6f6e6578697374656e7420746f6b656e0000000000006044820152606401610b82565b6000848152600e6020526040812060068101805460ff60a01b1916600160a01b17905560078101859055601c80546001818101835591909352815460099093027f0e4562a10381dec21b205ed72637e6b1b523bdd0e4d4d50af5cd23dd4500a211810193845590820180549293927f0e4562a10381dec21b205ed72637e6b1b523bdd0e4d4d50af5cd23dd4500a21290920191613ff2906159f5565b613ffd929190614e5e565b506002820181600201908054614012906159f5565b61401d929190614e5e565b506003820181600301908054614032906159f5565b61403d929190614e5e565b506004820181600401908054614052906159f5565b61405d929190614e5e565b506005820181600501908054614072906159f5565b61407d929190614e5e565b506006828101805491830180546001600160a01b039093166001600160a01b031984168117825591546001600160a81b0319909316909117600160a01b9283900460ff908116151590930217905560078084015490830155600880840154908301805491909216919060ff1916600183818111156140fd576140fd6152c4565b0217905550505061410e3085610b0d565b604051839085907fe23ea816dce6d7f5c0b85cbd597e7c3b97b2453791152c0b94e5e5c5f314d2f090600090a350505050565b604080516060808201835280825260006020830152918101919091526001600160a01b0382166141aa5760405162461bcd60e51b8152602060048201526014602482015273417274697374206973206164647265737328302960601b6044820152606401610b82565b6001600160a01b03821660009081526007602052604090205460ff1615156001146142175760405162461bcd60e51b815260206004820152601b60248201527f476976656e2061646472657373206973206e6f742061727469737400000000006044820152606401610b82565b6001600160a01b0382166000908152600f602052604090819020815160608101909252805482908290614249906159f5565b80601f0160208091040260200160405190810160405280929190818152602001828054614275906159f5565b80156142c25780601f10614297576101008083540402835291602001916142c2565b820191906000526020600020905b8154815290600101906020018083116142a557829003601f168201915b505050918352505060018201546001600160a01b031660208201526002820180546040909201916142f2906159f5565b80601f016020809104026020016040519081016040528092919081815260200182805461431e906159f5565b801561436b5780601f106143405761010080835404028352916020019161436b565b820191906000526020600020905b81548152906001019060200180831161434e57829003601f168201915b5050505050815250509050919050565b6000818152600260205260409020546001600160a01b031661164e5760405162461bcd60e51b8152602060048201526018602482015277115490cdcc8c4e881a5b9d985b1a59081d1bdad95b88125160421b6044820152606401610b82565b600081815260046020526040902080546001600160a01b0319166001600160a01b038416908117909155819061440f8261248b565b6001600160a01b03167f8c5be1e5ebec7d5bd14f71427d1e84f3dd0314c0f7b2291e5b200ac8c7c3b92560405160405180910390a45050565b606081516000141561446857505060408051602081019091526000815290565b6000604051806060016040528060408152602001615dc460409139905060006003845160026144979190615bce565b6144a19190615c80565b6144ac906004615c4b565b6001600160401b038111156144c3576144c361501c565b6040519080825280601f01601f1916602001820160405280156144ed576020820181803683370190505b509050600182016020820185865187015b80821015614559576003820191508151603f8160121c168501518453600184019350603f81600c1c168501518453600184019350603f8160061c168501518453600184019350603f81168501518453506001830192506144fe565b5050600386510660018114614575576002811461458857614590565b603d6001830353603d6002830353614590565b603d60018303535b509195945050505050565b6001600160a01b0382166145f15760405162461bcd60e51b815260206004820181905260248201527f4552433732313a206d696e7420746f20746865207a65726f20616464726573736044820152606401610b82565b6000818152600260205260409020546001600160a01b0316156146565760405162461bcd60e51b815260206004820152601c60248201527f4552433732313a20746f6b656e20616c7265616479206d696e746564000000006044820152606401610b82565b6001600160a01b038216600090815260036020526040812080546001929061467f908490615bce565b909155505060008181526002602052604080822080546001600160a01b0319166001600160a01b03861690811790915590518392907fddf252ad1be2c89b69c2b068fc378daa952ba7f163c4a11628f55a4df523b3ef908290a45050565b6000828152600260205260409020546001600160a01b03166147585760405162461bcd60e51b815260206004820152602e60248201527f45524337323155524953746f726167653a2055524920736574206f66206e6f6e60448201526d32bc34b9ba32b73a103a37b5b2b760911b6064820152608401610b82565b60008281526006602090815260409091208251610c2392840190614dda565b6000806147838361248b565b9050806001600160a01b0316846001600160a01b031614806147ca57506001600160a01b0380821660009081526005602090815260408083209388168352929052205460ff165b806110915750836001600160a01b03166147e384610ae6565b6001600160a01b031614949350505050565b826001600160a01b03166148088261248b565b6001600160a01b03161461486c5760405162461bcd60e51b815260206004820152602560248201527f4552433732313a207472616e736665722066726f6d20696e636f72726563742060448201526437bbb732b960d91b6064820152608401610b82565b6001600160a01b0382166148ce5760405162461bcd60e51b8152602060048201526024808201527f4552433732313a207472616e7366657220746f20746865207a65726f206164646044820152637265737360e01b6064820152608401610b82565b6148d96000826143da565b6001600160a01b0383166000908152600360205260408120805460019290614902908490615be6565b90915550506001600160a01b0382166000908152600360205260408120805460019290614930908490615bce565b909155505060008181526002602052604080822080546001600160a01b0319166001600160a01b0386811691821790925591518493918716917fddf252ad1be2c89b69c2b068fc378daa952ba7f163c4a11628f55a4df523b3ef91a4505050565b61499a81614b47565b600081815260066020526040902080546149b3906159f5565b15905061164e57600081815260066020526040812061164e91614ed9565b816001600160a01b0316836001600160a01b03161415614a335760405162461bcd60e51b815260206004820152601960248201527f4552433732313a20617070726f766520746f2063616c6c6572000000000000006044820152606401610b82565b6001600160a01b03838116600081815260056020908152604080832094871680845294825291829020805460ff191686151590811790915591519182527f17307eab39ab6107e8899845ad3d59bd9653f200f220920489ca2b5937696c31910160405180910390a3505050565b614aab8484846147f5565b614ab784848484614be2565b6136f05760405162461bcd60e51b8152600401610b8290615cc3565b6060614ade8261437b565b6000614af560408051602081019091526000815290565b90506000815111614b155760405180602001604052806000815250614b40565b80614b1f84614cdd565b604051602001614b30929190615c94565b6040516020818303038152906040525b9392505050565b6000614b528261248b565b9050614b5f6000836143da565b6001600160a01b0381166000908152600360205260408120805460019290614b88908490615be6565b909155505060008281526002602052604080822080546001600160a01b0319169055518391906001600160a01b038416907fddf252ad1be2c89b69c2b068fc378daa952ba7f163c4a11628f55a4df523b3ef908390a45050565b60006001600160a01b0384163b15614cd557604051630a85bd0160e11b81526001600160a01b0385169063150b7a0290614c26903390899088908890600401615d15565b6020604051808303816000875af1925050508015614c61575060408051601f3d908101601f19168201909252614c5e91810190615d52565b60015b614cbb573d808015614c8f576040519150601f19603f3d011682016040523d82523d6000602084013e614c94565b606091505b508051614cb35760405162461bcd60e51b8152600401610b8290615cc3565b805181602001fd5b6001600160e01b031916630a85bd0160e11b149050611091565b506001611091565b606081614d015750506040805180820190915260018152600360fc1b602082015290565b8160005b8115614d2b5780614d1581615c13565b9150614d249050600a83615c80565b9150614d05565b6000816001600160401b03811115614d4557614d4561501c565b6040519080825280601f01601f191660200182016040528015614d6f576020820181803683370190505b5090505b841561109157614d84600183615be6565b9150614d91600a86615d6f565b614d9c906030615bce565b60f81b818381518110614db157614db1615bfd565b60200101906001600160f81b031916908160001a905350614dd3600a86615c80565b9450614d73565b828054614de6906159f5565b90600052602060002090601f016020900481019282614e085760008555614e4e565b82601f10614e2157805160ff1916838001178555614e4e565b82800160010185558215614e4e579182015b82811115614e4e578251825591602001919060010190614e33565b50614e5a929150614f0f565b5090565b828054614e6a906159f5565b90600052602060002090601f016020900481019282614e8c5760008555614e4e565b82601f10614e9d5780548555614e4e565b82800160010185558215614e4e57600052602060002091601f016020900482015b82811115614e4e578254825591600101919060010190614ebe565b508054614ee5906159f5565b6000825580601f10614ef5575050565b601f01602090049060005260206000209081019061164e91905b5b80821115614e5a5760008155600101614f10565b6001600160e01b03198116811461164e57600080fd5b600060208284031215614f4c57600080fd5b8135614b4081614f24565b60005b83811015614f72578181015183820152602001614f5a565b838111156136f05750506000910152565b60008151808452614f9b816020860160208601614f57565b601f01601f19169290920160200192915050565b602081526000614b406020830184614f83565b600060208284031215614fd457600080fd5b5035919050565b6001600160a01b038116811461164e57600080fd5b6000806040838503121561500357600080fd5b823561500e81614fdb565b946020939093013593505050565b634e487b7160e01b600052604160045260246000fd5b604051601f8201601f191681016001600160401b038111828210171561505a5761505a61501c565b604052919050565b60006001600160401b0383111561507b5761507b61501c565b61508e601f8401601f1916602001615032565b90508281528383830111156150a257600080fd5b828260208301376000602084830101529392505050565b600082601f8301126150ca57600080fd5b614b4083833560208501615062565b600080600080608085870312156150ef57600080fd5b84356001600160401b038082111561510657600080fd5b615112888389016150b9565b9550602087013591508082111561512857600080fd5b615134888389016150b9565b9450604087013591508082111561514a57600080fd5b615156888389016150b9565b9350606087013591508082111561516c57600080fd5b50615179878288016150b9565b91505092959194509250565b60008060006060848603121561519a57600080fd5b83356151a581614fdb565b925060208401356151b581614fdb565b929592945050506040919091013590565b600080600080600060a086880312156151de57600080fd5b85356151e981614fdb565b945060208601356001600160401b038082111561520557600080fd5b61521189838a016150b9565b9550604088013591508082111561522757600080fd5b61523389838a016150b9565b9450606088013591508082111561524957600080fd5b61525589838a016150b9565b9350608088013591508082111561526b57600080fd5b50615278888289016150b9565b9150509295509295909350565b60006020828403121561529757600080fd5b8135614b4081614fdb565b600080604083850312156152b557600080fd5b50508035926020909101359150565b634e487b7160e01b600052602160045260246000fd5b600281106152f857634e487b7160e01b600052602160045260246000fd5b9052565b60006020808301818452808551808352604092508286019150828160051b87010184880160005b8381101561541957603f1989840301855281516101408151855288820151818a87015261535282870182614f83565b915050878201518582038987015261536a8282614f83565b915050606080830151868303828801526153848382614f83565b925050506080808301518683038288015261539f8382614f83565b9250505060a080830151868303828801526153ba8382614f83565b9250505060c0808301516153d8828801826001600160a01b03169052565b505060e08281015115159086015261010080830151908601526101209182015191615405818701846152da565b509588019593505090860190600101615323565b509098975050505050505050565b60006001600160401b038211156154405761544061501c565b5060051b60200190565b600082601f83011261545b57600080fd5b8135602061547061546b83615427565b615032565b82815260059290921b8401810191818101908684111561548f57600080fd5b8286015b848110156154b35780356154a681614fdb565b8352918301918301615493565b509695505050505050565b600082601f8301126154cf57600080fd5b813560206154df61546b83615427565b82815260059290921b840181019181810190868411156154fe57600080fd5b8286015b848110156154b35780356001600160401b038111156155215760008081fd5b61552f8986838b01016150b9565b845250918301918301615502565b600080600080600060a0868803121561555557600080fd5b85356001600160401b038082111561556c57600080fd5b61557889838a0161544a565b9650602088013591508082111561558e57600080fd5b61559a89838a016154be565b955060408801359150808211156155b057600080fd5b6155bc89838a016154be565b945060608801359150808211156155d257600080fd5b6155de89838a016154be565b935060808801359150808211156155f457600080fd5b50615278888289016154be565b6020808252825182820181905260009190848201906040850190845b8181101561322c5783518352928401929184019160010161561d565b60008060006060848603121561564e57600080fd5b83356001600160401b038082111561566557600080fd5b615671878388016150b9565b94506020860135915061568382614fdb565b9092506040850135908082111561569957600080fd5b506156a6868287016150b9565b9150509250925092565b60006101408c83528060208401526156ca8184018d614f83565b905082810360408401526156de818c614f83565b905082810360608401526156f2818b614f83565b90508281036080840152615706818a614f83565b905082810360a084015261571a8189614f83565b6001600160a01b03881660c085015286151560e08501526101008401869052915061574b90506101208301846152da565b9b9a5050505050505050505050565b60008060006060848603121561576f57600080fd5b505081359360208301359350604090920135919050565b60006020828403121561579857600080fd5b81356001600160401b038111156157ae57600080fd5b6110918482850161544a565b600080604083850312156157cd57600080fd5b82356157d881614fdb565b9150602083013580151581146157ed57600080fd5b809150509250929050565b6000806000806080858703121561580e57600080fd5b84356001600160401b038082111561582557600080fd5b615831888389016154be565b9550602087013591508082111561584757600080fd5b615853888389016154be565b9450604087013591508082111561586957600080fd5b615156888389016154be565b6000806040838503121561588857600080fd5b8235915060208301356157ed81614fdb565b600080600080608085870312156158b057600080fd5b84356158bb81614fdb565b935060208501356158cb81614fdb565b92506040850135915060608501356001600160401b038111156158ed57600080fd5b8501601f810187136158fe57600080fd5b61517987823560208401615062565b602080825282518282018190526000919060409081850190868401855b8281101561596257815180516001600160a01b031685528681015187860152850151858501526060909301929085019060010161592a565b5091979650505050505050565b6000806040838503121561598257600080fd5b823561598d81614fdb565b915060208301356157ed81614fdb565b6020815260008251606060208401526159b96080840182614f83565b60208501516001600160a01b0316604085810191909152850151848203601f190160608601529091506159ec8282614f83565b95945050505050565b600181811c90821680615a0957607f821691505b60208210811415615a2a57634e487b7160e01b600052602260045260246000fd5b50919050565b6a3d913a34ba3632911d101160a91b81528451600090615a5781600b850160208a01614f57565b72111610113232b9b1b934b83a34b7b7111d101160691b600b918401918201528551615a8a81601e840160208a01614f57565b6c1116101134b6b0b3b2911d101160991b601e92909101918201528451615ab881602b840160208901614f57565b721116101130b93a34b9ba103730b6b2911d101160691b602b92909101918201528351615aec81603e840160208801614f57565b61227d60f01b603e92909101918201526040019695505050505050565b7f646174613a6170706c69636174696f6e2f6a736f6e3b6261736536342c000000815260008251615b4181601d850160208701614f57565b91909101601d0192915050565b60008251615b60818460208701614f57565b9190910192915050565b6020808252602e908201527f4552433732313a2063616c6c6572206973206e6f7420746f6b656e206f776e6560408201526d1c881b9bdc88185c1c1c9bdd995960921b606082015260800190565b634e487b7160e01b600052601160045260246000fd5b60008219821115615be157615be1615bb8565b500190565b600082821015615bf857615bf8615bb8565b500390565b634e487b7160e01b600052603260045260246000fd5b6000600019821415615c2757615c27615bb8565b5060010190565b600060208284031215615c4057600080fd5b8151614b4081614fdb565b6000816000190483118215151615615c6557615c65615bb8565b500290565b634e487b7160e01b600052601260045260246000fd5b600082615c8f57615c8f615c6a565b500490565b60008351615ca6818460208801614f57565b835190830190615cba818360208801614f57565b01949350505050565b60208082526032908201527f4552433732313a207472616e7366657220746f206e6f6e20455243373231526560408201527131b2b4bb32b91034b6b83632b6b2b73a32b960711b606082015260800190565b6001600160a01b0385811682528416602082015260408101839052608060608201819052600090615d4890830184614f83565b9695505050505050565b600060208284031215615d6457600080fd5b8151614b4081614f24565b600082615d7e57615d7e615c6a565b50069056fe3ad8aa4f87544323a9d1e5dd902f40c356527a7955687113db5f9a85ad579dc185a66b9141978db9980f7e0ce3b468cebf4f7999f32b23091c5c03e798b1ba7a4142434445464748494a4b4c4d4e4f505152535455565758595a6162636465666768696a6b6c6d6e6f707172737475767778797a303132333435363738392b2f3ad8aa4f87544323a9d1e5dd902f40c356527a7955687113db5f9a85ad579dc2a264697066735822122010219517b83a912f1c563ded0ab5be9b2f17053710baf50c6666010c09b3a19964736f6c634300080a0033",
  "linkReferences": {},
  "deployedLinkReferences": {}
}