{
  "_format": "hh-sol-artifact-1",
  "contractName": "NakshMarketplace",
  "sourceName": "contracts/NakshMarketplace.sol",
  "abi": [
    {
      "anonymous": false,
      "inputs": [
        {
          "indexed": false,
          "internalType": "address",
          "name": "_nft",
          "type": "address"
        },
        {
          "indexed": false,
          "internalType": "uint256",
          "name": "_tokenId",
          "type": "uint256"
        },
        {
          "indexed": false,
          "internalType": "address",
          "name": "_bidder",
          "type": "address"
        },
        {
          "indexed": false,
          "internalType": "uint256",
          "name": "_amount",
          "type": "uint256"
        }
      ],
      "name": "Bidding",
      "type": "event"
    },
    {
      "anonymous": false,
      "inputs": [
        {
          "indexed": false,
          "internalType": "address",
          "name": "_nft",
          "type": "address"
        },
        {
          "indexed": false,
          "internalType": "uint256",
          "name": "_tokenId",
          "type": "uint256"
        },
        {
          "indexed": false,
          "internalType": "address",
          "name": "_buyer",
          "type": "address"
        },
        {
          "indexed": false,
          "internalType": "uint256",
          "name": "highestBID",
          "type": "uint256"
        }
      ],
      "name": "EndedAuction",
      "type": "event"
    },
    {
      "anonymous": false,
      "inputs": [
        {
          "indexed": true,
          "internalType": "address",
          "name": "previousOwner",
          "type": "address"
        },
        {
          "indexed": true,
          "internalType": "address",
          "name": "newOwner",
          "type": "address"
        }
      ],
      "name": "OwnershipTransferred",
      "type": "event"
    },
    {
      "anonymous": false,
      "inputs": [
        {
          "indexed": false,
          "internalType": "address",
          "name": "_nft",
          "type": "address"
        },
        {
          "indexed": false,
          "internalType": "uint256",
          "name": "_tokenId",
          "type": "uint256"
        },
        {
          "indexed": false,
          "internalType": "uint256",
          "name": "_price",
          "type": "uint256"
        }
      ],
      "name": "SalePriceSet",
      "type": "event"
    },
    {
      "anonymous": false,
      "inputs": [
        {
          "indexed": false,
          "internalType": "address",
          "name": "_nft",
          "type": "address"
        },
        {
          "indexed": false,
          "internalType": "address",
          "name": "_buyer",
          "type": "address"
        },
        {
          "indexed": false,
          "internalType": "address",
          "name": "_seller",
          "type": "address"
        },
        {
          "indexed": false,
          "internalType": "uint256",
          "name": "_amount",
          "type": "uint256"
        },
        {
          "indexed": false,
          "internalType": "uint256",
          "name": "_tokenId",
          "type": "uint256"
        }
      ],
      "name": "Sold",
      "type": "event"
    },
    {
      "anonymous": false,
      "inputs": [
        {
          "indexed": false,
          "internalType": "address",
          "name": "_nft",
          "type": "address"
        },
        {
          "indexed": false,
          "internalType": "uint256",
          "name": "startTime",
          "type": "uint256"
        },
        {
          "indexed": false,
          "internalType": "uint256",
          "name": "endTime",
          "type": "uint256"
        },
        {
          "indexed": false,
          "internalType": "uint256",
          "name": "tokenId",
          "type": "uint256"
        },
        {
          "indexed": false,
          "internalType": "address",
          "name": "owner",
          "type": "address"
        },
        {
          "indexed": false,
          "internalType": "uint256",
          "name": "price",
          "type": "uint256"
        }
      ],
      "name": "StartedAuction",
      "type": "event"
    },
    {
      "inputs": [],
      "name": "Naksh_org",
      "outputs": [
        {
          "internalType": "address payable",
          "name": "",
          "type": "address"
        }
      ],
      "stateMutability": "view",
      "type": "function"
    },
    {
      "inputs": [
        {
          "internalType": "address",
          "name": "",
          "type": "address"
        },
        {
          "internalType": "uint256",
          "name": "",
          "type": "uint256"
        }
      ],
      "name": "auctionData",
      "outputs": [
        {
          "internalType": "uint256",
          "name": "startTime",
          "type": "uint256"
        },
        {
          "internalType": "uint256",
          "name": "endTime",
          "type": "uint256"
        },
        {
          "internalType": "uint256",
          "name": "tokenId",
          "type": "uint256"
        },
        {
          "internalType": "address",
          "name": "owner",
          "type": "address"
        },
        {
          "internalType": "uint256",
          "name": "price",
          "type": "uint256"
        },
        {
          "internalType": "uint256",
          "name": "highestBid",
          "type": "uint256"
        },
        {
          "internalType": "address",
          "name": "highestBidder",
          "type": "address"
        }
      ],
      "stateMutability": "view",
      "type": "function"
    },
    {
      "inputs": [
        {
          "internalType": "address",
          "name": "_nftAddress",
          "type": "address"
        },
        {
          "internalType": "uint256",
          "name": "_tokenId",
          "type": "uint256"
        }
      ],
      "name": "bid",
      "outputs": [
        {
          "internalType": "bool",
          "name": "",
          "type": "bool"
        }
      ],
      "stateMutability": "payable",
      "type": "function"
    },
    {
      "inputs": [
        {
          "internalType": "address",
          "name": "",
          "type": "address"
        }
      ],
      "name": "bids",
      "outputs": [
        {
          "internalType": "uint256",
          "name": "",
          "type": "uint256"
        }
      ],
      "stateMutability": "view",
      "type": "function"
    },
    {
      "inputs": [
        {
          "internalType": "uint256",
          "name": "_tokenId",
          "type": "uint256"
        },
        {
          "internalType": "address",
          "name": "_nftAddress",
          "type": "address"
        }
      ],
      "name": "buyTokenOnSale",
      "outputs": [],
      "stateMutability": "payable",
      "type": "function"
    },
    {
      "inputs": [
        {
          "internalType": "address",
          "name": "_nft",
          "type": "address"
        },
        {
          "internalType": "uint256",
          "name": "_tokenId",
          "type": "uint256"
        }
      ],
      "name": "cancelSale",
      "outputs": [],
      "stateMutability": "nonpayable",
      "type": "function"
    },
    {
      "inputs": [
        {
          "internalType": "address",
          "name": "_newOrg",
          "type": "address"
        }
      ],
      "name": "changeOrgAddress",
      "outputs": [],
      "stateMutability": "nonpayable",
      "type": "function"
    },
    {
      "inputs": [
        {
          "internalType": "address",
          "name": "_nft",
          "type": "address"
        },
        {
          "internalType": "uint256",
          "name": "_tokenId",
          "type": "uint256"
        },
        {
          "internalType": "uint256",
          "name": "price",
          "type": "uint256"
        }
      ],
      "name": "changePrice",
      "outputs": [],
      "stateMutability": "nonpayable",
      "type": "function"
    },
    {
      "inputs": [
        {
          "internalType": "address",
          "name": "_nftAddress",
          "type": "address"
        },
        {
          "internalType": "uint256",
          "name": "_tokenId",
          "type": "uint256"
        }
      ],
      "name": "endAuction",
      "outputs": [],
      "stateMutability": "nonpayable",
      "type": "function"
    },
    {
      "inputs": [
        {
          "internalType": "address",
          "name": "_nftAddress",
          "type": "address"
        },
        {
          "internalType": "uint256",
          "name": "_tokenId",
          "type": "uint256"
        }
      ],
      "name": "getBidHistory",
      "outputs": [
        {
          "components": [
            {
              "internalType": "address",
              "name": "bidder",
              "type": "address"
            },
            {
              "internalType": "uint256",
              "name": "amount",
              "type": "uint256"
            },
            {
              "internalType": "uint256",
              "name": "timestamp",
              "type": "uint256"
            }
          ],
          "internalType": "struct bidHistory[]",
          "name": "",
          "type": "tuple[]"
        }
      ],
      "stateMutability": "view",
      "type": "function"
    },
    {
      "inputs": [],
      "name": "getNFTonSale",
      "outputs": [
        {
          "components": [
            {
              "components": [
                {
                  "internalType": "address",
                  "name": "nftAddress",
                  "type": "address"
                },
                {
                  "internalType": "uint256",
                  "name": "tokenId",
                  "type": "uint256"
                },
                {
                  "internalType": "string",
                  "name": "tokenUri",
                  "type": "string"
                },
                {
                  "internalType": "string",
                  "name": "title",
                  "type": "string"
                },
                {
                  "internalType": "string",
                  "name": "description",
                  "type": "string"
                },
                {
                  "components": [
                    {
                      "internalType": "string",
                      "name": "name",
                      "type": "string"
                    },
                    {
                      "internalType": "address",
                      "name": "artistAddress",
                      "type": "address"
                    },
                    {
                      "internalType": "string",
                      "name": "imageUrl",
                      "type": "string"
                    }
                  ],
                  "internalType": "struct artistDetails",
                  "name": "artist",
                  "type": "tuple"
                },
                {
                  "internalType": "enum minter",
                  "name": "mintedBy",
                  "type": "uint8"
                }
              ],
              "internalType": "struct NFTData",
              "name": "nft",
              "type": "tuple"
            },
            {
              "internalType": "bool",
              "name": "isOnSale",
              "type": "bool"
            },
            {
              "internalType": "bool",
              "name": "tokenFirstSale",
              "type": "bool"
            },
            {
              "internalType": "uint256",
              "name": "salePrice",
              "type": "uint256"
            },
            {
              "internalType": "enum saleType",
              "name": "saletype",
              "type": "uint8"
            }
          ],
          "internalType": "struct SaleData[]",
          "name": "",
          "type": "tuple[]"
        }
      ],
      "stateMutability": "view",
      "type": "function"
    },
    {
      "inputs": [
        {
          "internalType": "address",
          "name": "_nft",
          "type": "address"
        },
        {
          "internalType": "uint256",
          "name": "_tokenId",
          "type": "uint256"
        }
      ],
      "name": "getSaleData",
      "outputs": [
        {
          "components": [
            {
              "components": [
                {
                  "internalType": "address",
                  "name": "nftAddress",
                  "type": "address"
                },
                {
                  "internalType": "uint256",
                  "name": "tokenId",
                  "type": "uint256"
                },
                {
                  "internalType": "string",
                  "name": "tokenUri",
                  "type": "string"
                },
                {
                  "internalType": "string",
                  "name": "title",
                  "type": "string"
                },
                {
                  "internalType": "string",
                  "name": "description",
                  "type": "string"
                },
                {
                  "components": [
                    {
                      "internalType": "string",
                      "name": "name",
                      "type": "string"
                    },
                    {
                      "internalType": "address",
                      "name": "artistAddress",
                      "type": "address"
                    },
                    {
                      "internalType": "string",
                      "name": "imageUrl",
                      "type": "string"
                    }
                  ],
                  "internalType": "struct artistDetails",
                  "name": "artist",
                  "type": "tuple"
                },
                {
                  "internalType": "enum minter",
                  "name": "mintedBy",
                  "type": "uint8"
                }
              ],
              "internalType": "struct NFTData",
              "name": "nft",
              "type": "tuple"
            },
            {
              "internalType": "bool",
              "name": "isOnSale",
              "type": "bool"
            },
            {
              "internalType": "bool",
              "name": "tokenFirstSale",
              "type": "bool"
            },
            {
              "internalType": "uint256",
              "name": "salePrice",
              "type": "uint256"
            },
            {
              "internalType": "enum saleType",
              "name": "saletype",
              "type": "uint8"
            }
          ],
          "internalType": "struct SaleData",
          "name": "",
          "type": "tuple"
        }
      ],
      "stateMutability": "view",
      "type": "function"
    },
    {
      "inputs": [
        {
          "internalType": "address",
          "name": "_nft",
          "type": "address"
        },
        {
          "internalType": "uint256",
          "name": "_tokenId",
          "type": "uint256"
        }
      ],
      "name": "getSalePrice",
      "outputs": [
        {
          "internalType": "uint256",
          "name": "",
          "type": "uint256"
        }
      ],
      "stateMutability": "view",
      "type": "function"
    },
    {
      "inputs": [
        {
          "internalType": "address",
          "name": "_nftAddress",
          "type": "address"
        },
        {
          "internalType": "uint256",
          "name": "_tokenId",
          "type": "uint256"
        }
      ],
      "name": "isTokenFirstSale",
      "outputs": [
        {
          "internalType": "bool",
          "name": "",
          "type": "bool"
        }
      ],
      "stateMutability": "view",
      "type": "function"
    },
    {
      "inputs": [
        {
          "internalType": "address",
          "name": "",
          "type": "address"
        },
        {
          "internalType": "address",
          "name": "",
          "type": "address"
        },
        {
          "internalType": "uint256",
          "name": "",
          "type": "uint256"
        },
        {
          "internalType": "bytes",
          "name": "",
          "type": "bytes"
        }
      ],
      "name": "onERC721Received",
      "outputs": [
        {
          "internalType": "bytes4",
          "name": "",
          "type": "bytes4"
        }
      ],
      "stateMutability": "nonpayable",
      "type": "function"
    },
    {
      "inputs": [],
      "name": "owner",
      "outputs": [
        {
          "internalType": "address",
          "name": "",
          "type": "address"
        }
      ],
      "stateMutability": "view",
      "type": "function"
    },
    {
      "inputs": [
        {
          "internalType": "address",
          "name": "",
          "type": "address"
        },
        {
          "internalType": "uint256",
          "name": "",
          "type": "uint256"
        },
        {
          "internalType": "uint256",
          "name": "",
          "type": "uint256"
        }
      ],
      "name": "prevBidData",
      "outputs": [
        {
          "internalType": "address",
          "name": "bidder",
          "type": "address"
        },
        {
          "internalType": "uint256",
          "name": "amount",
          "type": "uint256"
        },
        {
          "internalType": "uint256",
          "name": "timestamp",
          "type": "uint256"
        }
      ],
      "stateMutability": "view",
      "type": "function"
    },
    {
      "inputs": [],
      "name": "renounceOwnership",
      "outputs": [],
      "stateMutability": "nonpayable",
      "type": "function"
    },
    {
      "inputs": [
        {
          "internalType": "address",
          "name": "",
          "type": "address"
        },
        {
          "internalType": "uint256",
          "name": "",
          "type": "uint256"
        }
      ],
      "name": "saleData",
      "outputs": [
        {
          "components": [
            {
              "internalType": "address",
              "name": "nftAddress",
              "type": "address"
            },
            {
              "internalType": "uint256",
              "name": "tokenId",
              "type": "uint256"
            },
            {
              "internalType": "string",
              "name": "tokenUri",
              "type": "string"
            },
            {
              "internalType": "string",
              "name": "title",
              "type": "string"
            },
            {
              "internalType": "string",
              "name": "description",
              "type": "string"
            },
            {
              "components": [
                {
                  "internalType": "string",
                  "name": "name",
                  "type": "string"
                },
                {
                  "internalType": "address",
                  "name": "artistAddress",
                  "type": "address"
                },
                {
                  "internalType": "string",
                  "name": "imageUrl",
                  "type": "string"
                }
              ],
              "internalType": "struct artistDetails",
              "name": "artist",
              "type": "tuple"
            },
            {
              "internalType": "enum minter",
              "name": "mintedBy",
              "type": "uint8"
            }
          ],
          "internalType": "struct NFTData",
          "name": "nft",
          "type": "tuple"
        },
        {
          "internalType": "bool",
          "name": "isOnSale",
          "type": "bool"
        },
        {
          "internalType": "bool",
          "name": "tokenFirstSale",
          "type": "bool"
        },
        {
          "internalType": "uint256",
          "name": "salePrice",
          "type": "uint256"
        },
        {
          "internalType": "enum saleType",
          "name": "saletype",
          "type": "uint8"
        }
      ],
      "stateMutability": "view",
      "type": "function"
    },
    {
      "inputs": [
        {
          "internalType": "address",
          "name": "_nft",
          "type": "address"
        },
        {
          "internalType": "uint256",
          "name": "_tokenId",
          "type": "uint256"
        },
        {
          "internalType": "uint256",
          "name": "price",
          "type": "uint256"
        }
      ],
      "name": "setSale",
      "outputs": [],
      "stateMutability": "nonpayable",
      "type": "function"
    },
    {
      "inputs": [
        {
          "internalType": "address",
          "name": "_nftAddress",
          "type": "address"
        },
        {
          "internalType": "uint256",
          "name": "_tokenId",
          "type": "uint256"
        },
        {
          "internalType": "uint256",
          "name": "_price",
          "type": "uint256"
        },
        {
          "internalType": "uint256",
          "name": "_auctionTime",
          "type": "uint256"
        }
      ],
      "name": "startAuction",
      "outputs": [
        {
          "internalType": "bool",
          "name": "",
          "type": "bool"
        }
      ],
      "stateMutability": "nonpayable",
      "type": "function"
    },
    {
      "inputs": [
        {
          "internalType": "address",
          "name": "newOwner",
          "type": "address"
        }
      ],
      "name": "transferOwnership",
      "outputs": [],
      "stateMutability": "nonpayable",
      "type": "function"
    }
  ],
  "bytecode": "0x60806040523480156200001157600080fd5b506200001d3362000023565b62000073565b600080546001600160a01b038381166001600160a01b0319831681178455604051919092169283917f8be0079c531659141344cd1fd0a4f28419497f9722a3daafe3b4186f6b6457e09190a35050565b61401080620000836000396000f3fe6080604052600436106101355760003560e01c80638da5cb5b116100ab578063b58b98e41161006f578063b58b98e414610444578063b925ba3514610457578063ba4f7bf514610477578063c2477cd914610497578063db1caef2146104e5578063f2fde38b1461052a57600080fd5b80638da5cb5b146102f857806390b347051461032a5780639c166273146103d7578063a5ca4b95146103f7578063b33ec6d11461041757600080fd5b8063715018a6116100fd578063715018a614610225578063741cbae41461023a57806380fde6041461025a578063845b446d1461028b57806388cedbc4146102ab5780638cbd4642146102cb57600080fd5b8063150b7a021461013a57806316f3a95b14610183578063488859bc146101a557806359d667a5146101c757806362ea82db146101ea575b600080fd5b34801561014657600080fd5b5061016561015536600461380a565b630a85bd0160e11b949350505050565b6040516001600160e01b031990911681526020015b60405180910390f35b34801561018f57600080fd5b506101a361019e3660046138b9565b61054a565b005b3480156101b157600080fd5b506101ba610759565b60405161017a9190613aa4565b6101da6101d53660046138b9565b610b74565b604051901515815260200161017a565b3480156101f657600080fd5b50610217610205366004613b06565b60086020526000908152604090205481565b60405190815260200161017a565b34801561023157600080fd5b506101a3610ebb565b34801561024657600080fd5b506101a3610255366004613b2a565b610ecf565b34801561026657600080fd5b5061027a6102753660046138b9565b611033565b60405161017a959493929190613b5f565b34801561029757600080fd5b506101a36102a6366004613b06565b6113d3565b3480156102b757600080fd5b506101a36102c63660046138b9565b611463565b3480156102d757600080fd5b506102eb6102e63660046138b9565b611813565b60405161017a9190613ba3565b34801561030457600080fd5b506000546001600160a01b03165b6040516001600160a01b03909116815260200161017a565b34801561033657600080fd5b506103966103453660046138b9565b6006602081815260009384526040808520909152918352912080546001820154600283015460038401546004850154600586015495909601549395929491936001600160a01b039182169392911687565b604080519788526020880196909652948601939093526001600160a01b039182166060860152608085015260a08401919091521660c082015260e00161017a565b3480156103e357600080fd5b506101da6103f2366004613c05565b6118b4565b34801561040357600080fd5b50600154610312906001600160a01b031681565b34801561042357600080fd5b506104376104323660046138b9565b61203f565b60405161017a9190613c40565b6101a3610452366004613c53565b612480565b34801561046357600080fd5b506102176104723660046138b9565b612bbb565b34801561048357600080fd5b506101a3610492366004613b2a565b612c57565b3480156104a357600080fd5b506101da6104b23660046138b9565b6001600160a01b039190911660009081526003602090815260408083209383529290522060090154610100900460ff1690565b3480156104f157600080fd5b50610505610500366004613b2a565b6132a2565b604080516001600160a01b03909416845260208401929092529082015260600161017a565b34801561053657600080fd5b506101a3610545366004613b06565b6132fc565b6040516331a9108f60e11b8152600481018290528290829033906001600160a01b03841690636352211e90602401602060405180830381865afa158015610595573d6000803e3d6000fd5b505050506040513d601f19601f820116820180604052508101906105b99190613c93565b6001600160a01b0316146105cc57600080fd5b6001600160a01b038416600090815260036020908152604080832086845290915290206009015460ff1615156001146106205760405162461bcd60e51b815260040161061790613cb0565b60405180910390fd5b604051632142170760e11b81526001600160a01b038516906342842e0e9061065090309033908890600401613cdc565b600060405180830381600087803b15801561066a57600080fd5b505af115801561067e573d6000803e3d6000fd5b5050506001600160a01b0385166000908152600360209081526040808320878452909152812080546001600160a01b031916815560018101829055915081816106ca600283018261356a565b6106d860038301600061356a565b6106e660048301600061356a565b6005820160006106f6828261356a565b6001820180546001600160a01b031916905561071660028301600061356a565b505050600801805460ff1990811690915560098301805461ffff191690556000600a840155600b9092018054909216909155506107538484613375565b50505050565b60606002805480602002602001604051908101604052809291908181526020016000905b82821015610b6b57600084815260209020604080516101808101909152600c840290910180546001600160a01b031660a08301908152600182015460c0840152600282018054849291849160e0850191906107d790613d00565b80601f016020809104026020016040519081016040528092919081815260200182805461080390613d00565b80156108505780601f1061082557610100808354040283529160200191610850565b820191906000526020600020905b81548152906001019060200180831161083357829003601f168201915b5050505050815260200160038201805461086990613d00565b80601f016020809104026020016040519081016040528092919081815260200182805461089590613d00565b80156108e25780601f106108b7576101008083540402835291602001916108e2565b820191906000526020600020905b8154815290600101906020018083116108c557829003601f168201915b505050505081526020016004820180546108fb90613d00565b80601f016020809104026020016040519081016040528092919081815260200182805461092790613d00565b80156109745780601f1061094957610100808354040283529160200191610974565b820191906000526020600020905b81548152906001019060200180831161095757829003601f168201915b505050505081526020016005820160405180606001604052908160008201805461099d90613d00565b80601f01602080910402602001604051908101604052809291908181526020018280546109c990613d00565b8015610a165780601f106109eb57610100808354040283529160200191610a16565b820191906000526020600020905b8154815290600101906020018083116109f957829003601f168201915b505050918352505060018201546001600160a01b03166020820152600282018054604090920191610a4690613d00565b80601f0160208091040260200160405190810160405280929190818152602001828054610a7290613d00565b8015610abf5780601f10610a9457610100808354040283529160200191610abf565b820191906000526020600020905b815481529060010190602001808311610aa257829003601f168201915b505050919092525050508152600882015460209091019060ff166001811115610aea57610aea61393d565b6001811115610afb57610afb61393d565b9052508152600982015460ff80821615156020840152610100909104811615156040830152600a8301546060830152600b830154608090920191166001811115610b4757610b4761393d565b6001811115610b5857610b5861393d565b815250508152602001906001019061077d565b50505050905090565b6001600160a01b0380831660009081526006602081815260408084208685528252808420815160e08101835281548152600182015493810184905260028201549281019290925260038101548616606083015260048101546080830152600581015460a08301529092015490931660c08201529091421115610c2c5760405162461bcd60e51b8152602060048201526011602482015270105d58dd1a5bdb881a185cc8195b991959607a1b6044820152606401610617565b3481608001511115610c805760405162461bcd60e51b815260206004820152601860248201527f506179206d6f7265207468616e206261736520707269636500000000000000006044820152606401610617565b348160a001511115610cd45760405162461bcd60e51b815260206004820152601960248201527f506179206d6f7265207468616e206869676865737420626964000000000000006044820152606401610617565b60c08101516001600160a01b031615610dda5760408051606081018252338152346020808301918252428385019081526001600160a01b038981166000908152600784528681208a82528452868120805460018082018355918352858320885160039092020180546001600160a01b031916918516919091178155955190860155915160029094019390935560c08601805184168252600890925284812054825184168252858220829055915194519394919391909216916108fc841502918491818181858888f19350505050158015610db2573d6000803e3d6000fd5b50503460a083018190523360008181526008602052604090209190915560c083015250610e63565b3360c082018190523460a08301819052604080516060810182529283526020838101928352428483019081526001600160a01b038981166000908152600784528481208a82528452938420805460018082018355918652939094209551600390930290950180546001600160a01b03191692909516919091178455915190830155516002909101555b604080516001600160a01b038616815260208101859052338183015234606082015290517f79684d1b1ab0696f350cf9140afdad29546349a282cc23a24550708d33d484d39181900360800190a15060019392505050565b610ec36134c0565b610ecd600061351a565b565b6040516331a9108f60e11b8152600481018390528390839033906001600160a01b03841690636352211e90602401602060405180830381865afa158015610f1a573d6000803e3d6000fd5b505050506040513d601f19601f82011682018060405250810190610f3e9190613c93565b6001600160a01b031614610f5157600080fd5b6001600160a01b038516600090815260036020908152604080832087845290915290206009015460ff161515600114610f9c5760405162461bcd60e51b815260040161061790613cb0565b600083116110085760405162461bcd60e51b815260206004820152603360248201527f6368616e676550726963653a2050726963652063616e6e6f742062652063686160448201527206e67656420746f206c657373207468616e203606c1b6064820152608401610617565b50506001600160a01b03909216600090815260036020908152604080832093835292905220600a0155565b6003602090815260009283526040808420825291835291819020815160e08101835281546001600160a01b031681526001820154938101939093526002810180549193928492908401919061108790613d00565b80601f01602080910402602001604051908101604052809291908181526020018280546110b390613d00565b80156111005780601f106110d557610100808354040283529160200191611100565b820191906000526020600020905b8154815290600101906020018083116110e357829003601f168201915b5050505050815260200160038201805461111990613d00565b80601f016020809104026020016040519081016040528092919081815260200182805461114590613d00565b80156111925780601f1061116757610100808354040283529160200191611192565b820191906000526020600020905b81548152906001019060200180831161117557829003601f168201915b505050505081526020016004820180546111ab90613d00565b80601f01602080910402602001604051908101604052809291908181526020018280546111d790613d00565b80156112245780601f106111f957610100808354040283529160200191611224565b820191906000526020600020905b81548152906001019060200180831161120757829003601f168201915b505050505081526020016005820160405180606001604052908160008201805461124d90613d00565b80601f016020809104026020016040519081016040528092919081815260200182805461127990613d00565b80156112c65780601f1061129b576101008083540402835291602001916112c6565b820191906000526020600020905b8154815290600101906020018083116112a957829003601f168201915b505050918352505060018201546001600160a01b031660208201526002820180546040909201916112f690613d00565b80601f016020809104026020016040519081016040528092919081815260200182805461132290613d00565b801561136f5780601f106113445761010080835404028352916020019161136f565b820191906000526020600020905b81548152906001019060200180831161135257829003601f168201915b505050919092525050508152600882015460209091019060ff16600181111561139a5761139a61393d565b60018111156113ab576113ab61393d565b9052506009820154600a830154600b90930154919260ff808316936101009093048116921685565b6113db6134c0565b6001600160a01b0381166114415760405162461bcd60e51b815260206004820152602760248201527f4e6577206f7267616e697a6174696f6e2063616e6e6f74206265207a65726f206044820152666164647265737360c81b6064820152608401610617565b600180546001600160a01b0319166001600160a01b0392909216919091179055565b6001600160a01b038083166000908152600660208181526040808420868552825292839020835160e08101855281548152600182015492810192909252600281015493820193909352600383015484166060820181905260048401546080830152600584015460a0830152929091015490921660c083015233146115295760405162461bcd60e51b815260206004820152601f60248201527f4f6e6c79206f776e6572206f66206e66742063616e2063616c6c2074686973006044820152606401610617565b428160200151111561157d5760405162461bcd60e51b815260206004820152601960248201527f41756374696f6e20686173206e6f742079657420656e646564000000000000006044820152606401610617565b60c08101516001600160a01b03161561162b5760a0810151604051339180156108fc02916000818181858888f193505050501580156115c0573d6000803e3d6000fd5b5060c0810151604051632142170760e11b81526001600160a01b038516916342842e0e916115f49130918790600401613cdc565b600060405180830381600087803b15801561160e57600080fd5b505af1158015611622573d6000803e3d6000fd5b5050505061168e565b604051632142170760e11b81526001600160a01b038416906342842e0e9061165b90309033908790600401613cdc565b600060405180830381600087803b15801561167557600080fd5b505af1158015611689573d6000803e3d6000fd5b505050505b6116e06040518060e0016040528060008152602001600081526020016000815260200160006001600160a01b03168152602001600081526020016000815260200160006001600160a01b031681525090565b6001600160a01b0384166000908152600360209081526040808320868452909152812080546001600160a01b031916815560018101829055919250818161172a600283018261356a565b61173860038301600061356a565b61174660048301600061356a565b600582016000611756828261356a565b6001820180546001600160a01b031916905561177660028301600061356a565b505050600801805460ff1990811690915560098301805461ffff191690556000600a840155600b9092018054909216909155506117b38383613375565b60c081015160a0820151604080516001600160a01b038088168252602082018790529093169083015260608201527f0c6b0df5dd4c3f092c33f9b116ab1f236ead3091d559f050c1636d37cb8b8d829060800160405180910390a1505050565b6001600160a01b03821660009081526007602090815260408083208484528252808320805482518185028101850190935280835260609492939192909184015b828210156118a8576000848152602090819020604080516060810182526003860290920180546001600160a01b0316835260018082015484860152600290910154918301919091529083529092019101611853565b50505050905092915050565b6040516331a9108f60e11b8152600481018490526000908590859033906001600160a01b03841690636352211e90602401602060405180830381865afa158015611902573d6000803e3d6000fd5b505050506040513d601f19601f820116820180604052508101906119269190613c93565b6001600160a01b03161461193957600080fd5b6001600160a01b038716600090815260036020908152604080832089845290915290206009015460ff16156119a95760405162461bcd60e51b81526020600482015260166024820152754e465420697320616c7265616479206f6e2073616c6560501b6044820152606401610617565b604051632142170760e11b815242906001600160a01b038916906342842e0e906119db90339030908c90600401613cdc565b600060405180830381600087803b1580156119f557600080fd5b505af1158015611a09573d6000803e3d6000fd5b5050505060008542611a1b9190613d51565b905060006040518060e001604052808481526020018381526020018a8152602001336001600160a01b031681526020018981526020016000815260200160006001600160a01b0316815250905080600660008c6001600160a01b03166001600160a01b0316815260200190815260200160002060008b815260200190815260200160002060008201518160000155602082015181600101556040820151816002015560608201518160030160006101000a8154816001600160a01b0302191690836001600160a01b031602179055506080820151816004015560a0820151816005015560c08201518160060160006101000a8154816001600160a01b0302191690836001600160a01b03160217905550905050600481908060018154018082558091505060019003906000526020600020906007020160009091909190915060008201518160000155602082015181600101556040820151816002015560608201518160030160006101000a8154816001600160a01b0302191690836001600160a01b031602179055506080820151816004015560a0820151816005015560c08201518160060160006101000a8154816001600160a01b0302191690836001600160a01b031602179055505050896001600160a01b0316630ad4c4f48a6040518263ffffffff1660e01b8152600401611c1691815260200190565b600060405180830381865afa158015611c33573d6000803e3d6000fd5b505050506040513d6000823e601f3d908101601f19168201604052611c5b9190810190613e65565b6001600160a01b038b811660009081526003602090815260408083208e8452825291829020845181546001600160a01b0319169416939093178355838101516001840155908301518051611cb592600285019201906135a4565b5060608201518051611cd19160038401916020909101906135a4565b5060808201518051611ced9160048401916020909101906135a4565b5060a0820151805180516005840191611d0b918391602001906135a4565b506020828101516001830180546001600160a01b0319166001600160a01b0390921691909117905560408301518051611d4a92600285019201906135a4565b50505060c082015160088201805460ff191660018381811115611d6f57611d6f61393d565b021790555050506001600160a01b038a811660009081526003602090815260408083208d84529091528120600981018054600160ff199182168117909255600a83018d9055600b8301805490911682179055600280548083018255938190528254600c9094027f405787fa12a823e0f2b7631cc41b3ba8828b3321ca811111fa75cd3aa3bb5ace810180546001600160a01b03191695909616949094178555908201547f405787fa12a823e0f2b7631cc41b3ba8828b3321ca811111fa75cd3aa3bb5acf84015581018054919392849284927f405787fa12a823e0f2b7631cc41b3ba8828b3321ca811111fa75cd3aa3bb5ad09092019190611e7090613d00565b611e7b929190613628565b506003820181600301908054611e9090613d00565b611e9b929190613628565b506004820181600401908054611eb090613d00565b611ebb929190613628565b5060058201816005016000820181600001908054611ed890613d00565b611ee3929190613628565b5060018281015490820180546001600160a01b0319166001600160a01b039092169190911790556002808301805491830191611f1e90613d00565b611f29929190613628565b505050600882810154908201805460ff9092169160ff191660018381811115611f5457611f5461393d565b0217905550505060098281018054918301805460ff938416151560ff1980831682178455935461010090819004861615150261ff001990911661ffff1990921691909117179055600a8085015490840155600b8085015490840180549190931692911660018381811115611fca57611fca61393d565b021790555050604080516001600160a01b038d16815260208101869052908101849052606081018b905233608082015260a081018a90527f9a18585cbe9ebcd7959226e589af67bb0bc09b6d70ee1ef64110866fb95131db915060c00160405180910390a15060019998505050505050505050565b6120476136a3565b6001600160a01b038316600090815260036020908152604080832085845290915290206009015460ff1615156001146120925760405162461bcd60e51b815260040161061790613cb0565b6001600160a01b0380841660009081526003602090815260408083208684529091529081902081516101808101909252805490921660a08201908152600183015460c0830152600283018054929392849291849160e0850191906120f590613d00565b80601f016020809104026020016040519081016040528092919081815260200182805461212190613d00565b801561216e5780601f106121435761010080835404028352916020019161216e565b820191906000526020600020905b81548152906001019060200180831161215157829003601f168201915b5050505050815260200160038201805461218790613d00565b80601f01602080910402602001604051908101604052809291908181526020018280546121b390613d00565b80156122005780601f106121d557610100808354040283529160200191612200565b820191906000526020600020905b8154815290600101906020018083116121e357829003601f168201915b5050505050815260200160048201805461221990613d00565b80601f016020809104026020016040519081016040528092919081815260200182805461224590613d00565b80156122925780601f1061226757610100808354040283529160200191612292565b820191906000526020600020905b81548152906001019060200180831161227557829003601f168201915b50505050508152602001600582016040518060600160405290816000820180546122bb90613d00565b80601f01602080910402602001604051908101604052809291908181526020018280546122e790613d00565b80156123345780601f1061230957610100808354040283529160200191612334565b820191906000526020600020905b81548152906001019060200180831161231757829003601f168201915b505050918352505060018201546001600160a01b0316602082015260028201805460409092019161236490613d00565b80601f016020809104026020016040519081016040528092919081815260200182805461239090613d00565b80156123dd5780601f106123b2576101008083540402835291602001916123dd565b820191906000526020600020905b8154815290600101906020018083116123c057829003601f168201915b505050919092525050508152600882015460209091019060ff1660018111156124085761240861393d565b60018111156124195761241961393d565b9052508152600982015460ff80821615156020840152610100909104811615156040830152600a8301546060830152600b8301546080909201911660018111156124655761246561393d565b60018111156124765761247661393d565b9052509392505050565b6001600160a01b03811660008181526003602090815260408083208684528252808320600a01548151630bc073e160e41b815291518695919493919263bc073e109260048083019391928290030181865afa1580156124e3573d6000803e3d6000fd5b505050506040513d601f19601f820116820180604052508101906125079190613f6a565b90506000836001600160a01b031663e88958dc6040518163ffffffff1660e01b8152600401602060405180830381865afa158015612549573d6000803e3d6000fd5b505050506040513d601f19601f8201168201806040525081019061256d9190613f6a565b90506000846001600160a01b03166364969ced6040518163ffffffff1660e01b8152600401602060405180830381865afa1580156125af573d6000803e3d6000fd5b505050506040513d601f19601f820116820180604052508101906125d39190613f6a565b9050836126225760405162461bcd60e51b815260206004820152601860248201527f627579546f6b656e3a20707269636520657175616c73203000000000000000006044820152606401610617565b8334101561268b5760405162461bcd60e51b815260206004820152603060248201527f627579546f6b656e3a20707269636520646f65736e277420657175616c20736160448201526f6c6550726963655b746f6b656e49645d60801b6064820152608401610617565b6040516331a9108f60e11b8152600481018890526000906001600160a01b03881690636352211e90602401602060405180830381865afa1580156126d3573d6000803e3d6000fd5b505050506040513d601f19601f820116820180604052508101906126f79190613c93565b604051632142170760e11b81529091506001600160a01b038816906342842e0e9061272a90309033908d90600401613cdc565b600060405180830381600087803b15801561274457600080fd5b505af1158015612758573d6000803e3d6000fd5b5050506001600160a01b03881660009081526003602090815260408083208c8452909152812080546001600160a01b031916815560018101829055915081816127a4600283018261356a565b6127b260038301600061356a565b6127c060048301600061356a565b6005820160006127d0828261356a565b6001820180546001600160a01b03191690556127f060028301600061356a565b505050600801805460ff1990811690915560098301805461ffff191690556000600a840155600b90920180549092169091555061282d8789613375565b6001600160a01b03871660009081526003602090815260408083208b8452909152902060090154610100900460ff1661295f57856001600160a01b031663bcc2ace66040518163ffffffff1660e01b8152600401602060405180830381865afa15801561289e573d6000803e3d6000fd5b505050506040513d601f19601f820116820180604052508101906128c29190613f6a565b9150856001600160a01b03166343741e046040518163ffffffff1660e01b8152600401602060405180830381865afa158015612902573d6000803e3d6000fd5b505050506040513d601f19601f820116820180604052508101906129269190613f6a565b6001600160a01b03881660009081526003602090815260408083208c84529091528120600901805461ff00191661010017905590945092505b600061271061296e8634613f83565b6129789190613fa2565b905060006127106129898634613f83565b6129939190613fa2565b905060006127106129a48634613f83565b6129ae9190613fa2565b6040519091506001600160a01b0385169084156108fc029085906000818181858888f193505050501580156129e7573d6000803e3d6000fd5b508115612b1d576000896001600160a01b0316632e098d2a6040518163ffffffff1660e01b8152600401602060405180830381865afa158015612a2e573d6000803e3d6000fd5b505050506040513d601f19601f82011682018060405250810190612a529190613f6a565b90506000612a608285613fa2565b905060005b828160ff161015612b19576040516366a9e84760e11b815260ff821660048201526001600160a01b038d169063cd53d08e90602401602060405180830381865afa158015612ab7573d6000803e3d6000fd5b505050506040513d601f19601f82011682018060405250810190612adb9190613c93565b6001600160a01b03166108fc839081150290604051600060405180830381858888f19350505050158015612b13573d6000803e3d6000fd5b50612a65565b5050505b6001546040516001600160a01b039091169082156108fc029083906000818181858888f19350505050158015612b57573d6000803e3d6000fd5b50604080516001600160a01b038c81168252336020830152861681830152346060820152608081018d905290517f5764dbcef91eb6f946584f4ea671217c686fa7e858ce4f9f42d08422b86556a99181900360a00190a15050505050505050505050565b6001600160a01b038216600090815260036020908152604080832084845290915281206009015460ff161515600114612c2b5760405162461bcd60e51b81526020600482015260126024820152714e4654206973206e6f74206f6e2053616c6560701b6044820152606401610617565b506001600160a01b0391909116600090815260036020908152604080832093835292905220600a015490565b6040516331a9108f60e11b8152600481018390528390839033906001600160a01b03841690636352211e90602401602060405180830381865afa158015612ca2573d6000803e3d6000fd5b505050506040513d601f19601f82011682018060405250810190612cc69190613c93565b6001600160a01b031614612cd957600080fd5b6001600160a01b038516600090815260036020908152604080832087845290915290206009015460ff1615612d495760405162461bcd60e51b81526020600482015260166024820152754e465420697320616c7265616479206f6e2073616c6560501b6044820152606401610617565b6040516331a9108f60e11b8152600481018590526000906001600160a01b03871690636352211e90602401602060405180830381865afa158015612d91573d6000803e3d6000fd5b505050506040513d601f19601f82011682018060405250810190612db59190613c93565b90506001600160a01b038116612e0d5760405162461bcd60e51b815260206004820152601a60248201527f73657453616c653a206e6f6e6578697374656e7420746f6b656e0000000000006044820152606401610617565b604051632142170760e11b81526001600160a01b038716906342842e0e90612e3d90339030908a90600401613cdc565b600060405180830381600087803b158015612e5757600080fd5b505af1158015612e6b573d6000803e3d6000fd5b50506040516302b5313d60e21b8152600481018890526001600160a01b0389169250630ad4c4f49150602401600060405180830381865afa158015612eb4573d6000803e3d6000fd5b505050506040513d6000823e601f3d908101601f19168201604052612edc9190810190613e65565b6001600160a01b0387811660009081526003602090815260408083208a8452825291829020845181546001600160a01b0319169416939093178355838101516001840155908301518051612f3692600285019201906135a4565b5060608201518051612f529160038401916020909101906135a4565b5060808201518051612f6e9160048401916020909101906135a4565b5060a0820151805180516005840191612f8c918391602001906135a4565b506020828101516001830180546001600160a01b0319166001600160a01b0390921691909117905560408301518051612fcb92600285019201906135a4565b50505060c082015160088201805460ff191660018381811115612ff057612ff061393d565b021790555050506001600160a01b0386811660009081526003602090815260408083208984529091528120600981018054600160ff199182168117909255600a8301899055600b830180549091169055600280548083018255938190528254600c9094027f405787fa12a823e0f2b7631cc41b3ba8828b3321ca811111fa75cd3aa3bb5ace810180546001600160a01b03191695909616949094178555908201547f405787fa12a823e0f2b7631cc41b3ba8828b3321ca811111fa75cd3aa3bb5acf84015581018054919392849284927f405787fa12a823e0f2b7631cc41b3ba8828b3321ca811111fa75cd3aa3bb5ad090920191906130ef90613d00565b6130fa929190613628565b50600382018160030190805461310f90613d00565b61311a929190613628565b50600482018160040190805461312f90613d00565b61313a929190613628565b506005820181600501600082018160000190805461315790613d00565b613162929190613628565b5060018281015490820180546001600160a01b0319166001600160a01b03909216919091179055600280830180549183019161319d90613d00565b6131a8929190613628565b505050600882810154908201805460ff9092169160ff1916600183818111156131d3576131d361393d565b0217905550505060098281018054918301805460ff938416151560ff1980831682178455935461010090819004861615150261ff001990911661ffff1990921691909117179055600a8085015490840155600b80850154908401805491909316929116600183818111156132495761324961393d565b021790555050604080516001600160a01b0389168152602081018890529081018690527facce2f9cd0a592c29f756d197d682fdc9b652cbb2f23b2df13274f21dc6d6639915060600160405180910390a1505050505050565b600760205282600052604060002060205281600052604060002081815481106132ca57600080fd5b60009182526020909120600390910201805460018201546002909201546001600160a01b039091169450909250905083565b6133046134c0565b6001600160a01b0381166133695760405162461bcd60e51b815260206004820152602660248201527f4f776e61626c653a206e6577206f776e657220697320746865207a65726f206160448201526564647265737360d01b6064820152608401610617565b6133728161351a565b50565b60025460005b81811161075357836001600160a01b03166002828154811061339f5761339f613fc4565b60009182526020909120600c90910201546001600160a01b03161480156133ec575082600282815481106133d5576133d5613fc4565b90600052602060002090600c020160000160010154145b156134b8576002818154811061340457613404613fc4565b600091825260208220600c9091020180546001600160a01b031916815560018101829055908181613438600283018261356a565b61344660038301600061356a565b61345460048301600061356a565b600582016000613464828261356a565b6001820180546001600160a01b031916905561348460028301600061356a565b505050600801805460ff1990811690915560098301805461ffff191690556000600a840155600b9092018054909216909155505b60010161337b565b6000546001600160a01b03163314610ecd5760405162461bcd60e51b815260206004820181905260248201527f4f776e61626c653a2063616c6c6572206973206e6f7420746865206f776e65726044820152606401610617565b600080546001600160a01b038381166001600160a01b0319831681178455604051919092169283917f8be0079c531659141344cd1fd0a4f28419497f9722a3daafe3b4186f6b6457e09190a35050565b50805461357690613d00565b6000825580601f10613586575050565b601f01602090049060005260206000209081019061337291906136d8565b8280546135b090613d00565b90600052602060002090601f0160209004810192826135d25760008555613618565b82601f106135eb57805160ff1916838001178555613618565b82800160010185558215613618579182015b828111156136185782518255916020019190600101906135fd565b506136249291506136d8565b5090565b82805461363490613d00565b90600052602060002090601f0160209004810192826136565760008555613618565b82601f106136675780548555613618565b8280016001018555821561361857600052602060002091601f016020900482015b82811115613618578254825591600101919060010190613688565b6040518060a001604052806136b66136ed565b8152600060208201819052604082018190526060820181905260809091015290565b5b8082111561362457600081556001016136d9565b6040518060e0016040528060006001600160a01b031681526020016000815260200160608152602001606081526020016060815260200161375160405180606001604052806060815260200160006001600160a01b03168152602001606081525090565b81526020016000905290565b6001600160a01b038116811461337257600080fd5b634e487b7160e01b600052604160045260246000fd5b60405160e0810167ffffffffffffffff811182821017156137ab576137ab613772565b60405290565b604051601f8201601f1916810167ffffffffffffffff811182821017156137da576137da613772565b604052919050565b600067ffffffffffffffff8211156137fc576137fc613772565b50601f01601f191660200190565b6000806000806080858703121561382057600080fd5b843561382b8161375d565b9350602085013561383b8161375d565b925060408501359150606085013567ffffffffffffffff81111561385e57600080fd5b8501601f8101871361386f57600080fd5b803561388261387d826137e2565b6137b1565b81815288602083850101111561389757600080fd5b8160208401602083013760006020838301015280935050505092959194509250565b600080604083850312156138cc57600080fd5b82356138d78161375d565b946020939093013593505050565b60005b838110156139005781810151838201526020016138e8565b838111156107535750506000910152565b600081518084526139298160208601602086016138e5565b601f01601f19169290920160200192915050565b634e487b7160e01b600052602160045260246000fd5b6002811061337257634e487b7160e01b600052602160045260246000fd5b61397a81613953565b9052565b600060018060a01b0380835116845260208301516020850152604083015160e060408601526139b060e0860182613911565b9050606084015185820360608701526139c98282613911565b915050608084015185820360808701526139e38282613911565b91505060a084015185820360a0870152805160608352613a066060840182613911565b9050836020830151166020840152604082015193508281036040840152613a2d8185613911565b935050505060c0830151613a4460c0860182613971565b509392505050565b6000815160a08452613a6160a085018261397e565b9050602083015115156020850152604083015115156040850152606083015160608501526080830151613a9381613953565b806080860152508091505092915050565b6000602080830181845280855180835260408601915060408160051b870101925083870160005b82811015613af957603f19888603018452613ae7858351613a4c565b94509285019290850190600101613acb565b5092979650505050505050565b600060208284031215613b1857600080fd5b8135613b238161375d565b9392505050565b600080600060608486031215613b3f57600080fd5b8335613b4a8161375d565b95602085013595506040909401359392505050565b60a081526000613b7260a083018861397e565b905085151560208301528415156040830152836060830152613b9383613953565b8260808301529695505050505050565b602080825282518282018190526000919060409081850190868401855b82811015613bf857815180516001600160a01b0316855286810151878601528501518585015260609093019290850190600101613bc0565b5091979650505050505050565b60008060008060808587031215613c1b57600080fd5b8435613c268161375d565b966020860135965060408601359560600135945092505050565b602081526000613b236020830184613a4c565b60008060408385031215613c6657600080fd5b823591506020830135613c788161375d565b809150509250929050565b8051613c8e8161375d565b919050565b600060208284031215613ca557600080fd5b8151613b238161375d565b6020808252601290820152714e4654206973206e6f74206f6e2073616c6560701b604082015260600190565b6001600160a01b039384168152919092166020820152604081019190915260600190565b600181811c90821680613d1457607f821691505b60208210811415613d3557634e487b7160e01b600052602260045260246000fd5b50919050565b634e487b7160e01b600052601160045260246000fd5b60008219821115613d6457613d64613d3b565b500190565b600082601f830112613d7a57600080fd5b8151613d8861387d826137e2565b818152846020838601011115613d9d57600080fd5b613dae8260208301602087016138e5565b949350505050565b600060608284031215613dc857600080fd5b6040516060810167ffffffffffffffff8282108183111715613dec57613dec613772565b816040528293508451915080821115613e0457600080fd5b613e1086838701613d69565b835260208501519150613e228261375d565b8160208401526040850151915080821115613e3c57600080fd5b50613e4985828601613d69565b6040830152505092915050565b805160028110613c8e57600080fd5b600060208284031215613e7757600080fd5b815167ffffffffffffffff80821115613e8f57600080fd5b9083019060e08286031215613ea357600080fd5b613eab613788565b613eb483613c83565b815260208301516020820152604083015182811115613ed257600080fd5b613ede87828601613d69565b604083015250606083015182811115613ef657600080fd5b613f0287828601613d69565b606083015250608083015182811115613f1a57600080fd5b613f2687828601613d69565b60808301525060a083015182811115613f3e57600080fd5b613f4a87828601613db6565b60a083015250613f5c60c08401613e56565b60c082015295945050505050565b600060208284031215613f7c57600080fd5b5051919050565b6000816000190483118215151615613f9d57613f9d613d3b565b500290565b600082613fbf57634e487b7160e01b600052601260045260246000fd5b500490565b634e487b7160e01b600052603260045260246000fdfea264697066735822122014debc8738cf149a439e39b9495b8c319444c0f1e0118e9ec11d146d25fa675264736f6c634300080a0033",
  "linkReferences": {},
  "deployedLinkReferences": {}
}