{
  "_format": "hh-sol-artifact-1",
  "contractName": "NakshFactory",
  "sourceName": "contracts/NakshFactory.sol",
  "abi": [
    {
      "anonymous": false,
      "inputs": [
        {
          "indexed": false,
          "internalType": "address",
          "name": "creator",
          "type": "address"
        },
        {
          "indexed": false,
          "internalType": "string",
          "name": "name",
          "type": "string"
        },
        {
          "indexed": false,
          "internalType": "string",
          "name": "symbol",
          "type": "string"
        },
        {
          "indexed": false,
          "internalType": "address",
          "name": "nftAddress",
          "type": "address"
        }
      ],
      "name": "CollectionCreated",
      "type": "event"
    },
    {
      "inputs": [
        {
          "internalType": "address",
          "name": "",
          "type": "address"
        },
        {
          "internalType": "uint256",
          "name": "",
          "type": "uint256"
        }
      ],
      "name": "artistCollections",
      "outputs": [
        {
          "internalType": "address",
          "name": "",
          "type": "address"
        }
      ],
      "stateMutability": "view",
      "type": "function"
    },
    {
      "inputs": [
        {
          "components": [
            {
              "internalType": "string",
              "name": "name",
              "type": "string"
            },
            {
              "internalType": "address",
              "name": "artistAddress",
              "type": "address"
            },
            {
              "internalType": "string",
              "name": "imageUrl",
              "type": "string"
            }
          ],
          "internalType": "struct artistDetails",
          "name": "artist",
          "type": "tuple"
        },
        {
          "components": [
            {
              "internalType": "string",
              "name": "name",
              "type": "string"
            },
            {
              "internalType": "string",
              "name": "symbol",
              "type": "string"
            },
            {
              "internalType": "string",
              "name": "about",
              "type": "string"
            },
            {
              "internalType": "string",
              "name": "logo",
              "type": "string"
            },
            {
              "components": [
                {
                  "internalType": "string",
                  "name": "uri",
                  "type": "string"
                },
                {
                  "internalType": "bool",
                  "name": "isGradient",
                  "type": "bool"
                }
              ],
              "internalType": "struct CoverImage",
              "name": "cover",
              "type": "tuple"
            },
            {
              "components": [
                {
                  "internalType": "string",
                  "name": "instagram",
                  "type": "string"
                },
                {
                  "internalType": "string",
                  "name": "facebook",
                  "type": "string"
                },
                {
                  "internalType": "string",
                  "name": "twitter",
                  "type": "string"
                },
                {
                  "internalType": "string",
                  "name": "website",
                  "type": "string"
                }
              ],
              "internalType": "struct SocialMediaData",
              "name": "social",
              "type": "tuple"
            }
          ],
          "internalType": "struct CollectionDetails",
          "name": "collection",
          "type": "tuple"
        },
        {
          "internalType": "address payable",
          "name": "_admin",
          "type": "address"
        },
        {
          "internalType": "uint16",
          "name": "_creatorFee",
          "type": "uint16"
        },
        {
          "internalType": "address payable[]",
          "name": "_creators",
          "type": "address[]"
        }
      ],
      "name": "deployNftCollection",
      "outputs": [
        {
          "internalType": "address",
          "name": "",
          "type": "address"
        }
      ],
      "stateMutability": "nonpayable",
      "type": "function"
    },
    {
      "inputs": [
        {
          "internalType": "address",
          "name": "_artist",
          "type": "address"
        }
      ],
      "name": "getArtistCollections",
      "outputs": [
        {
          "internalType": "address[]",
          "name": "",
          "type": "address[]"
        }
      ],
      "stateMutability": "view",
      "type": "function"
    }
  ],
  "bytecode": "0x608060405234801561001057600080fd5b50615d4f806100206000396000f3fe60806040523480156200001157600080fd5b5060043610620000465760003560e01c80634ada4415146200004b5780639826c01a146200007a578063e38b4c2714620000aa575b600080fd5b620000626200005c36600462000266565b620000c1565b6040516200007191906200028d565b60405180910390f35b620000916200008b36600462000734565b62000137565b6040516001600160a01b03909116815260200162000071565b62000091620000bb3660046200085a565b62000206565b6001600160a01b038116600090815260208181526040918290208054835181840281018401909452808452606093928301828280156200012b57602002820191906000526020600020905b81546001600160a01b031681526001909101906020018083116200010c575b50505050509050919050565b6000808686338787876040516200014e906200023f565b6200015f9695949392919062000992565b604051809103906000f0801580156200017c573d6000803e3d6000fd5b503360008181526020818152604080832080546001810182559084529282902090920180546001600160a01b0319166001600160a01b0386161790558951908a015191519394507f6974864ab24c795f57c207a650ae6763287c14a1c55fedc8506acb02796eb1a593620001f4939290869062000af7565b60405180910390a19695505050505050565b600060205281600052604060002081815481106200022357600080fd5b6000918252602090912001546001600160a01b03169150829050565b6151d58062000b4583390190565b6001600160a01b03811681146200026357600080fd5b50565b6000602082840312156200027957600080fd5b813562000286816200024d565b9392505050565b6020808252825182820181905260009190848201906040850190845b81811015620002d05783516001600160a01b031683529284019291840191600101620002a9565b50909695505050505050565b634e487b7160e01b600052604160045260246000fd5b6040516080810167ffffffffffffffff81118282101715620003185762000318620002dc565b60405290565b60405160c0810167ffffffffffffffff81118282101715620003185762000318620002dc565b6040516060810167ffffffffffffffff81118282101715620003185762000318620002dc565b604051601f8201601f1916810167ffffffffffffffff81118282101715620003965762000396620002dc565b604052919050565b600082601f830112620003b057600080fd5b813567ffffffffffffffff811115620003cd57620003cd620002dc565b620003e2601f8201601f19166020016200036a565b818152846020838601011115620003f857600080fd5b816020850160208301376000918101602001919091529392505050565b6000604082840312156200042857600080fd5b6040516040810167ffffffffffffffff82821081831117156200044f576200044f620002dc565b8160405282935084359150808211156200046857600080fd5b5062000477858286016200039e565b825250602083013580151581146200048e57600080fd5b6020919091015292915050565b600060808284031215620004ae57600080fd5b620004b8620002f2565b9050813567ffffffffffffffff80821115620004d357600080fd5b620004e1858386016200039e565b83526020840135915080821115620004f857600080fd5b62000506858386016200039e565b602084015260408401359150808211156200052057600080fd5b6200052e858386016200039e565b604084015260608401359150808211156200054857600080fd5b5062000557848285016200039e565b60608301525092915050565b600060c082840312156200057657600080fd5b620005806200031e565b9050813567ffffffffffffffff808211156200059b57600080fd5b620005a9858386016200039e565b83526020840135915080821115620005c057600080fd5b620005ce858386016200039e565b60208401526040840135915080821115620005e857600080fd5b620005f6858386016200039e565b604084015260608401359150808211156200061057600080fd5b6200061e858386016200039e565b606084015260808401359150808211156200063857600080fd5b620006468583860162000415565b608084015260a08401359150808211156200066057600080fd5b506200066f848285016200049b565b60a08301525092915050565b803562000688816200024d565b919050565b803561ffff811681146200068857600080fd5b600082601f830112620006b257600080fd5b8135602067ffffffffffffffff821115620006d157620006d1620002dc565b8160051b620006e28282016200036a565b9283528481018201928281019087851115620006fd57600080fd5b83870192505b848310156200072957823562000719816200024d565b8252918301919083019062000703565b979650505050505050565b600080600080600060a086880312156200074d57600080fd5b853567ffffffffffffffff808211156200076657600080fd5b908701906060828a0312156200077b57600080fd5b6200078562000344565b8235828111156200079557600080fd5b620007a38b8286016200039e565b8252506020830135620007b6816200024d565b6020820152604083013582811115620007ce57600080fd5b620007dc8b8286016200039e565b60408301525096506020880135915080821115620007f957600080fd5b6200080789838a0162000563565b955062000817604089016200067b565b945062000827606089016200068d565b935060808801359150808211156200083e57600080fd5b506200084d88828901620006a0565b9150509295509295909350565b600080604083850312156200086e57600080fd5b82356200087b816200024d565b946020939093013593505050565b6000815180845260005b81811015620008b15760208185018101518683018201520162000893565b81811115620008c4576000602083870101525b50601f01601f19169290920160200192915050565b6000815160808452620008f0608085018262000889565b9050602083015184820360208601526200090b828262000889565b9150506040830151848203604086015262000927828262000889565b9150506060830151848203606086015262000943828262000889565b95945050505050565b600081518084526020808501945080840160005b83811015620009875781516001600160a01b03168752958201959082019060010162000960565b509495945050505050565b60c0815260008751606060c0840152620009b161012084018262000889565b60208a8101516001600160a01b031660e08601526040808c015186840360bf19016101008801529293509091620009e9848262000889565b93505084830382860152895160c0845262000a0860c085018262000889565b9050828b01518482038486015262000a21828262000889565b915050818b01518482038386015262000a3b828262000889565b91505060608b0151848203606086015262000a57828262000889565b91505060808b01518482036080860152805183835262000a7a8484018262000889565b90508482015115158584015260a08d0151945085810360a087015262000aa18186620008d9565b955050505062000abb8186018a6001600160a01b03169052565b50506001600160a01b038616606084015261ffff8516608084015282810360a084015262000aea81856200094c565b9998505050505050505050565b600060018060a01b0380871683526080602084015262000b1b608084018762000889565b838103604085015262000b2f818762000889565b9250508084166060840152509594505050505056fe60806040526013546014553480156200001757600080fd5b50604051620051d5380380620051d58339810160408190526200003a916200085f565b8451602080870151825190916200005791600091850190620002d8565b5080516200006d906001906020840190620002d8565b5050506020808701516001600160a01b03166000908152600c825260409020875180518993620000a2928492910190620002d8565b506020828101516001830180546001600160a01b0319166001600160a01b0390921691909117905560408301518051620000e39260028501920190620002d8565b5050506020808701516001600160a01b03166000908152600782526040808220805460ff19166001179055308252600a835290208651805188936200012d928492910190620002d8565b506020828101518051620001489260018501920190620002d8565b506040820151805162000166916002840191602090910190620002d8565b506060820151805162000184916003840191602090910190620002d8565b506080820151805180516004840191620001a491839160200190620002d8565b50602091820151600191909101805460ff191691151591909117905560a08301518051805191926006850192620001df9284920190620002d8565b506020828101518051620001fa9260018501920190620002d8565b506040820151805162000218916002840191602090910190620002d8565b506060820151805162000236916003840191602090910190620002d8565b5050600d80546001600160a01b03808a166001600160a01b031992831617909255600f80549289169290911691909117905550506101f46011555061ffff821660125580516200028e90601390602084019062000367565b50601254601154620002a39061271062000996565b620002af919062000996565b6010556101f46016819055620002c89061271062000996565b60155550620009f9945050505050565b828054620002e690620009bc565b90600052602060002090601f0160209004810192826200030a576000855562000355565b82601f106200032557805160ff191683800117855562000355565b8280016001018555821562000355579182015b828111156200035557825182559160200191906001019062000338565b5062000363929150620003bf565b5090565b82805482825590600052602060002090810192821562000355579160200282015b828111156200035557825182546001600160a01b0319166001600160a01b0390911617825560209092019160019091019062000388565b5b80821115620003635760008155600101620003c0565b634e487b7160e01b600052604160045260246000fd5b604051608081016001600160401b0381118282101715620004115762000411620003d6565b60405290565b60405160c081016001600160401b0381118282101715620004115762000411620003d6565b604051606081016001600160401b0381118282101715620004115762000411620003d6565b604051601f8201601f191681016001600160401b03811182821017156200048c576200048c620003d6565b604052919050565b600082601f830112620004a657600080fd5b81516001600160401b03811115620004c257620004c2620003d6565b6020620004d8601f8301601f1916820162000461565b8281528582848701011115620004ed57600080fd5b60005b838110156200050d578581018301518282018401528201620004f0565b838111156200051f5760008385840101525b5095945050505050565b6001600160a01b03811681146200053f57600080fd5b50565b80516200054f8162000529565b919050565b6000604082840312156200056757600080fd5b604080519081016001600160401b0380821183831017156200058d576200058d620003d6565b816040528293508451915080821115620005a657600080fd5b50620005b58582860162000494565b82525060208301518015158114620005cc57600080fd5b6020919091015292915050565b600060808284031215620005ec57600080fd5b620005f6620003ec565b82519091506001600160401b03808211156200061157600080fd5b6200061f8583860162000494565b835260208401519150808211156200063657600080fd5b620006448583860162000494565b602084015260408401519150808211156200065e57600080fd5b6200066c8583860162000494565b604084015260608401519150808211156200068657600080fd5b50620006958482850162000494565b60608301525092915050565b600060c08284031215620006b457600080fd5b620006be62000417565b82519091506001600160401b0380821115620006d957600080fd5b620006e78583860162000494565b83526020840151915080821115620006fe57600080fd5b6200070c8583860162000494565b602084015260408401519150808211156200072657600080fd5b620007348583860162000494565b604084015260608401519150808211156200074e57600080fd5b6200075c8583860162000494565b606084015260808401519150808211156200077657600080fd5b620007848583860162000554565b608084015260a08401519150808211156200079e57600080fd5b50620007ad84828501620005d9565b60a08301525092915050565b805161ffff811681146200054f57600080fd5b600082601f830112620007de57600080fd5b815160206001600160401b03821115620007fc57620007fc620003d6565b8160051b6200080d82820162000461565b92835284810182019282810190878511156200082857600080fd5b83870192505b8483101562000854578251620008448162000529565b825291830191908301906200082e565b979650505050505050565b60008060008060008060c087890312156200087957600080fd5b86516001600160401b03808211156200089157600080fd5b908801906060828b031215620008a657600080fd5b620008b06200043c565b825182811115620008c057600080fd5b620008ce8c82860162000494565b8252506020830151620008e18162000529565b6020820152604083015182811115620008f957600080fd5b620009078c82860162000494565b60408301525060208a01519098509150808211156200092557600080fd5b620009338a838b01620006a1565b96506200094360408a0162000542565b95506200095360608a0162000542565b94506200096360808a01620007b9565b935060a08901519150808211156200097a57600080fd5b506200098989828a01620007cc565b9150509295509295509295565b600082821015620009b757634e487b7160e01b600052601160045260246000fd5b500390565b600181811c90821680620009d157607f821691505b60208210811415620009f357634e487b7160e01b600052602260045260246000fd5b50919050565b6147cc8062000a096000396000f3fe608060405234801561001057600080fd5b506004361061023d5760003560e01c806370a082311161013b578063bc073e10116100b8578063e1f3d55a1161007c578063e1f3d55a1461050b578063e88958dc14610514578063e985e9c51461051d578063f851a44014610559578063feeeadfd1461056c57600080fd5b8063bc073e10146104c1578063bcc2ace6146104c9578063c87b56dd146104d2578063cd53d08e146104e5578063cf054cd0146104f857600080fd5b80639ba4fd8c116100ff5780639ba4fd8c14610443578063a22cb46514610466578063a992015f14610479578063b3ff78c114610499578063b88d4fde146104ae57600080fd5b806370a08231146103dc5780638c210975146103ef5780638da5cb5b1461041557806395d89b41146104285780639b846da31461043057600080fd5b806341d6f9c2116101c95780634c8e943e1161018d5780634c8e943e146103875780634e5dbd881461039a5780635986ebd1146103ad5780636352211e146103c057806364969ced146103d357600080fd5b806341d6f9c21461033d57806342842e0e1461035057806342966c681461036357806343741e04146103765780634592cd1d1461037f57600080fd5b80630ad4c4f4116102105780630ad4c4f4146102bf57806318160ddd146102df57806323b872dd146102f55780632e098d2a1461030857806333df048e1461031157600080fd5b806301ffc9a71461024257806306fdde031461026a578063081812fc1461027f578063095ea7b3146102aa575b600080fd5b610255610250366004613af6565b61058c565b60405190151581526020015b60405180910390f35b6102726105de565b6040516102619190613b6b565b61029261028d366004613b7e565b610670565b6040516001600160a01b039091168152602001610261565b6102bd6102b8366004613bb3565b610697565b005b6102d26102cd366004613b7e565b6107b2565b6040516102619190613c5e565b6102e7610b31565b604051908152602001610261565b6102bd610303366004613d0d565b610b41565b6102e760145481565b601154601254601654601554604080519485526020850193909352918301526060820152608001610261565b61025561034b366004613d49565b610b72565b6102bd61035e366004613d0d565b610c29565b6102bd610371366004613b7e565b610c44565b6102e760155481565b6102bd610c67565b610255610395366004613d49565b610d44565b6102bd6103a8366004613d6b565b610d6d565b6102bd6103bb366004613d6b565b610e38565b6102926103ce366004613b7e565b610ec7565b6102e760115481565b6102e76103ea366004613d6b565b610f27565b6104026103fd366004613b7e565b610fad565b6040516102619796959493929190613d86565b600d54610292906001600160a01b031681565b6102726112d1565b6102e761043e366004613ec2565b6112e0565b610255610451366004613d6b565b60076020526000908152604090205460ff1681565b6102bd610474366004613f80565b6118ed565b61048c61048736600461404f565b6118fc565b60405161026191906140fc565b6104a1611f5e565b60405161026191906141a2565b6102bd6104bc366004614270565b6124e9565b6010546102e7565b6102e760165481565b6102726104e0366004613b7e565b612521565b6102926104f3366004613b7e565b61262a565b61048c6105063660046142e0565b612654565b6102e760105481565b6102e760125481565b61025561052b36600461436e565b6001600160a01b03918216600090815260056020908152604080832093909416825291909152205460ff1690565b600f54610292906001600160a01b031681565b61057f61057a366004613d6b565b612c8f565b60405161026191906143a1565b60006001600160e01b031982166380ac58cd60e01b14806105bd57506001600160e01b03198216635b5e139f60e01b145b806105d857506301ffc9a760e01b6001600160e01b03198316145b92915050565b6060600080546105ed906143b4565b80601f0160208091040260200160405190810160405280929190818152602001828054610619906143b4565b80156106665780601f1061063b57610100808354040283529160200191610666565b820191906000526020600020905b81548152906001019060200180831161064957829003601f168201915b5050505050905090565b600061067b82612ec9565b506000908152600460205260409020546001600160a01b031690565b60006106a282610ec7565b9050806001600160a01b0316836001600160a01b031614156107155760405162461bcd60e51b815260206004820152602160248201527f4552433732313a20617070726f76616c20746f2063757272656e74206f776e656044820152603960f91b60648201526084015b60405180910390fd5b336001600160a01b03821614806107315750610731813361052b565b6107a35760405162461bcd60e51b815260206004820152603e60248201527f4552433732313a20617070726f76652063616c6c6572206973206e6f7420746f60448201527f6b656e206f776e6572206e6f7220617070726f76656420666f7220616c6c0000606482015260840161070c565b6107ad8383612f28565b505050565b6107ba61392a565b6000828152600b6020908152604091829020825160e08101845281546001600160a01b031681526001820154928101929092526002810180549293919291840191610804906143b4565b80601f0160208091040260200160405190810160405280929190818152602001828054610830906143b4565b801561087d5780601f106108525761010080835404028352916020019161087d565b820191906000526020600020905b81548152906001019060200180831161086057829003601f168201915b50505050508152602001600382018054610896906143b4565b80601f01602080910402602001604051908101604052809291908181526020018280546108c2906143b4565b801561090f5780601f106108e45761010080835404028352916020019161090f565b820191906000526020600020905b8154815290600101906020018083116108f257829003601f168201915b50505050508152602001600482018054610928906143b4565b80601f0160208091040260200160405190810160405280929190818152602001828054610954906143b4565b80156109a15780601f10610976576101008083540402835291602001916109a1565b820191906000526020600020905b81548152906001019060200180831161098457829003601f168201915b50505050508152602001600582016040518060600160405290816000820180546109ca906143b4565b80601f01602080910402602001604051908101604052809291908181526020018280546109f6906143b4565b8015610a435780601f10610a1857610100808354040283529160200191610a43565b820191906000526020600020905b815481529060010190602001808311610a2657829003601f168201915b505050918352505060018201546001600160a01b03166020820152600282018054604090920191610a73906143b4565b80601f0160208091040260200160405190810160405280929190818152602001828054610a9f906143b4565b8015610aec5780601f10610ac157610100808354040283529160200191610aec565b820191906000526020600020905b815481529060010190602001808311610acf57829003601f168201915b505050919092525050508152600882015460209091019060ff166001811115610b1757610b17613c26565b6001811115610b2857610b28613c26565b90525092915050565b6000610b3c60175490565b905090565b610b4b3382612f96565b610b675760405162461bcd60e51b815260040161070c906143ef565b6107ad838383613014565b600d546000906001600160a01b03163314610b8c57600080fd5b610b968284614453565b61271011610bfc5760405162461bcd60e51b815260206004820152602d60248201527f53756d206f662063726561746f722066656520616e64206f726720666565207360448201526c686f756c64206265203130302560981b606482015260840161070c565b6011839055601282905581610c138461271061446b565b610c1d919061446b565b60105550600192915050565b6107ad838383604051806020016040528060008152506124e9565b600f546001600160a01b03163314610c5b57600080fd5b610c64816131b0565b50565b600e546001600160a01b03163314610cd25760405162461bcd60e51b815260206004820152602860248201527f4f776e61626c653a2063616c6c6572206973206e6f7420746865206772616e7460448201526732b21037bbb732b960c11b606482015260840161070c565b600d54600e54604080516001600160a01b0393841681529290911660208301527f8be0079c531659141344cd1fd0a4f28419497f9722a3daafe3b4186f6b6457e0910160405180910390a1600e8054600d80546001600160a01b03199081166001600160a01b03841617909155169055565b600d546000906001600160a01b03163314610d5e57600080fd5b50601691909155601555600190565b600d546001600160a01b03163314610d8457600080fd5b6001600160a01b038116610dda5760405162461bcd60e51b815260206004820181905260248201527f4e6577206f776e65722063616e6e6f74206265207a65726f2061646472657373604482015260640161070c565b6040516001600160a01b03821681527f24fef68333a009942a0d4864d8fdf2266e208a96399f135b05c1dc92c3c31f929060200160405180910390a1600e80546001600160a01b0319166001600160a01b0392909216919091179055565b600f546001600160a01b03163314610e4f57600080fd5b6001600160a01b038116610ea55760405162461bcd60e51b815260206004820181905260248201527f4e65772041646d696e2063616e6e6f74206265207a65726f2061646472657373604482015260640161070c565b600f80546001600160a01b0319166001600160a01b0392909216919091179055565b6000818152600260205260408120546001600160a01b0316806105d85760405162461bcd60e51b8152602060048201526018602482015277115490cdcc8c4e881a5b9d985b1a59081d1bdad95b88125160421b604482015260640161070c565b60006001600160a01b038216610f915760405162461bcd60e51b815260206004820152602960248201527f4552433732313a2061646472657373207a65726f206973206e6f7420612076616044820152683634b21037bbb732b960b91b606482015260840161070c565b506001600160a01b031660009081526003602052604090205490565b600b602052600090815260409020805460018201546002830180546001600160a01b03909316939192610fdf906143b4565b80601f016020809104026020016040519081016040528092919081815260200182805461100b906143b4565b80156110585780601f1061102d57610100808354040283529160200191611058565b820191906000526020600020905b81548152906001019060200180831161103b57829003601f168201915b50505050509080600301805461106d906143b4565b80601f0160208091040260200160405190810160405280929190818152602001828054611099906143b4565b80156110e65780601f106110bb576101008083540402835291602001916110e6565b820191906000526020600020905b8154815290600101906020018083116110c957829003601f168201915b5050505050908060040180546110fb906143b4565b80601f0160208091040260200160405190810160405280929190818152602001828054611127906143b4565b80156111745780601f1061114957610100808354040283529160200191611174565b820191906000526020600020905b81548152906001019060200180831161115757829003601f168201915b50505050509080600501604051806060016040529081600082018054611199906143b4565b80601f01602080910402602001604051908101604052809291908181526020018280546111c5906143b4565b80156112125780601f106111e757610100808354040283529160200191611212565b820191906000526020600020905b8154815290600101906020018083116111f557829003601f168201915b505050918352505060018201546001600160a01b03166020820152600282018054604090920191611242906143b4565b80601f016020809104026020016040519081016040528092919081815260200182805461126e906143b4565b80156112bb5780601f10611290576101008083540402835291602001916112bb565b820191906000526020600020905b81548152906001019060200180831161129e57829003601f168201915b5050509190925250505060089091015460ff1687565b6060600180546105ed906143b4565b3360009081526007602052604081205460ff1615156001148061130d5750600f546001600160a01b031633145b6113595760405162461bcd60e51b815260206004820152601d60248201527f4f6e6c7920417274697374206f722041646d696e2063616e206d696e74000000604482015260640161070c565b6000611369601780546001019055565b600061137460175490565b600081815260086020908152604080832080546001600160a01b0319166001600160a01b038e161790555192935090916113ce916113ba918a918a918d918b9101614482565b6040516020818303038152906040526131f0565b90506000816040516020016113e3919061455b565b60405160208183030381529060405290506113fe8a84613344565b6114088382613486565b600f546001600160a01b03163314156114245760009350611429565b600193505b60006040518060e00160405280306001600160a01b031681526020018581526020018b81526020018a8152602001898152602001600c60008e6001600160a01b03166001600160a01b0316815260200190815260200160002060405180606001604052908160008201805461149d906143b4565b80601f01602080910402602001604051908101604052809291908181526020018280546114c9906143b4565b80156115165780601f106114eb57610100808354040283529160200191611516565b820191906000526020600020905b8154815290600101906020018083116114f957829003601f168201915b505050918352505060018201546001600160a01b03166020820152600282018054604090920191611546906143b4565b80601f0160208091040260200160405190810160405280929190818152602001828054611572906143b4565b80156115bf5780601f10611594576101008083540402835291602001916115bf565b820191906000526020600020905b8154815290600101906020018083116115a257829003601f168201915b50505050508152505081526020018660018111156115df576115df613c26565b90526000858152600b6020908152604091829020835181546001600160a01b0319166001600160a01b039091161781558382015160018201559183015180519394508493611633926002850192019061399b565b506060820151805161164f91600384019160209091019061399b565b506080820151805161166b91600484019160209091019061399b565b5060a08201518051805160058401916116899183916020019061399b565b506020828101516001830180546001600160a01b0319166001600160a01b03909216919091179055604083015180516116c8926002850192019061399b565b50505060c082015160088201805460ff1916600183818111156116ed576116ed613c26565b02179055505060188054600181018255600091909152825160099091027fb13d2d76d1f4b7be834882e410b3e3a8afaf69f83600ae24db354391d2378d2e810180546001600160a01b039093166001600160a01b03199093169290921782556020808501517fb13d2d76d1f4b7be834882e410b3e3a8afaf69f83600ae24db354391d2378d2f830155604085015180518695506117b1937fb13d2d76d1f4b7be834882e410b3e3a8afaf69f83600ae24db354391d2378d300192919091019061399b565b50606082015180516117cd91600384019160209091019061399b565b50608082015180516117e991600484019160209091019061399b565b5060a08201518051805160058401916118079183916020019061399b565b506020828101516001830180546001600160a01b0319166001600160a01b0390921691909117905560408301518051611846926002850192019061399b565b50505060c082015160088201805460ff19166001838181111561186b5761186b613c26565b021790555050506001600160a01b038b16600090815260096020908152604080832080546001810182559084529190922001859055517f3008cd1b07fb304ff3fd96dfc9c0b352dd13f3297e45341023a63e8dd89101ef906118d6908d9087908e908e908e906145a0565b60405180910390a150919998505050505050505050565b6118f8338383613520565b5050565b3360009081526007602052604090205460609060ff16151560011461192057600080fd5b835160609060005b81811015611f505761193e601780546001019055565b600061194960175490565b600081815260086020526040812080546001600160a01b031916331790558951919250906119d3908a9085908110611983576119836145ed565b602002602001015189858151811061199d5761199d6145ed565b60200260200101518c86815181106119b7576119b76145ed565b60200260200101518a6040516020016113ba9493929190614482565b90506000816040516020016119e8919061455b565b6040516020818303038152906040529050611a033384613344565b611a0d8382613486565b60006040518060e00160405280306001600160a01b031681526020018581526020018d8781518110611a4157611a416145ed565b602002602001015181526020018c8781518110611a6057611a606145ed565b602002602001015181526020018b8781518110611a7f57611a7f6145ed565b60200260200101518152602001600c6000336001600160a01b03166001600160a01b03168152602001908152602001600020604051806060016040529081600082018054611acc906143b4565b80601f0160208091040260200160405190810160405280929190818152602001828054611af8906143b4565b8015611b455780601f10611b1a57610100808354040283529160200191611b45565b820191906000526020600020905b815481529060010190602001808311611b2857829003601f168201915b505050918352505060018201546001600160a01b03166020820152600282018054604090920191611b75906143b4565b80601f0160208091040260200160405190810160405280929190818152602001828054611ba1906143b4565b8015611bee5780601f10611bc357610100808354040283529160200191611bee565b820191906000526020600020905b815481529060010190602001808311611bd157829003601f168201915b505050919092525050508152602001600190526000858152600b6020908152604091829020835181546001600160a01b0319166001600160a01b039091161781558382015160018201559183015180519394508493611c53926002850192019061399b565b5060608201518051611c6f91600384019160209091019061399b565b5060808201518051611c8b91600484019160209091019061399b565b5060a0820151805180516005840191611ca99183916020019061399b565b506020828101516001830180546001600160a01b0319166001600160a01b0390921691909117905560408301518051611ce8926002850192019061399b565b50505060c082015160088201805460ff191660018381811115611d0d57611d0d613c26565b02179055505060188054600181018255600091909152825160099091027fb13d2d76d1f4b7be834882e410b3e3a8afaf69f83600ae24db354391d2378d2e810180546001600160a01b039093166001600160a01b03199093169290921782556020808501517fb13d2d76d1f4b7be834882e410b3e3a8afaf69f83600ae24db354391d2378d2f83015560408501518051869550611dd1937fb13d2d76d1f4b7be834882e410b3e3a8afaf69f83600ae24db354391d2378d300192919091019061399b565b5060608201518051611ded91600384019160209091019061399b565b5060808201518051611e0991600484019160209091019061399b565b5060a0820151805180516005840191611e279183916020019061399b565b506020828101516001830180546001600160a01b0319166001600160a01b0390921691909117905560408301518051611e66926002850192019061399b565b50505060c082015160088201805460ff191660018381811115611e8b57611e8b613c26565b021790555050336000818152600960209081526040822080546001810182559083529120018690558d517f3008cd1b07fb304ff3fd96dfc9c0b352dd13f3297e45341023a63e8dd89101ef925086908f9089908110611eec57611eec6145ed565b60200260200101518e8981518110611f0657611f066145ed565b60200260200101518e8a81518110611f2057611f206145ed565b6020026020010151604051611f399594939291906145a0565b60405180910390a184600101945050505050611928565b50909150505b949350505050565b611f66613a1f565b306000908152600a602052604090819020815160c08101909252805482908290611f8f906143b4565b80601f0160208091040260200160405190810160405280929190818152602001828054611fbb906143b4565b80156120085780601f10611fdd57610100808354040283529160200191612008565b820191906000526020600020905b815481529060010190602001808311611feb57829003601f168201915b50505050508152602001600182018054612021906143b4565b80601f016020809104026020016040519081016040528092919081815260200182805461204d906143b4565b801561209a5780601f1061206f5761010080835404028352916020019161209a565b820191906000526020600020905b81548152906001019060200180831161207d57829003601f168201915b505050505081526020016002820180546120b3906143b4565b80601f01602080910402602001604051908101604052809291908181526020018280546120df906143b4565b801561212c5780601f106121015761010080835404028352916020019161212c565b820191906000526020600020905b81548152906001019060200180831161210f57829003601f168201915b50505050508152602001600382018054612145906143b4565b80601f0160208091040260200160405190810160405280929190818152602001828054612171906143b4565b80156121be5780601f10612193576101008083540402835291602001916121be565b820191906000526020600020905b8154815290600101906020018083116121a157829003601f168201915b50505050508152602001600482016040518060400160405290816000820180546121e7906143b4565b80601f0160208091040260200160405190810160405280929190818152602001828054612213906143b4565b80156122605780601f1061223557610100808354040283529160200191612260565b820191906000526020600020905b81548152906001019060200180831161224357829003601f168201915b505050505081526020016001820160009054906101000a900460ff1615151515815250508152602001600682016040518060800160405290816000820180546122a8906143b4565b80601f01602080910402602001604051908101604052809291908181526020018280546122d4906143b4565b80156123215780601f106122f657610100808354040283529160200191612321565b820191906000526020600020905b81548152906001019060200180831161230457829003601f168201915b5050505050815260200160018201805461233a906143b4565b80601f0160208091040260200160405190810160405280929190818152602001828054612366906143b4565b80156123b35780601f10612388576101008083540402835291602001916123b3565b820191906000526020600020905b81548152906001019060200180831161239657829003601f168201915b505050505081526020016002820180546123cc906143b4565b80601f01602080910402602001604051908101604052809291908181526020018280546123f8906143b4565b80156124455780601f1061241a57610100808354040283529160200191612445565b820191906000526020600020905b81548152906001019060200180831161242857829003601f168201915b5050505050815260200160038201805461245e906143b4565b80601f016020809104026020016040519081016040528092919081815260200182805461248a906143b4565b80156124d75780601f106124ac576101008083540402835291602001916124d7565b820191906000526020600020905b8154815290600101906020018083116124ba57829003601f168201915b50505050508152505081525050905090565b6124f33383612f96565b61250f5760405162461bcd60e51b815260040161070c906143ef565b61251b848484846135ef565b50505050565b606061252c82612ec9565b60008281526006602052604081208054612545906143b4565b80601f0160208091040260200160405190810160405280929190818152602001828054612571906143b4565b80156125be5780601f10612593576101008083540402835291602001916125be565b820191906000526020600020905b8154815290600101906020018083116125a157829003601f168201915b5050505050905060006125dc60408051602081019091526000815290565b90508051600014156125ef575092915050565b815115612621578082604051602001612609929190614603565b60405160208183030381529060405292505050919050565b611f5684613622565b6013818154811061263a57600080fd5b6000918252602090912001546001600160a01b0316905081565b600f546060906001600160a01b0316331461266e57600080fd5b835160609060005b81811015612c825761268c601780546001019055565b600061269760175490565b600081815260086020526040902080546001600160a01b0319166001600160a01b038d16179055845190915081908590849081106126d7576126d76145ed565b60200260200101818152505060006126fa898481518110611983576119836145ed565b905060008160405160200161270f919061455b565b604051602081830303815290604052905061272a8c84613344565b6127348382613486565b60006040518060e00160405280306001600160a01b031681526020018581526020018d8781518110612768576127686145ed565b602002602001015181526020018c8781518110612787576127876145ed565b602002602001015181526020018b87815181106127a6576127a66145ed565b60200260200101518152602001600c6000336001600160a01b03166001600160a01b031681526020019081526020016000206040518060600160405290816000820180546127f3906143b4565b80601f016020809104026020016040519081016040528092919081815260200182805461281f906143b4565b801561286c5780601f106128415761010080835404028352916020019161286c565b820191906000526020600020905b81548152906001019060200180831161284f57829003601f168201915b505050918352505060018201546001600160a01b0316602082015260028201805460409092019161289c906143b4565b80601f01602080910402602001604051908101604052809291908181526020018280546128c8906143b4565b80156129155780601f106128ea57610100808354040283529160200191612915565b820191906000526020600020905b8154815290600101906020018083116128f857829003601f168201915b505050919092525050508152602001600090526000858152600b6020908152604091829020835181546001600160a01b0319166001600160a01b03909116178155838201516001820155918301518051939450849361297a926002850192019061399b565b506060820151805161299691600384019160209091019061399b565b50608082015180516129b291600484019160209091019061399b565b5060a08201518051805160058401916129d09183916020019061399b565b506020828101516001830180546001600160a01b0319166001600160a01b0390921691909117905560408301518051612a0f926002850192019061399b565b50505060c082015160088201805460ff191660018381811115612a3457612a34613c26565b02179055505060188054600181018255600091909152825160099091027fb13d2d76d1f4b7be834882e410b3e3a8afaf69f83600ae24db354391d2378d2e810180546001600160a01b039093166001600160a01b03199093169290921782556020808501517fb13d2d76d1f4b7be834882e410b3e3a8afaf69f83600ae24db354391d2378d2f83015560408501518051869550612af8937fb13d2d76d1f4b7be834882e410b3e3a8afaf69f83600ae24db354391d2378d300192919091019061399b565b5060608201518051612b1491600384019160209091019061399b565b5060808201518051612b3091600484019160209091019061399b565b5060a0820151805180516005840191612b4e9183916020019061399b565b506020828101516001830180546001600160a01b0319166001600160a01b0390921691909117905560408301518051612b8d926002850192019061399b565b50505060c082015160088201805460ff191660018381811115612bb257612bb2613c26565b021790555050506001600160a01b038d166000908152600960209081526040822080546001810182559083529120018490558b517f3008cd1b07fb304ff3fd96dfc9c0b352dd13f3297e45341023a63e8dd89101ef908e9086908f9089908110612c1e57612c1e6145ed565b60200260200101518e8981518110612c3857612c386145ed565b60200260200101518e8a81518110612c5257612c526145ed565b6020026020010151604051612c6b9594939291906145a0565b60405180910390a184600101945050505050612676565b5090979650505050505050565b604080516060808201835280825260006020830152918101919091526001600160a01b038216612cf85760405162461bcd60e51b8152602060048201526014602482015273417274697374206973206164647265737328302960601b604482015260640161070c565b6001600160a01b03821660009081526007602052604090205460ff161515600114612d655760405162461bcd60e51b815260206004820152601b60248201527f476976656e2061646472657373206973206e6f74206172746973740000000000604482015260640161070c565b6001600160a01b0382166000908152600c602052604090819020815160608101909252805482908290612d97906143b4565b80601f0160208091040260200160405190810160405280929190818152602001828054612dc3906143b4565b8015612e105780601f10612de557610100808354040283529160200191612e10565b820191906000526020600020905b815481529060010190602001808311612df357829003601f168201915b505050918352505060018201546001600160a01b03166020820152600282018054604090920191612e40906143b4565b80601f0160208091040260200160405190810160405280929190818152602001828054612e6c906143b4565b8015612eb95780601f10612e8e57610100808354040283529160200191612eb9565b820191906000526020600020905b815481529060010190602001808311612e9c57829003601f168201915b5050505050815250509050919050565b6000818152600260205260409020546001600160a01b0316610c645760405162461bcd60e51b8152602060048201526018602482015277115490cdcc8c4e881a5b9d985b1a59081d1bdad95b88125160421b604482015260640161070c565b600081815260046020526040902080546001600160a01b0319166001600160a01b0384169081179091558190612f5d82610ec7565b6001600160a01b03167f8c5be1e5ebec7d5bd14f71427d1e84f3dd0314c0f7b2291e5b200ac8c7c3b92560405160405180910390a45050565b600080612fa283610ec7565b9050806001600160a01b0316846001600160a01b03161480612fe957506001600160a01b0380821660009081526005602090815260408083209388168352929052205460ff165b80611f565750836001600160a01b031661300284610670565b6001600160a01b031614949350505050565b826001600160a01b031661302782610ec7565b6001600160a01b03161461308b5760405162461bcd60e51b815260206004820152602560248201527f4552433732313a207472616e736665722066726f6d20696e636f72726563742060448201526437bbb732b960d91b606482015260840161070c565b6001600160a01b0382166130ed5760405162461bcd60e51b8152602060048201526024808201527f4552433732313a207472616e7366657220746f20746865207a65726f206164646044820152637265737360e01b606482015260840161070c565b6130f8600082612f28565b6001600160a01b038316600090815260036020526040812080546001929061312190849061446b565b90915550506001600160a01b038216600090815260036020526040812080546001929061314f908490614453565b909155505060008181526002602052604080822080546001600160a01b0319166001600160a01b0386811691821790925591518493918716917fddf252ad1be2c89b69c2b068fc378daa952ba7f163c4a11628f55a4df523b3ef91a4505050565b6131b981613696565b600081815260066020526040902080546131d2906143b4565b159050610c64576000818152600660205260408120610c6491613a95565b606081516000141561321057505060408051602081019091526000815290565b6000604051806060016040528060408152602001614757604091399050600060038451600261323f9190614453565b6132499190614648565b61325490600461465c565b67ffffffffffffffff81111561326c5761326c613e03565b6040519080825280601f01601f191660200182016040528015613296576020820181803683370190505b509050600182016020820185865187015b80821015613302576003820191508151603f8160121c168501518453600184019350603f81600c1c168501518453600184019350603f8160061c168501518453600184019350603f81168501518453506001830192506132a7565b505060038651066001811461331e576002811461333157613339565b603d6001830353603d6002830353613339565b603d60018303535b509195945050505050565b6001600160a01b03821661339a5760405162461bcd60e51b815260206004820181905260248201527f4552433732313a206d696e7420746f20746865207a65726f2061646472657373604482015260640161070c565b6000818152600260205260409020546001600160a01b0316156133ff5760405162461bcd60e51b815260206004820152601c60248201527f4552433732313a20746f6b656e20616c7265616479206d696e74656400000000604482015260640161070c565b6001600160a01b0382166000908152600360205260408120805460019290613428908490614453565b909155505060008181526002602052604080822080546001600160a01b0319166001600160a01b03861690811790915590518392907fddf252ad1be2c89b69c2b068fc378daa952ba7f163c4a11628f55a4df523b3ef908290a45050565b6000828152600260205260409020546001600160a01b03166135015760405162461bcd60e51b815260206004820152602e60248201527f45524337323155524953746f726167653a2055524920736574206f66206e6f6e60448201526d32bc34b9ba32b73a103a37b5b2b760911b606482015260840161070c565b600082815260066020908152604090912082516107ad9284019061399b565b816001600160a01b0316836001600160a01b031614156135825760405162461bcd60e51b815260206004820152601960248201527f4552433732313a20617070726f766520746f2063616c6c657200000000000000604482015260640161070c565b6001600160a01b03838116600081815260056020908152604080832094871680845294825291829020805460ff191686151590811790915591519182527f17307eab39ab6107e8899845ad3d59bd9653f200f220920489ca2b5937696c31910160405180910390a3505050565b6135fa848484613014565b61360684848484613731565b61251b5760405162461bcd60e51b815260040161070c9061467b565b606061362d82612ec9565b600061364460408051602081019091526000815290565b90506000815111613664576040518060200160405280600081525061368f565b8061366e8461382c565b60405160200161367f929190614603565b6040516020818303038152906040525b9392505050565b60006136a182610ec7565b90506136ae600083612f28565b6001600160a01b03811660009081526003602052604081208054600192906136d790849061446b565b909155505060008281526002602052604080822080546001600160a01b0319169055518391906001600160a01b038416907fddf252ad1be2c89b69c2b068fc378daa952ba7f163c4a11628f55a4df523b3ef908390a45050565b60006001600160a01b0384163b1561382457604051630a85bd0160e11b81526001600160a01b0385169063150b7a02906137759033908990889088906004016146cd565b6020604051808303816000875af19250505080156137b0575060408051601f3d908101601f191682019092526137ad9181019061470a565b60015b61380a573d8080156137de576040519150601f19603f3d011682016040523d82523d6000602084013e6137e3565b606091505b5080516138025760405162461bcd60e51b815260040161070c9061467b565b805181602001fd5b6001600160e01b031916630a85bd0160e11b149050611f56565b506001611f56565b6060816138505750506040805180820190915260018152600360fc1b602082015290565b8160005b811561387a578061386481614727565b91506138739050600a83614648565b9150613854565b60008167ffffffffffffffff81111561389557613895613e03565b6040519080825280601f01601f1916602001820160405280156138bf576020820181803683370190505b5090505b8415611f56576138d460018361446b565b91506138e1600a86614742565b6138ec906030614453565b60f81b818381518110613901576139016145ed565b60200101906001600160f81b031916908160001a905350613923600a86614648565b94506138c3565b6040518060e0016040528060006001600160a01b031681526020016000815260200160608152602001606081526020016060815260200161398e60405180606001604052806060815260200160006001600160a01b03168152602001606081525090565b815260200160005b905290565b8280546139a7906143b4565b90600052602060002090601f0160209004810192826139c95760008555613a0f565b82601f106139e257805160ff1916838001178555613a0f565b82800160010185558215613a0f579182015b82811115613a0f5782518255916020019190600101906139f4565b50613a1b929150613acb565b5090565b6040518060c0016040528060608152602001606081526020016060815260200160608152602001613a656040518060400160405280606081526020016000151581525090565b81526020016139966040518060800160405280606081526020016060815260200160608152602001606081525090565b508054613aa1906143b4565b6000825580601f10613ab1575050565b601f016020900490600052602060002090810190610c6491905b5b80821115613a1b5760008155600101613acc565b6001600160e01b031981168114610c6457600080fd5b600060208284031215613b0857600080fd5b813561368f81613ae0565b60005b83811015613b2e578181015183820152602001613b16565b8381111561251b5750506000910152565b60008151808452613b57816020860160208601613b13565b601f01601f19169290920160200192915050565b60208152600061368f6020830184613b3f565b600060208284031215613b9057600080fd5b5035919050565b80356001600160a01b0381168114613bae57600080fd5b919050565b60008060408385031215613bc657600080fd5b613bcf83613b97565b946020939093013593505050565b6000815160608452613bf26060850182613b3f565b905060018060a01b03602084015116602085015260408301518482036040860152613c1d8282613b3f565b95945050505050565b634e487b7160e01b600052602160045260246000fd5b60028110613c5a57634e487b7160e01b600052602160045260246000fd5b9052565b6020815260018060a01b038251166020820152602082015160408201526000604083015160e06060840152613c97610100840182613b3f565b90506060840151601f1980858403016080860152613cb58383613b3f565b925060808601519150808584030160a0860152613cd28383613b3f565b925060a08601519150808584030160c086015250613cf08282613bdd565b91505060c0840151613d0560e0850182613c3c565b509392505050565b600080600060608486031215613d2257600080fd5b613d2b84613b97565b9250613d3960208501613b97565b9150604084013590509250925092565b60008060408385031215613d5c57600080fd5b50508035926020909101359150565b600060208284031215613d7d57600080fd5b61368f82613b97565b60018060a01b038816815286602082015260e060408201526000613dad60e0830188613b3f565b8281036060840152613dbf8188613b3f565b90508281036080840152613dd38187613b3f565b905082810360a0840152613de78186613bdd565b915050613df760c0830184613c3c565b98975050505050505050565b634e487b7160e01b600052604160045260246000fd5b604051601f8201601f1916810167ffffffffffffffff81118282101715613e4257613e42613e03565b604052919050565b600067ffffffffffffffff831115613e6457613e64613e03565b613e77601f8401601f1916602001613e19565b9050828152838383011115613e8b57600080fd5b828260208301376000602084830101529392505050565b600082601f830112613eb357600080fd5b61368f83833560208501613e4a565b600080600080600060a08688031215613eda57600080fd5b613ee386613b97565b9450602086013567ffffffffffffffff80821115613f0057600080fd5b613f0c89838a01613ea2565b95506040880135915080821115613f2257600080fd5b613f2e89838a01613ea2565b94506060880135915080821115613f4457600080fd5b613f5089838a01613ea2565b93506080880135915080821115613f6657600080fd5b50613f7388828901613ea2565b9150509295509295909350565b60008060408385031215613f9357600080fd5b613f9c83613b97565b915060208301358015158114613fb157600080fd5b809150509250929050565b600082601f830112613fcd57600080fd5b8135602067ffffffffffffffff80831115613fea57613fea613e03565b8260051b613ff9838201613e19565b938452858101830193838101908886111561401357600080fd5b84880192505b85831015613df7578235848111156140315760008081fd5b61403f8a87838c0101613ea2565b8352509184019190840190614019565b6000806000806080858703121561406557600080fd5b843567ffffffffffffffff8082111561407d57600080fd5b61408988838901613fbc565b9550602087013591508082111561409f57600080fd5b6140ab88838901613fbc565b945060408701359150808211156140c157600080fd5b6140cd88838901613fbc565b935060608701359150808211156140e357600080fd5b506140f087828801613ea2565b91505092959194509250565b6020808252825182820181905260009190848201906040850190845b8181101561413457835183529284019291840191600101614118565b50909695505050505050565b60008151608084526141556080850182613b3f565b90506020830151848203602086015261416e8282613b3f565b915050604083015184820360408601526141888282613b3f565b91505060608301518482036060860152613c1d8282613b3f565b602081526000825160c060208401526141be60e0840182613b3f565b90506020840151601f19808584030160408601526141dc8383613b3f565b925060408601519150808584030160608601526141f98383613b3f565b925060608601519150808584030160808601526142168383613b3f565b925060808601519150808584030160a086015281516040845261423c6040850182613b3f565b905060208301511515602085015260a08701519350818682030160c08701526142658185614140565b979650505050505050565b6000806000806080858703121561428657600080fd5b61428f85613b97565b935061429d60208601613b97565b925060408501359150606085013567ffffffffffffffff8111156142c057600080fd5b8501601f810187136142d157600080fd5b6140f087823560208401613e4a565b600080600080600060a086880312156142f857600080fd5b61430186613b97565b9450602086013567ffffffffffffffff8082111561431e57600080fd5b61432a89838a01613fbc565b9550604088013591508082111561434057600080fd5b61434c89838a01613fbc565b9450606088013591508082111561436257600080fd5b613f5089838a01613fbc565b6000806040838503121561438157600080fd5b61438a83613b97565b915061439860208401613b97565b90509250929050565b60208152600061368f6020830184613bdd565b600181811c908216806143c857607f821691505b602082108114156143e957634e487b7160e01b600052602260045260246000fd5b50919050565b6020808252602e908201527f4552433732313a2063616c6c6572206973206e6f7420746f6b656e206f776e6560408201526d1c881b9bdc88185c1c1c9bdd995960921b606082015260800190565b634e487b7160e01b600052601160045260246000fd5b600082198211156144665761446661443d565b500190565b60008282101561447d5761447d61443d565b500390565b6a3d913a34ba3632911d101160a91b815284516000906144a981600b850160208a01613b13565b72111610113232b9b1b934b83a34b7b7111d101160691b600b9184019182015285516144dc81601e840160208a01613b13565b6c1116101134b6b0b3b2911d101160991b601e9290910191820152845161450a81602b840160208901613b13565b721116101130b93a34b9ba103730b6b2911d101160691b602b9290910191820152835161453e81603e840160208801613b13565b61227d60f01b603e92909101918201526040019695505050505050565b7f646174613a6170706c69636174696f6e2f6a736f6e3b6261736536342c00000081526000825161459381601d850160208701613b13565b91909101601d0192915050565b60018060a01b038616815284602082015260a0604082015260006145c760a0830186613b3f565b82810360608401526145d98186613b3f565b90508281036080840152613df78185613b3f565b634e487b7160e01b600052603260045260246000fd5b60008351614615818460208801613b13565b835190830190614629818360208801613b13565b01949350505050565b634e487b7160e01b600052601260045260246000fd5b60008261465757614657614632565b500490565b60008160001904831182151516156146765761467661443d565b500290565b60208082526032908201527f4552433732313a207472616e7366657220746f206e6f6e20455243373231526560408201527131b2b4bb32b91034b6b83632b6b2b73a32b960711b606082015260800190565b6001600160a01b038581168252841660208201526040810183905260806060820181905260009061470090830184613b3f565b9695505050505050565b60006020828403121561471c57600080fd5b815161368f81613ae0565b600060001982141561473b5761473b61443d565b5060010190565b60008261475157614751614632565b50069056fe4142434445464748494a4b4c4d4e4f505152535455565758595a6162636465666768696a6b6c6d6e6f707172737475767778797a303132333435363738392b2fa264697066735822122093ded3560b072323c769734b22f995aa7f963c700cf1467bf12872a496995fd264736f6c634300080a0033a26469706673582212204cc10e93f38c2b478f66cecd67dec00d24606608925b116bd165ded334acaa1e64736f6c634300080a0033",
  "linkReferences": {},
  "deployedLinkReferences": {}
}