{
    "contractName": "Naksh721NFT",
    "abi": [
        {
            "inputs": [
                {
                    "components": [
                        {
                            "internalType": "string",
                            "name": "name",
                            "type": "string"
                        },
                        {
                            "internalType": "address",
                            "name": "artistAddress",
                            "type": "address"
                        },
                        {
                            "internalType": "string",
                            "name": "imageUrl",
                            "type": "string"
                        }
                    ],
                    "internalType": "struct artistDetails",
                    "name": "artist",
                    "type": "tuple"
                },
                {
                    "components": [
                        {
                            "internalType": "string",
                            "name": "name",
                            "type": "string"
                        },
                        {
                            "internalType": "string",
                            "name": "symbol",
                            "type": "string"
                        },
                        {
                            "internalType": "string",
                            "name": "about",
                            "type": "string"
                        },
                        {
                            "internalType": "string",
                            "name": "logo",
                            "type": "string"
                        },
                        {
                            "components": [
                                {
                                    "internalType": "string",
                                    "name": "uri",
                                    "type": "string"
                                },
                                {
                                    "internalType": "bool",
                                    "name": "isGradient",
                                    "type": "bool"
                                }
                            ],
                            "internalType": "struct CoverImage",
                            "name": "cover",
                            "type": "tuple"
                        },
                        {
                            "components": [
                                {
                                    "internalType": "string",
                                    "name": "instagram",
                                    "type": "string"
                                },
                                {
                                    "internalType": "string",
                                    "name": "facebook",
                                    "type": "string"
                                },
                                {
                                    "internalType": "string",
                                    "name": "twitter",
                                    "type": "string"
                                },
                                {
                                    "internalType": "string",
                                    "name": "website",
                                    "type": "string"
                                }
                            ],
                            "internalType": "struct SocialMediaData",
                            "name": "social",
                            "type": "tuple"
                        }
                    ],
                    "internalType": "struct CollectionDetails",
                    "name": "collection",
                    "type": "tuple"
                },
                {
                    "internalType": "address payable",
                    "name": "_admin",
                    "type": "address"
                },
                {
                    "internalType": "uint16[]",
                    "name": "_creatorFees",
                    "type": "uint16[]"
                },
                {
                    "internalType": "address payable[]",
                    "name": "_creators",
                    "type": "address[]"
                }
            ],
            "stateMutability": "nonpayable",
            "type": "constructor"
        },
        {
            "anonymous": false,
            "inputs": [
                {
                    "indexed": true,
                    "internalType": "address",
                    "name": "owner",
                    "type": "address"
                },
                {
                    "indexed": true,
                    "internalType": "address",
                    "name": "approved",
                    "type": "address"
                },
                {
                    "indexed": true,
                    "internalType": "uint256",
                    "name": "tokenId",
                    "type": "uint256"
                }
            ],
            "name": "Approval",
            "type": "event"
        },
        {
            "anonymous": false,
            "inputs": [
                {
                    "indexed": true,
                    "internalType": "address",
                    "name": "owner",
                    "type": "address"
                },
                {
                    "indexed": true,
                    "internalType": "address",
                    "name": "operator",
                    "type": "address"
                },
                {
                    "indexed": false,
                    "internalType": "bool",
                    "name": "approved",
                    "type": "bool"
                }
            ],
            "name": "ApprovalForAll",
            "type": "event"
        },
        {
            "anonymous": false,
            "inputs": [
                {
                    "indexed": false,
                    "internalType": "address",
                    "name": "_creator",
                    "type": "address"
                }
            ],
            "name": "DelistCreator",
            "type": "event"
        },
        {
            "anonymous": false,
            "inputs": [
                {
                    "indexed": false,
                    "internalType": "address",
                    "name": "creator",
                    "type": "address"
                },
                {
                    "indexed": false,
                    "internalType": "uint256",
                    "name": "tokenId",
                    "type": "uint256"
                },
                {
                    "indexed": false,
                    "internalType": "string",
                    "name": "imgURI",
                    "type": "string"
                },
                {
                    "indexed": false,
                    "internalType": "string",
                    "name": "videoURI",
                    "type": "string"
                },
                {
                    "indexed": false,
                    "internalType": "string",
                    "name": "title",
                    "type": "string"
                },
                {
                    "indexed": false,
                    "internalType": "string",
                    "name": "description",
                    "type": "string"
                },
                {
                    "indexed": false,
                    "internalType": "string",
                    "name": "artistName",
                    "type": "string"
                },
                {
                    "indexed": false,
                    "internalType": "string",
                    "name": "artistImg",
                    "type": "string"
                },
                {
                    "indexed": false,
                    "internalType": "bool",
                    "name": "isVideo",
                    "type": "bool"
                }
            ],
            "name": "Mint",
            "type": "event"
        },
        {
            "anonymous": false,
            "inputs": [
                {
                    "indexed": false,
                    "internalType": "address",
                    "name": "newOwner",
                    "type": "address"
                }
            ],
            "name": "OwnershipGranted",
            "type": "event"
        },
        {
            "anonymous": false,
            "inputs": [
                {
                    "indexed": false,
                    "internalType": "address",
                    "name": "oldOwner",
                    "type": "address"
                },
                {
                    "indexed": false,
                    "internalType": "address",
                    "name": "newOwner",
                    "type": "address"
                }
            ],
            "name": "OwnershipTransferred",
            "type": "event"
        },
        {
            "anonymous": false,
            "inputs": [
                {
                    "indexed": true,
                    "internalType": "address",
                    "name": "from",
                    "type": "address"
                },
                {
                    "indexed": true,
                    "internalType": "address",
                    "name": "to",
                    "type": "address"
                },
                {
                    "indexed": true,
                    "internalType": "uint256",
                    "name": "tokenId",
                    "type": "uint256"
                }
            ],
            "name": "Transfer",
            "type": "event"
        },
        {
            "anonymous": false,
            "inputs": [
                {
                    "indexed": false,
                    "internalType": "address",
                    "name": "_creator",
                    "type": "address"
                }
            ],
            "name": "WhitelistCreator",
            "type": "event"
        },
        {
            "inputs": [],
            "name": "TotalSplits",
            "outputs": [
                {
                    "internalType": "uint256",
                    "name": "",
                    "type": "uint256"
                }
            ],
            "stateMutability": "view",
            "type": "function"
        },
        {
            "inputs": [],
            "name": "admin",
            "outputs": [
                {
                    "internalType": "address",
                    "name": "",
                    "type": "address"
                }
            ],
            "stateMutability": "view",
            "type": "function"
        },
        {
            "inputs": [
                {
                    "internalType": "address",
                    "name": "to",
                    "type": "address"
                },
                {
                    "internalType": "uint256",
                    "name": "tokenId",
                    "type": "uint256"
                }
            ],
            "name": "approve",
            "outputs": [],
            "stateMutability": "nonpayable",
            "type": "function"
        },
        {
            "inputs": [
                {
                    "internalType": "address",
                    "name": "owner",
                    "type": "address"
                }
            ],
            "name": "balanceOf",
            "outputs": [
                {
                    "internalType": "uint256",
                    "name": "",
                    "type": "uint256"
                }
            ],
            "stateMutability": "view",
            "type": "function"
        },
        {
            "inputs": [
                {
                    "internalType": "address",
                    "name": "_creator",
                    "type": "address"
                },
                {
                    "internalType": "string[]",
                    "name": "_imgURI",
                    "type": "string[]"
                },
                {
                    "internalType": "string[]",
                    "name": "_videoURI",
                    "type": "string[]"
                },
                {
                    "internalType": "string[]",
                    "name": "title",
                    "type": "string[]"
                },
                {
                    "internalType": "string[]",
                    "name": "description",
                    "type": "string[]"
                },
                {
                    "internalType": "string",
                    "name": "artistName",
                    "type": "string"
                },
                {
                    "internalType": "string",
                    "name": "artistImg",
                    "type": "string"
                },
                {
                    "internalType": "bool[]",
                    "name": "isVideo",
                    "type": "bool[]"
                }
            ],
            "name": "bulkMintByArtistorAdmin",
            "outputs": [],
            "stateMutability": "nonpayable",
            "type": "function"
        },
        {
            "inputs": [
                {
                    "internalType": "uint256",
                    "name": "tokenId",
                    "type": "uint256"
                }
            ],
            "name": "burn",
            "outputs": [],
            "stateMutability": "nonpayable",
            "type": "function"
        },
        {
            "inputs": [
                {
                    "internalType": "uint256",
                    "name": "",
                    "type": "uint256"
                }
            ],
            "name": "creatorFees",
            "outputs": [
                {
                    "internalType": "uint16",
                    "name": "",
                    "type": "uint16"
                }
            ],
            "stateMutability": "view",
            "type": "function"
        },
        {
            "inputs": [
                {
                    "internalType": "address",
                    "name": "",
                    "type": "address"
                },
                {
                    "internalType": "uint256",
                    "name": "",
                    "type": "uint256"
                }
            ],
            "name": "creatorTokens",
            "outputs": [
                {
                    "internalType": "uint256",
                    "name": "",
                    "type": "uint256"
                }
            ],
            "stateMutability": "view",
            "type": "function"
        },
        {
            "inputs": [
                {
                    "internalType": "uint256",
                    "name": "",
                    "type": "uint256"
                }
            ],
            "name": "creators",
            "outputs": [
                {
                    "internalType": "address payable",
                    "name": "",
                    "type": "address"
                }
            ],
            "stateMutability": "view",
            "type": "function"
        },
        {
            "inputs": [
                {
                    "internalType": "address",
                    "name": "_artist",
                    "type": "address"
                }
            ],
            "name": "fetchArtist",
            "outputs": [
                {
                    "components": [
                        {
                            "internalType": "string",
                            "name": "name",
                            "type": "string"
                        },
                        {
                            "internalType": "address",
                            "name": "artistAddress",
                            "type": "address"
                        },
                        {
                            "internalType": "string",
                            "name": "imageUrl",
                            "type": "string"
                        }
                    ],
                    "internalType": "struct artistDetails",
                    "name": "",
                    "type": "tuple"
                }
            ],
            "stateMutability": "view",
            "type": "function"
        },
        {
            "inputs": [
                {
                    "internalType": "uint256",
                    "name": "tokenId",
                    "type": "uint256"
                }
            ],
            "name": "getApproved",
            "outputs": [
                {
                    "internalType": "address",
                    "name": "",
                    "type": "address"
                }
            ],
            "stateMutability": "view",
            "type": "function"
        },
        {
            "inputs": [],
            "name": "getCollectionDetails",
            "outputs": [
                {
                    "components": [
                        {
                            "internalType": "string",
                            "name": "name",
                            "type": "string"
                        },
                        {
                            "internalType": "string",
                            "name": "symbol",
                            "type": "string"
                        },
                        {
                            "internalType": "string",
                            "name": "about",
                            "type": "string"
                        },
                        {
                            "internalType": "string",
                            "name": "logo",
                            "type": "string"
                        },
                        {
                            "components": [
                                {
                                    "internalType": "string",
                                    "name": "uri",
                                    "type": "string"
                                },
                                {
                                    "internalType": "bool",
                                    "name": "isGradient",
                                    "type": "bool"
                                }
                            ],
                            "internalType": "struct CoverImage",
                            "name": "cover",
                            "type": "tuple"
                        },
                        {
                            "components": [
                                {
                                    "internalType": "string",
                                    "name": "instagram",
                                    "type": "string"
                                },
                                {
                                    "internalType": "string",
                                    "name": "facebook",
                                    "type": "string"
                                },
                                {
                                    "internalType": "string",
                                    "name": "twitter",
                                    "type": "string"
                                },
                                {
                                    "internalType": "string",
                                    "name": "website",
                                    "type": "string"
                                }
                            ],
                            "internalType": "struct SocialMediaData",
                            "name": "social",
                            "type": "tuple"
                        }
                    ],
                    "internalType": "struct CollectionDetails",
                    "name": "",
                    "type": "tuple"
                }
            ],
            "stateMutability": "view",
            "type": "function"
        },
        {
            "inputs": [],
            "name": "getCreatorFees",
            "outputs": [
                {
                    "internalType": "uint16[]",
                    "name": "",
                    "type": "uint16[]"
                }
            ],
            "stateMutability": "view",
            "type": "function"
        },
        {
            "inputs": [],
            "name": "getMintedNFTs",
            "outputs": [
                {
                    "components": [
                        {
                            "internalType": "address",
                            "name": "nftAddress",
                            "type": "address"
                        },
                        {
                            "internalType": "uint256",
                            "name": "tokenId",
                            "type": "uint256"
                        },
                        {
                            "internalType": "string",
                            "name": "imgUri",
                            "type": "string"
                        },
                        {
                            "internalType": "string",
                            "name": "videoUri",
                            "type": "string"
                        },
                        {
                            "internalType": "string",
                            "name": "title",
                            "type": "string"
                        },
                        {
                            "internalType": "string",
                            "name": "description",
                            "type": "string"
                        },
                        {
                            "internalType": "bool",
                            "name": "isVideo",
                            "type": "bool"
                        },
                        {
                            "components": [
                                {
                                    "internalType": "string",
                                    "name": "name",
                                    "type": "string"
                                },
                                {
                                    "internalType": "address",
                                    "name": "artistAddress",
                                    "type": "address"
                                },
                                {
                                    "internalType": "string",
                                    "name": "imageUrl",
                                    "type": "string"
                                }
                            ],
                            "internalType": "struct artistDetails",
                            "name": "artist",
                            "type": "tuple"
                        },
                        {
                            "internalType": "enum minter",
                            "name": "mintedBy",
                            "type": "uint8"
                        }
                    ],
                    "internalType": "struct NFTData[]",
                    "name": "",
                    "type": "tuple[]"
                }
            ],
            "stateMutability": "view",
            "type": "function"
        },
        {
            "inputs": [
                {
                    "internalType": "uint256",
                    "name": "_tokenId",
                    "type": "uint256"
                }
            ],
            "name": "getNFTData",
            "outputs": [
                {
                    "components": [
                        {
                            "internalType": "address",
                            "name": "nftAddress",
                            "type": "address"
                        },
                        {
                            "internalType": "uint256",
                            "name": "tokenId",
                            "type": "uint256"
                        },
                        {
                            "internalType": "string",
                            "name": "imgUri",
                            "type": "string"
                        },
                        {
                            "internalType": "string",
                            "name": "videoUri",
                            "type": "string"
                        },
                        {
                            "internalType": "string",
                            "name": "title",
                            "type": "string"
                        },
                        {
                            "internalType": "string",
                            "name": "description",
                            "type": "string"
                        },
                        {
                            "internalType": "bool",
                            "name": "isVideo",
                            "type": "bool"
                        },
                        {
                            "components": [
                                {
                                    "internalType": "string",
                                    "name": "name",
                                    "type": "string"
                                },
                                {
                                    "internalType": "address",
                                    "name": "artistAddress",
                                    "type": "address"
                                },
                                {
                                    "internalType": "string",
                                    "name": "imageUrl",
                                    "type": "string"
                                }
                            ],
                            "internalType": "struct artistDetails",
                            "name": "artist",
                            "type": "tuple"
                        },
                        {
                            "internalType": "enum minter",
                            "name": "mintedBy",
                            "type": "uint8"
                        }
                    ],
                    "internalType": "struct NFTData",
                    "name": "",
                    "type": "tuple"
                }
            ],
            "stateMutability": "view",
            "type": "function"
        },
        {
            "inputs": [],
            "name": "getRoyalties",
            "outputs": [
                {
                    "internalType": "uint256",
                    "name": "_orgFee",
                    "type": "uint256"
                },
                {
                    "internalType": "uint256",
                    "name": "_creatorRoyalty",
                    "type": "uint256"
                },
                {
                    "internalType": "uint256",
                    "name": "_orgInitialRoyalty",
                    "type": "uint256"
                },
                {
                    "internalType": "uint256",
                    "name": "_sellerFeeInitial",
                    "type": "uint256"
                }
            ],
            "stateMutability": "view",
            "type": "function"
        },
        {
            "inputs": [],
            "name": "getSellerFee",
            "outputs": [
                {
                    "internalType": "uint256",
                    "name": "",
                    "type": "uint256"
                }
            ],
            "stateMutability": "view",
            "type": "function"
        },
        {
            "inputs": [],
            "name": "getTotalCreatorFees",
            "outputs": [
                {
                    "internalType": "uint256",
                    "name": "",
                    "type": "uint256"
                }
            ],
            "stateMutability": "view",
            "type": "function"
        },
        {
            "inputs": [
                {
                    "internalType": "address",
                    "name": "newAdmin",
                    "type": "address"
                }
            ],
            "name": "grantAdminRights",
            "outputs": [],
            "stateMutability": "nonpayable",
            "type": "function"
        },
        {
            "inputs": [
                {
                    "internalType": "address",
                    "name": "owner",
                    "type": "address"
                },
                {
                    "internalType": "address",
                    "name": "operator",
                    "type": "address"
                }
            ],
            "name": "isApprovedForAll",
            "outputs": [
                {
                    "internalType": "bool",
                    "name": "",
                    "type": "bool"
                }
            ],
            "stateMutability": "view",
            "type": "function"
        },
        {
            "inputs": [
                {
                    "internalType": "address",
                    "name": "_creator",
                    "type": "address"
                },
                {
                    "internalType": "string",
                    "name": "_imgURI",
                    "type": "string"
                },
                {
                    "internalType": "string",
                    "name": "_videoURI",
                    "type": "string"
                },
                {
                    "internalType": "string",
                    "name": "title",
                    "type": "string"
                },
                {
                    "internalType": "string",
                    "name": "description",
                    "type": "string"
                },
                {
                    "internalType": "string",
                    "name": "artistName",
                    "type": "string"
                },
                {
                    "internalType": "string",
                    "name": "artistImg",
                    "type": "string"
                },
                {
                    "internalType": "bool",
                    "name": "isVideo",
                    "type": "bool"
                }
            ],
            "name": "mintByArtistOrAdmin",
            "outputs": [],
            "stateMutability": "nonpayable",
            "type": "function"
        },
        {
            "inputs": [],
            "name": "name",
            "outputs": [
                {
                    "internalType": "string",
                    "name": "",
                    "type": "string"
                }
            ],
            "stateMutability": "view",
            "type": "function"
        },
        {
            "inputs": [],
            "name": "orgFee",
            "outputs": [
                {
                    "internalType": "uint256",
                    "name": "",
                    "type": "uint256"
                }
            ],
            "stateMutability": "view",
            "type": "function"
        },
        {
            "inputs": [],
            "name": "orgFeeInitial",
            "outputs": [
                {
                    "internalType": "uint256",
                    "name": "",
                    "type": "uint256"
                }
            ],
            "stateMutability": "view",
            "type": "function"
        },
        {
            "inputs": [
                {
                    "internalType": "uint256",
                    "name": "tokenId",
                    "type": "uint256"
                }
            ],
            "name": "ownerOf",
            "outputs": [
                {
                    "internalType": "address",
                    "name": "",
                    "type": "address"
                }
            ],
            "stateMutability": "view",
            "type": "function"
        },
        {
            "inputs": [
                {
                    "internalType": "address",
                    "name": "from",
                    "type": "address"
                },
                {
                    "internalType": "address",
                    "name": "to",
                    "type": "address"
                },
                {
                    "internalType": "uint256",
                    "name": "tokenId",
                    "type": "uint256"
                }
            ],
            "name": "safeTransferFrom",
            "outputs": [],
            "stateMutability": "nonpayable",
            "type": "function"
        },
        {
            "inputs": [
                {
                    "internalType": "address",
                    "name": "from",
                    "type": "address"
                },
                {
                    "internalType": "address",
                    "name": "to",
                    "type": "address"
                },
                {
                    "internalType": "uint256",
                    "name": "tokenId",
                    "type": "uint256"
                },
                {
                    "internalType": "bytes",
                    "name": "data",
                    "type": "bytes"
                }
            ],
            "name": "safeTransferFrom",
            "outputs": [],
            "stateMutability": "nonpayable",
            "type": "function"
        },
        {
            "inputs": [],
            "name": "sellerFee",
            "outputs": [
                {
                    "internalType": "uint256",
                    "name": "",
                    "type": "uint256"
                }
            ],
            "stateMutability": "view",
            "type": "function"
        },
        {
            "inputs": [],
            "name": "sellerFeeInitial",
            "outputs": [
                {
                    "internalType": "uint256",
                    "name": "",
                    "type": "uint256"
                }
            ],
            "stateMutability": "view",
            "type": "function"
        },
        {
            "inputs": [
                {
                    "internalType": "address",
                    "name": "operator",
                    "type": "address"
                },
                {
                    "internalType": "bool",
                    "name": "approved",
                    "type": "bool"
                }
            ],
            "name": "setApprovalForAll",
            "outputs": [],
            "stateMutability": "nonpayable",
            "type": "function"
        },
        {
            "inputs": [
                {
                    "internalType": "uint256",
                    "name": "_orgFeeInitial",
                    "type": "uint256"
                },
                {
                    "internalType": "uint256",
                    "name": "_creatorFeeInitial",
                    "type": "uint256"
                }
            ],
            "name": "setRoyaltyPercentageFirstSale",
            "outputs": [
                {
                    "internalType": "bool",
                    "name": "",
                    "type": "bool"
                }
            ],
            "stateMutability": "nonpayable",
            "type": "function"
        },
        {
            "inputs": [
                {
                    "internalType": "bytes4",
                    "name": "interfaceId",
                    "type": "bytes4"
                }
            ],
            "name": "supportsInterface",
            "outputs": [
                {
                    "internalType": "bool",
                    "name": "",
                    "type": "bool"
                }
            ],
            "stateMutability": "view",
            "type": "function"
        },
        {
            "inputs": [],
            "name": "symbol",
            "outputs": [
                {
                    "internalType": "string",
                    "name": "",
                    "type": "string"
                }
            ],
            "stateMutability": "view",
            "type": "function"
        },
        {
            "inputs": [
                {
                    "internalType": "uint256",
                    "name": "tokenId",
                    "type": "uint256"
                }
            ],
            "name": "tokenURI",
            "outputs": [
                {
                    "internalType": "string",
                    "name": "",
                    "type": "string"
                }
            ],
            "stateMutability": "view",
            "type": "function"
        },
        {
            "inputs": [],
            "name": "totalCreatorFees",
            "outputs": [
                {
                    "internalType": "uint256",
                    "name": "",
                    "type": "uint256"
                }
            ],
            "stateMutability": "view",
            "type": "function"
        },
        {
            "inputs": [],
            "name": "totalSupply",
            "outputs": [
                {
                    "internalType": "uint256",
                    "name": "",
                    "type": "uint256"
                }
            ],
            "stateMutability": "view",
            "type": "function"
        },
        {
            "inputs": [
                {
                    "internalType": "address",
                    "name": "from",
                    "type": "address"
                },
                {
                    "internalType": "address",
                    "name": "to",
                    "type": "address"
                },
                {
                    "internalType": "uint256",
                    "name": "tokenId",
                    "type": "uint256"
                }
            ],
            "name": "transferFrom",
            "outputs": [],
            "stateMutability": "nonpayable",
            "type": "function"
        }
    ],
    "bytecode": "60806040526101f46018556101f4601e553480156200001d57600080fd5b50604051620053863803806200538683398101604081905262000040916200091f565b83516020850151600062000055838262000ae9565b50600162000064828262000ae9565b5050506020808601516001600160a01b03166000908152600a909152604090208551869190819062000097908262000ae9565b5060208201516001820180546001600160a01b0319166001600160a01b0390921691909117905560408201516002820190620000d4908262000ae9565b5050506020808601516001600160a01b03166000908152600790915260409020805460ff1916600117905583518490600c90819062000114908262000ae9565b50602082015160018201906200012b908262000ae9565b506040820151600282019062000142908262000ae9565b506060820151600382019062000159908262000ae9565b50608082015180516004830190819062000174908262000ae9565b50602091909101516001909101805460ff191691151591909117905560a0820151805160068301908190620001aa908262000ae9565b5060208201516001820190620001c1908262000ae9565b5060408201516002820190620001d8908262000ae9565b5060608201516003820190620001ef908262000ae9565b5050601680546001600160a01b0319166001600160a01b0388161790555050825162000224915060199060208501906200030d565b5080516200023a90601b906020840190620003bd565b50620002456200028d565b601a8190556018546200025b9061271062000bcb565b62000267919062000bcb565b601755601e546200027b9061271062000bcb565b601d5551601c555062000c1392505050565b601b54600090815b818160ff161015620003035760198160ff1681548110620002ba57620002ba62000be7565b90600052602060002090601091828204019190066002029054906101000a900461ffff1661ffff16601a6000828254620002f5919062000bfd565b909155505060010162000295565b50601a5491505090565b82805482825590600052602060002090600f01601090048101928215620003ab5791602002820160005b838211156200037957835183826101000a81548161ffff021916908361ffff160217905550926020019260020160208160010104928301926001030262000337565b8015620003a95782816101000a81549061ffff021916905560020160208160010104928301926001030262000379565b505b50620003b992915062000415565b5090565b828054828255906000526020600020908101928215620003ab579160200282015b82811115620003ab57825182546001600160a01b0319166001600160a01b03909116178255602090920191600190910190620003de565b5b80821115620003b9576000815560010162000416565b634e487b7160e01b600052604160045260246000fd5b604051608081016001600160401b03811182821017156200046757620004676200042c565b60405290565b60405160c081016001600160401b03811182821017156200046757620004676200042c565b604051606081016001600160401b03811182821017156200046757620004676200042c565b604051601f8201601f191681016001600160401b0381118282101715620004e257620004e26200042c565b604052919050565b600082601f830112620004fc57600080fd5b81516001600160401b038111156200051857620005186200042c565b60206200052e601f8301601f19168201620004b7565b82815285828487010111156200054357600080fd5b60005b838110156200056357858101830151828201840152820162000546565b506000928101909101919091529392505050565b6001600160a01b03811681146200058d57600080fd5b50565b600060408284031215620005a357600080fd5b604080519081016001600160401b038082118383101715620005c957620005c96200042c565b816040528293508451915080821115620005e257600080fd5b50620005f185828601620004ea565b825250602083015180151581146200060857600080fd5b6020919091015292915050565b6000608082840312156200062857600080fd5b6200063262000442565b82519091506001600160401b03808211156200064d57600080fd5b6200065b85838601620004ea565b835260208401519150808211156200067257600080fd5b6200068085838601620004ea565b602084015260408401519150808211156200069a57600080fd5b620006a885838601620004ea565b60408401526060840151915080821115620006c257600080fd5b50620006d184828501620004ea565b60608301525092915050565b600060c08284031215620006f057600080fd5b620006fa6200046d565b82519091506001600160401b03808211156200071557600080fd5b6200072385838601620004ea565b835260208401519150808211156200073a57600080fd5b6200074885838601620004ea565b602084015260408401519150808211156200076257600080fd5b6200077085838601620004ea565b604084015260608401519150808211156200078a57600080fd5b6200079885838601620004ea565b60608401526080840151915080821115620007b257600080fd5b620007c08583860162000590565b608084015260a0840151915080821115620007da57600080fd5b50620007e98482850162000615565b60a08301525092915050565b8051620008028162000577565b919050565b60006001600160401b038211156200082357620008236200042c565b5060051b60200190565b600082601f8301126200083f57600080fd5b8151602062000858620008528362000807565b620004b7565b82815260059290921b840181019181810190868411156200087857600080fd5b8286015b84811015620008a757805161ffff81168114620008995760008081fd5b83529183019183016200087c565b509695505050505050565b600082601f830112620008c457600080fd5b81516020620008d7620008528362000807565b82815260059290921b84018101918181019086841115620008f757600080fd5b8286015b84811015620008a7578051620009118162000577565b8352918301918301620008fb565b600080600080600060a086880312156200093857600080fd5b85516001600160401b03808211156200095057600080fd5b908701906060828a0312156200096557600080fd5b6200096f62000492565b8251828111156200097f57600080fd5b6200098d8b828601620004ea565b8252506020830151620009a08162000577565b6020820152604083015182811115620009b857600080fd5b620009c68b828601620004ea565b6040830152506020890151909750915080821115620009e457600080fd5b620009f289838a01620006dd565b955062000a0260408901620007f5565b9450606088015191508082111562000a1957600080fd5b62000a2789838a016200082d565b9350608088015191508082111562000a3e57600080fd5b5062000a4d88828901620008b2565b9150509295509295909350565b600181811c9082168062000a6f57607f821691505b60208210810362000a9057634e487b7160e01b600052602260045260246000fd5b50919050565b601f82111562000ae457600081815260208120601f850160051c8101602086101562000abf5750805b601f850160051c820191505b8181101562000ae05782815560010162000acb565b5050505b505050565b81516001600160401b0381111562000b055762000b056200042c565b62000b1d8162000b16845462000a5a565b8462000a96565b602080601f83116001811462000b55576000841562000b3c5750858301515b600019600386901b1c1916600185901b17855562000ae0565b600085815260208120601f198616915b8281101562000b865788860151825594840194600190910190840162000b65565b508582101562000ba55787850151600019600388901b60f8161c191681555b5050505050600190811b01905550565b634e487b7160e01b600052601160045260246000fd5b8181038181111562000be15762000be162000bb5565b92915050565b634e487b7160e01b600052603260045260246000fd5b8082018082111562000be15762000be162000bb5565b6147638062000c236000396000f3fe608060405234801561001057600080fd5b50600436106102275760003560e01c806364969ced11610130578063bcc2ace6116100b8578063e985e9c51161007c578063e985e9c514610499578063f851a440146104d5578063fc52d1f0146104e8578063fe2b214c1461050e578063feeeadfd1461051757600080fd5b8063bcc2ace61461044e578063c87b56dd14610457578063cd53d08e1461046a578063db3fa4cc1461047d578063e1f3d55a1461049057600080fd5b8063a10a9350116100ff578063a10a9350146103f8578063a22cb4651461040b578063b3ff78c11461041e578063b88d4fde14610433578063bc073e101461044657600080fd5b806364969ced146103bf57806370a08231146103c857806377bf44ea146103db57806395d89b41146103f057600080fd5b80632c9996df116101b357806342966c681161018257806342966c681461036a57806343741e041461037d5780634c8e943e146103865780635986ebd1146103995780636352211e146103ac57600080fd5b80632c9996df1461031a5780632e098d2a1461032257806333df048e1461032b57806342842e0e1461035757600080fd5b80630ad4c4f4116101fa5780630ad4c4f4146102a957806316b8964c146102c957806318160ddd146102de57806319598c0f146102f457806323b872dd1461030757600080fd5b806301ffc9a71461022c57806306fdde0314610254578063081812fc14610269578063095ea7b314610294575b600080fd5b61023f61023a3660046136c4565b610537565b60405190151581526020015b60405180910390f35b61025c610589565b60405161024b9190613731565b61027c610277366004613744565b61061b565b6040516001600160a01b03909116815260200161024b565b6102a76102a2366004613779565b610642565b005b6102bc6102b7366004613744565b61075c565b60405161024b91906138f3565b6102d1610b80565b60405161024b9190613906565b6102e6610bff565b60405190815260200161024b565b6102a7610302366004613a1d565b610c0f565b6102a7610315366004613b35565b6111f3565b601a546102e6565b6102e6601c5481565b601854601a54601e54601d5460408051948552602085019390935291830152606082015260800161024b565b6102a7610365366004613b35565b611224565b6102a7610378366004613744565b61123f565b6102e6601d5481565b61023f610394366004613b71565b611281565b6102a76103a7366004613b93565b6112e2565b61027c6103ba366004613744565b611366565b6102e660185481565b6102e66103d6366004613b93565b6113c6565b6103e361144c565b60405161024b9190613bae565b61025c6118a8565b6102a7610406366004613d26565b6118b7565b6102a7610419366004613e52565b61201b565b61042661202a565b60405161024b9190613ee7565b6102a7610441366004613faa565b6125a9565b6017546102e6565b6102e6601e5481565b61025c610465366004613744565b6125e1565b61027c610478366004613744565b6126f1565b6102e661048b366004613779565b61271b565b6102e660175481565b61023f6104a7366004614026565b6001600160a01b03918216600090815260056020908152604080832093909416825291909152205460ff1690565b60165461027c906001600160a01b031681565b6104fb6104f6366004613744565b61274c565b60405161ffff909116815260200161024b565b6102e6601a5481565b61052a610525366004613b93565b612784565b60405161024b9190614050565b60006001600160e01b031982166380ac58cd60e01b148061056857506001600160e01b03198216635b5e139f60e01b145b8061058357506301ffc9a760e01b6001600160e01b03198316145b92915050565b60606000805461059890614063565b80601f01602080910402602001604051908101604052809291908181526020018280546105c490614063565b80156106115780601f106105e657610100808354040283529160200191610611565b820191906000526020600020905b8154815290600101906020018083116105f457829003601f168201915b5050505050905090565b600061062682612984565b506000908152600460205260409020546001600160a01b031690565b600061064d82611366565b9050806001600160a01b0316836001600160a01b0316036106bf5760405162461bcd60e51b815260206004820152602160248201527f4552433732313a20617070726f76616c20746f2063757272656e74206f776e656044820152603960f91b60648201526084015b60405180910390fd5b336001600160a01b03821614806106db57506106db81336104a7565b61074d5760405162461bcd60e51b815260206004820152603e60248201527f4552433732313a20617070726f76652063616c6c6572206973206e6f7420746f60448201527f6b656e206f776e6572206e6f7220617070726f76656420666f7220616c6c000060648201526084016106b6565b61075783836129e3565b505050565b610764613568565b60008281526009602090815260409182902082516101208101845281546001600160a01b0316815260018201549281019290925260028101805492939192918401916107af90614063565b80601f01602080910402602001604051908101604052809291908181526020018280546107db90614063565b80156108285780601f106107fd57610100808354040283529160200191610828565b820191906000526020600020905b81548152906001019060200180831161080b57829003601f168201915b5050505050815260200160038201805461084190614063565b80601f016020809104026020016040519081016040528092919081815260200182805461086d90614063565b80156108ba5780601f1061088f576101008083540402835291602001916108ba565b820191906000526020600020905b81548152906001019060200180831161089d57829003601f168201915b505050505081526020016004820180546108d390614063565b80601f01602080910402602001604051908101604052809291908181526020018280546108ff90614063565b801561094c5780601f106109215761010080835404028352916020019161094c565b820191906000526020600020905b81548152906001019060200180831161092f57829003601f168201915b5050505050815260200160058201805461096590614063565b80601f016020809104026020016040519081016040528092919081815260200182805461099190614063565b80156109de5780601f106109b3576101008083540402835291602001916109de565b820191906000526020600020905b8154815290600101906020018083116109c157829003601f168201915b5050509183525050600682015460ff1615156020820152604080516060810182526007840180549290930192909182908290610a1990614063565b80601f0160208091040260200160405190810160405280929190818152602001828054610a4590614063565b8015610a925780601f10610a6757610100808354040283529160200191610a92565b820191906000526020600020905b815481529060010190602001808311610a7557829003601f168201915b505050918352505060018201546001600160a01b03166020820152600282018054604090920191610ac290614063565b80601f0160208091040260200160405190810160405280929190818152602001828054610aee90614063565b8015610b3b5780601f10610b1057610100808354040283529160200191610b3b565b820191906000526020600020905b815481529060010190602001808311610b1e57829003601f168201915b505050919092525050508152600a82015460209091019060ff166001811115610b6657610b666137ec565b6001811115610b7757610b776137ec565b90525092915050565b6060601980548060200260200160405190810160405280929190818152602001828054801561061157602002820191906000526020600020906000905b82829054906101000a900461ffff1661ffff1681526020019060020190602082600101049283019260010382029150808411610bbd5790505050505050905090565b6000610c0a601f5490565b905090565b3360009081526007602052604090205460ff16151560011480610c3c57506016546001600160a01b031633145b610c4557600080fd5b6000610c55601f80546001019055565b6000610c6e87878b8b610c67601f5490565b8a89612a51565b9050600081604051602001610c8391906140b9565b6040516020818303038152906040529050610ca68b610ca1601f5490565b612ad3565b610cb8610cb2601f5490565b82612c15565b6016546001600160a01b03163303610cd35760009250610cd8565b600192505b6000604051806101200160405280306001600160a01b03168152602001610cfe601f5490565b81526020018c81526020018b81526020018a81526020018981526020018615158152602001600a60008f6001600160a01b03166001600160a01b03168152602001908152602001600020604051806060016040529081600082018054610d6390614063565b80601f0160208091040260200160405190810160405280929190818152602001828054610d8f90614063565b8015610ddc5780601f10610db157610100808354040283529160200191610ddc565b820191906000526020600020905b815481529060010190602001808311610dbf57829003601f168201915b505050918352505060018201546001600160a01b03166020820152600282018054604090920191610e0c90614063565b80601f0160208091040260200160405190810160405280929190818152602001828054610e3890614063565b8015610e855780601f10610e5a57610100808354040283529160200191610e85565b820191906000526020600020905b815481529060010190602001808311610e6857829003601f168201915b5050505050815250508152602001856001811115610ea557610ea56137ec565b905290508060096000610eb7601f5490565b81526020808201929092526040908101600020835181546001600160a01b0319166001600160a01b039091161781559183015160018301558201516002820190610f01908261414c565b5060608201516003820190610f16908261414c565b5060808201516004820190610f2b908261414c565b5060a08201516005820190610f40908261414c565b5060c082015160068201805460ff191691151591909117905560e0820151805160078301908190610f71908261414c565b5060208201516001820180546001600160a01b0319166001600160a01b0390921691909117905560408201516002820190610fac908261414c565b505050610100820151600a8201805460ff191660018381811115610fd257610fd26137ec565b021790555050600b80546001810182556000829052835191027f0175b7a638427703f0dbe7bb9bbf987a2551717b34e79f33b5b1008d1fa01db9810180546001600160a01b039093166001600160a01b031990931692909217825560208401517f0175b7a638427703f0dbe7bb9bbf987a2551717b34e79f33b5b1008d1fa01dba82015560408401518493507f0175b7a638427703f0dbe7bb9bbf987a2551717b34e79f33b5b1008d1fa01dbb9091019061108d908261414c565b50606082015160038201906110a2908261414c565b50608082015160048201906110b7908261414c565b5060a082015160058201906110cc908261414c565b5060c082015160068201805460ff191691151591909117905560e08201518051600783019081906110fd908261414c565b5060208201516001820180546001600160a01b0319166001600160a01b0390921691909117905560408201516002820190611138908261414c565b505050610100820151600a8201805460ff19166001838181111561115e5761115e6137ec565b021790555050506001600160a01b038c166000908152600860205260409020601f54815460018101835560009283526020909220909101557f2db9668bad0a3af1645e9d7b105b845aab882086ebbdb33dd3bf53530c6b8d068c6111c1601f5490565b8d8d8d8d8d8d8d6040516111dd9998979695949392919061420c565b60405180910390a1505050505050505050505050565b6111fd3382612ca8565b6112195760405162461bcd60e51b81526004016106b6906142b6565b610757838383612d26565b610757838383604051806020016040528060008152506125a9565b3360009081526007602052604090205460ff1615156001148061126c57506016546001600160a01b031633145b61127557600080fd5b61127e81612ec2565b50565b6016546000906001600160a01b031633146112d35760405162461bcd60e51b815260206004820152601260248201527113db9b1e4810591b5a5b88185b1b1bddd95960721b60448201526064016106b6565b50601e91909155601d55600190565b6016546001600160a01b031633146113315760405162461bcd60e51b815260206004820152601260248201527113db9b1e4810591b5a5b88185b1b1bddd95960721b60448201526064016106b6565b6001600160a01b03811661134457600080fd5b601680546001600160a01b0319166001600160a01b0392909216919091179055565b6000818152600260205260408120546001600160a01b0316806105835760405162461bcd60e51b8152602060048201526018602482015277115490cdcc8c4e881a5b9d985b1a59081d1bdad95b88125160421b60448201526064016106b6565b60006001600160a01b0382166114305760405162461bcd60e51b815260206004820152602960248201527f4552433732313a2061646472657373207a65726f206973206e6f7420612076616044820152683634b21037bbb732b960b91b60648201526084016106b6565b506001600160a01b031660009081526003602052604090205490565b6060600b805480602002602001604051908101604052809291908181526020016000905b8282101561189f5760008481526020908190206040805161012081018252600b860290920180546001600160a01b03168352600181015493830193909352600283018054929392918401916114c490614063565b80601f01602080910402602001604051908101604052809291908181526020018280546114f090614063565b801561153d5780601f106115125761010080835404028352916020019161153d565b820191906000526020600020905b81548152906001019060200180831161152057829003601f168201915b5050505050815260200160038201805461155690614063565b80601f016020809104026020016040519081016040528092919081815260200182805461158290614063565b80156115cf5780601f106115a4576101008083540402835291602001916115cf565b820191906000526020600020905b8154815290600101906020018083116115b257829003601f168201915b505050505081526020016004820180546115e890614063565b80601f016020809104026020016040519081016040528092919081815260200182805461161490614063565b80156116615780601f1061163657610100808354040283529160200191611661565b820191906000526020600020905b81548152906001019060200180831161164457829003601f168201915b5050505050815260200160058201805461167a90614063565b80601f01602080910402602001604051908101604052809291908181526020018280546116a690614063565b80156116f35780601f106116c8576101008083540402835291602001916116f3565b820191906000526020600020905b8154815290600101906020018083116116d657829003601f168201915b5050509183525050600682015460ff161515602082015260408051606081018252600784018054929093019290918290829061172e90614063565b80601f016020809104026020016040519081016040528092919081815260200182805461175a90614063565b80156117a75780601f1061177c576101008083540402835291602001916117a7565b820191906000526020600020905b81548152906001019060200180831161178a57829003601f168201915b505050918352505060018201546001600160a01b031660208201526002820180546040909201916117d790614063565b80601f016020809104026020016040519081016040528092919081815260200182805461180390614063565b80156118505780601f1061182557610100808354040283529160200191611850565b820191906000526020600020905b81548152906001019060200180831161183357829003601f168201915b505050919092525050508152600a82015460209091019060ff16600181111561187b5761187b6137ec565b600181111561188c5761188c6137ec565b8152505081526020019060010190611470565b50505050905090565b60606001805461059890614063565b3360009081526007602052604090205460ff161515600114806118e457506016546001600160a01b031633145b6118ed57600080fd5b6000805b865181101561200f57611908601f80546001019055565b600061199e88838151811061191f5761191f614304565b602002602001015188848151811061193957611939614304565b60200260200101518c858151811061195357611953614304565b60200260200101518c868151811061196d5761196d614304565b602002602001015161197e601f5490565b8b8a898151811061199157611991614304565b6020026020010151612a51565b90506119ad8b610ca1601f5490565b6119de6119b9601f5490565b826040516020016119ca91906140b9565b604051602081830303815290604052612c15565b6016546001600160a01b031633036119f957600092506119fe565b600192505b6000604051806101200160405280306001600160a01b03168152602001611a24601f5490565b81526020018c8581518110611a3b57611a3b614304565b602002602001015181526020018b8581518110611a5a57611a5a614304565b602002602001015181526020018a8581518110611a7957611a79614304565b60200260200101518152602001898581518110611a9857611a98614304565b60200260200101518152602001868581518110611ab757611ab7614304565b602002602001015115158152602001600a60008f6001600160a01b03166001600160a01b03168152602001908152602001600020604051806060016040529081600082018054611b0690614063565b80601f0160208091040260200160405190810160405280929190818152602001828054611b3290614063565b8015611b7f5780601f10611b5457610100808354040283529160200191611b7f565b820191906000526020600020905b815481529060010190602001808311611b6257829003601f168201915b505050918352505060018201546001600160a01b03166020820152600282018054604090920191611baf90614063565b80601f0160208091040260200160405190810160405280929190818152602001828054611bdb90614063565b8015611c285780601f10611bfd57610100808354040283529160200191611c28565b820191906000526020600020905b815481529060010190602001808311611c0b57829003601f168201915b5050505050815250508152602001856001811115611c4857611c486137ec565b905290508060096000611c5a601f5490565b81526020808201929092526040908101600020835181546001600160a01b0319166001600160a01b039091161781559183015160018301558201516002820190611ca4908261414c565b5060608201516003820190611cb9908261414c565b5060808201516004820190611cce908261414c565b5060a08201516005820190611ce3908261414c565b5060c082015160068201805460ff191691151591909117905560e0820151805160078301908190611d14908261414c565b5060208201516001820180546001600160a01b0319166001600160a01b0390921691909117905560408201516002820190611d4f908261414c565b505050610100820151600a8201805460ff191660018381811115611d7557611d756137ec565b021790555050600b80546001810182556000829052835191027f0175b7a638427703f0dbe7bb9bbf987a2551717b34e79f33b5b1008d1fa01db9810180546001600160a01b039093166001600160a01b031990931692909217825560208401517f0175b7a638427703f0dbe7bb9bbf987a2551717b34e79f33b5b1008d1fa01dba82015560408401518493507f0175b7a638427703f0dbe7bb9bbf987a2551717b34e79f33b5b1008d1fa01dbb90910190611e30908261414c565b5060608201516003820190611e45908261414c565b5060808201516004820190611e5a908261414c565b5060a08201516005820190611e6f908261414c565b5060c082015160068201805460ff191691151591909117905560e0820151805160078301908190611ea0908261414c565b5060208201516001820180546001600160a01b0319166001600160a01b0390921691909117905560408201516002820190611edb908261414c565b505050610100820151600a8201805460ff191660018381811115611f0157611f016137ec565b021790555050506001600160a01b038c166000908152600860205260409020601f54815460018101835560009283526020909220909101557f2db9668bad0a3af1645e9d7b105b845aab882086ebbdb33dd3bf53530c6b8d0633611f64601f5490565b8d8681518110611f7657611f76614304565b60200260200101518d8781518110611f9057611f90614304565b60200260200101518d8881518110611faa57611faa614304565b60200260200101518d8981518110611fc457611fc4614304565b60200260200101518d8d8d8c81518110611fe057611fe0614304565b6020026020010151604051611ffd9998979695949392919061420c565b60405180910390a150506001016118f1565b50505050505050505050565b612026338383612f02565b5050565b6120326135ea565b600c6040518060c001604052908160008201805461204f90614063565b80601f016020809104026020016040519081016040528092919081815260200182805461207b90614063565b80156120c85780601f1061209d576101008083540402835291602001916120c8565b820191906000526020600020905b8154815290600101906020018083116120ab57829003601f168201915b505050505081526020016001820180546120e190614063565b80601f016020809104026020016040519081016040528092919081815260200182805461210d90614063565b801561215a5780601f1061212f5761010080835404028352916020019161215a565b820191906000526020600020905b81548152906001019060200180831161213d57829003601f168201915b5050505050815260200160028201805461217390614063565b80601f016020809104026020016040519081016040528092919081815260200182805461219f90614063565b80156121ec5780601f106121c1576101008083540402835291602001916121ec565b820191906000526020600020905b8154815290600101906020018083116121cf57829003601f168201915b5050505050815260200160038201805461220590614063565b80601f016020809104026020016040519081016040528092919081815260200182805461223190614063565b801561227e5780601f106122535761010080835404028352916020019161227e565b820191906000526020600020905b81548152906001019060200180831161226157829003601f168201915b50505050508152602001600482016040518060400160405290816000820180546122a790614063565b80601f01602080910402602001604051908101604052809291908181526020018280546122d390614063565b80156123205780601f106122f557610100808354040283529160200191612320565b820191906000526020600020905b81548152906001019060200180831161230357829003601f168201915b505050505081526020016001820160009054906101000a900460ff16151515158152505081526020016006820160405180608001604052908160008201805461236890614063565b80601f016020809104026020016040519081016040528092919081815260200182805461239490614063565b80156123e15780601f106123b6576101008083540402835291602001916123e1565b820191906000526020600020905b8154815290600101906020018083116123c457829003601f168201915b505050505081526020016001820180546123fa90614063565b80601f016020809104026020016040519081016040528092919081815260200182805461242690614063565b80156124735780601f1061244857610100808354040283529160200191612473565b820191906000526020600020905b81548152906001019060200180831161245657829003601f168201915b5050505050815260200160028201805461248c90614063565b80601f01602080910402602001604051908101604052809291908181526020018280546124b890614063565b80156125055780601f106124da57610100808354040283529160200191612505565b820191906000526020600020905b8154815290600101906020018083116124e857829003601f168201915b5050505050815260200160038201805461251e90614063565b80601f016020809104026020016040519081016040528092919081815260200182805461254a90614063565b80156125975780601f1061256c57610100808354040283529160200191612597565b820191906000526020600020905b81548152906001019060200180831161257a57829003601f168201915b50505050508152505081525050905090565b6125b33383612ca8565b6125cf5760405162461bcd60e51b81526004016106b6906142b6565b6125db84848484612fd0565b50505050565b60606125ec82612984565b6000828152600660205260408120805461260590614063565b80601f016020809104026020016040519081016040528092919081815260200182805461263190614063565b801561267e5780601f106126535761010080835404028352916020019161267e565b820191906000526020600020905b81548152906001019060200180831161266157829003601f168201915b50505050509050600061269c60408051602081019091526000815290565b905080516000036126ae575092915050565b8151156126e05780826040516020016126c892919061431a565b60405160208183030381529060405292505050919050565b6126e984613003565b949350505050565b601b818154811061270157600080fd5b6000918252602090912001546001600160a01b0316905081565b6008602052816000526040600020818154811061273757600080fd5b90600052602060002001600091509150505481565b6019818154811061275c57600080fd5b9060005260206000209060109182820401919006600202915054906101000a900461ffff1681565b604080516060808201835280825260006020830152918101919091526001600160a01b0382166127b357600080fd5b6001600160a01b03821660009081526007602052604090205460ff1615156001146128205760405162461bcd60e51b815260206004820152601b60248201527f476976656e2061646472657373206973206e6f7420617274697374000000000060448201526064016106b6565b6001600160a01b0382166000908152600a60205260409081902081516060810190925280548290829061285290614063565b80601f016020809104026020016040519081016040528092919081815260200182805461287e90614063565b80156128cb5780601f106128a0576101008083540402835291602001916128cb565b820191906000526020600020905b8154815290600101906020018083116128ae57829003601f168201915b505050918352505060018201546001600160a01b031660208201526002820180546040909201916128fb90614063565b80601f016020809104026020016040519081016040528092919081815260200182805461292790614063565b80156129745780601f1061294957610100808354040283529160200191612974565b820191906000526020600020905b81548152906001019060200180831161295757829003601f168201915b5050505050815250509050919050565b6000818152600260205260409020546001600160a01b031661127e5760405162461bcd60e51b8152602060048201526018602482015277115490cdcc8c4e881a5b9d985b1a59081d1bdad95b88125160421b60448201526064016106b6565b600081815260046020526040902080546001600160a01b0319166001600160a01b0384169081179091558190612a1882611366565b6001600160a01b03167f8c5be1e5ebec7d5bd14f71427d1e84f3dd0314c0f7b2291e5b200ac8c7c3b92560405160405180910390a45050565b6060811515600003612aa0576000612a97898989612a6e89613077565b88604051602001612a83959493929190614349565b604051602081830303815290604052613178565b9150612ac89050565b6000612a97898989612ab189613077565b888b604051602001612a8396959493929190614459565b979650505050505050565b6001600160a01b038216612b295760405162461bcd60e51b815260206004820181905260248201527f4552433732313a206d696e7420746f20746865207a65726f206164647265737360448201526064016106b6565b6000818152600260205260409020546001600160a01b031615612b8e5760405162461bcd60e51b815260206004820152601c60248201527f4552433732313a20746f6b656e20616c7265616479206d696e7465640000000060448201526064016106b6565b6001600160a01b0382166000908152600360205260408120805460019290612bb79084906145ad565b909155505060008181526002602052604080822080546001600160a01b0319166001600160a01b03861690811790915590518392907fddf252ad1be2c89b69c2b068fc378daa952ba7f163c4a11628f55a4df523b3ef908290a45050565b6000828152600260205260409020546001600160a01b0316612c905760405162461bcd60e51b815260206004820152602e60248201527f45524337323155524953746f726167653a2055524920736574206f66206e6f6e60448201526d32bc34b9ba32b73a103a37b5b2b760911b60648201526084016106b6565b6000828152600660205260409020610757828261414c565b600080612cb483611366565b9050806001600160a01b0316846001600160a01b03161480612cfb57506001600160a01b0380821660009081526005602090815260408083209388168352929052205460ff165b806126e95750836001600160a01b0316612d148461061b565b6001600160a01b031614949350505050565b826001600160a01b0316612d3982611366565b6001600160a01b031614612d9d5760405162461bcd60e51b815260206004820152602560248201527f4552433732313a207472616e736665722066726f6d20696e636f72726563742060448201526437bbb732b960d91b60648201526084016106b6565b6001600160a01b038216612dff5760405162461bcd60e51b8152602060048201526024808201527f4552433732313a207472616e7366657220746f20746865207a65726f206164646044820152637265737360e01b60648201526084016106b6565b612e0a6000826129e3565b6001600160a01b0383166000908152600360205260408120805460019290612e339084906145c0565b90915550506001600160a01b0382166000908152600360205260408120805460019290612e619084906145ad565b909155505060008181526002602052604080822080546001600160a01b0319166001600160a01b0386811691821790925591518493918716917fddf252ad1be2c89b69c2b068fc378daa952ba7f163c4a11628f55a4df523b3ef91a4505050565b612ecb816132cb565b60008181526006602052604090208054612ee490614063565b15905061127e57600081815260066020526040812061127e91613660565b816001600160a01b0316836001600160a01b031603612f635760405162461bcd60e51b815260206004820152601960248201527f4552433732313a20617070726f766520746f2063616c6c65720000000000000060448201526064016106b6565b6001600160a01b03838116600081815260056020908152604080832094871680845294825291829020805460ff191686151590811790915591519182527f17307eab39ab6107e8899845ad3d59bd9653f200f220920489ca2b5937696c31910160405180910390a3505050565b612fdb848484612d26565b612fe784848484613366565b6125db5760405162461bcd60e51b81526004016106b6906145d3565b606061300e82612984565b600061302560408051602081019091526000815290565b905060008151116130455760405180602001604052806000815250613070565b8061304f84613467565b60405160200161306092919061431a565b6040516020818303038152906040525b9392505050565b60608160000361309e5750506040805180820190915260018152600360fc1b602082015290565b8160005b81156130c857806130b281614625565b91506130c19050600a83614654565b91506130a2565b60008167ffffffffffffffff8111156130e3576130e361394e565b6040519080825280601f01601f19166020018201604052801561310d576020820181803683370190505b5090505b84156126e9576131226001836145c0565b915061312f600a86614668565b61313a9060306145ad565b60f81b81838151811061314f5761314f614304565b60200101906001600160f81b031916908160001a905350613171600a86614654565b9450613111565b6060815160000361319757505060408051602081019091526000815290565b60006040518060600160405280604081526020016146ee60409139905060006003845160026131c691906145ad565b6131d09190614654565b6131db90600461467c565b67ffffffffffffffff8111156131f3576131f361394e565b6040519080825280601f01601f19166020018201604052801561321d576020820181803683370190505b509050600182016020820185865187015b80821015613289576003820191508151603f8160121c168501518453600184019350603f81600c1c168501518453600184019350603f8160061c168501518453600184019350603f811685015184535060018301925061322e565b50506003865106600181146132a557600281146132b8576132c0565b603d6001830353603d60028303536132c0565b603d60018303535b509195945050505050565b60006132d682611366565b90506132e36000836129e3565b6001600160a01b038116600090815260036020526040812080546001929061330c9084906145c0565b909155505060008281526002602052604080822080546001600160a01b0319169055518391906001600160a01b038416907fddf252ad1be2c89b69c2b068fc378daa952ba7f163c4a11628f55a4df523b3ef908390a45050565b60006001600160a01b0384163b1561345c57604051630a85bd0160e11b81526001600160a01b0385169063150b7a02906133aa903390899088908890600401614693565b6020604051808303816000875af19250505080156133e5575060408051601f3d908101601f191682019092526133e2918101906146d0565b60015b613442573d808015613413576040519150601f19603f3d011682016040523d82523d6000602084013e613418565b606091505b50805160000361343a5760405162461bcd60e51b81526004016106b6906145d3565b805181602001fd5b6001600160e01b031916630a85bd0160e11b1490506126e9565b506001949350505050565b60608160000361348e5750506040805180820190915260018152600360fc1b602082015290565b8160005b81156134b857806134a281614625565b91506134b19050600a83614654565b9150613492565b60008167ffffffffffffffff8111156134d3576134d361394e565b6040519080825280601f01601f1916602001820160405280156134fd576020820181803683370190505b5090505b84156126e9576135126001836145c0565b915061351f600a86614668565b61352a9060306145ad565b60f81b81838151811061353f5761353f614304565b60200101906001600160f81b031916908160001a905350613561600a86614654565b9450613501565b60405180610120016040528060006001600160a01b0316815260200160008152602001606081526020016060815260200160608152602001606081526020016000151581526020016135dd60405180606001604052806060815260200160006001600160a01b03168152602001606081525090565b815260200160005b905290565b6040518060c00160405280606081526020016060815260200160608152602001606081526020016136306040518060400160405280606081526020016000151581525090565b81526020016135e56040518060800160405280606081526020016060815260200160608152602001606081525090565b50805461366c90614063565b6000825580601f1061367c575050565b601f01602090049060005260206000209081019061127e91905b808211156136aa5760008155600101613696565b5090565b6001600160e01b03198116811461127e57600080fd5b6000602082840312156136d657600080fd5b8135613070816136ae565b60005b838110156136fc5781810151838201526020016136e4565b50506000910152565b6000815180845261371d8160208601602086016136e1565b601f01601f19169290920160200192915050565b6020815260006130706020830184613705565b60006020828403121561375657600080fd5b5035919050565b80356001600160a01b038116811461377457600080fd5b919050565b6000806040838503121561378c57600080fd5b6137958361375d565b946020939093013593505050565b60008151606084526137b86060850182613705565b905060018060a01b036020840151166020850152604083015184820360408601526137e38282613705565b95945050505050565b634e487b7160e01b600052602160045260246000fd5b6002811061382057634e487b7160e01b600052602160045260246000fd5b9052565b80516001600160a01b03168252600061012060208301516020850152604083015181604086015261385782860182613705565b915050606083015184820360608601526138718282613705565b9150506080830151848203608086015261388b8282613705565b91505060a083015184820360a08601526138a58282613705565b91505060c08301516138bb60c086018215159052565b5060e083015184820360e08601526138d382826137a3565b915050610100808401516138e982870182613802565b5090949350505050565b6020815260006130706020830184613824565b6020808252825182820181905260009190848201906040850190845b8181101561394257835161ffff1683529284019291840191600101613922565b50909695505050505050565b634e487b7160e01b600052604160045260246000fd5b604051601f8201601f1916810167ffffffffffffffff8111828210171561398d5761398d61394e565b604052919050565b600067ffffffffffffffff8311156139af576139af61394e565b6139c2601f8401601f1916602001613964565b90508281528383830111156139d657600080fd5b828260208301376000602084830101529392505050565b600082601f8301126139fe57600080fd5b61307083833560208501613995565b8035801515811461377457600080fd5b600080600080600080600080610100898b031215613a3a57600080fd5b613a438961375d565b9750602089013567ffffffffffffffff80821115613a6057600080fd5b613a6c8c838d016139ed565b985060408b0135915080821115613a8257600080fd5b613a8e8c838d016139ed565b975060608b0135915080821115613aa457600080fd5b613ab08c838d016139ed565b965060808b0135915080821115613ac657600080fd5b613ad28c838d016139ed565b955060a08b0135915080821115613ae857600080fd5b613af48c838d016139ed565b945060c08b0135915080821115613b0a57600080fd5b50613b178b828c016139ed565b925050613b2660e08a01613a0d565b90509295985092959890939650565b600080600060608486031215613b4a57600080fd5b613b538461375d565b9250613b616020850161375d565b9150604084013590509250925092565b60008060408385031215613b8457600080fd5b50508035926020909101359150565b600060208284031215613ba557600080fd5b6130708261375d565b6000602080830181845280855180835260408601915060408160051b870101925083870160005b82811015613c0357603f19888603018452613bf1858351613824565b94509285019290850190600101613bd5565b5092979650505050505050565b600067ffffffffffffffff821115613c2a57613c2a61394e565b5060051b60200190565b600082601f830112613c4557600080fd5b81356020613c5a613c5583613c10565b613964565b82815260059290921b84018101918181019086841115613c7957600080fd5b8286015b84811015613cb957803567ffffffffffffffff811115613c9d5760008081fd5b613cab8986838b01016139ed565b845250918301918301613c7d565b509695505050505050565b600082601f830112613cd557600080fd5b81356020613ce5613c5583613c10565b82815260059290921b84018101918181019086841115613d0457600080fd5b8286015b84811015613cb957613d1981613a0d565b8352918301918301613d08565b600080600080600080600080610100898b031215613d4357600080fd5b613d4c8961375d565b9750602089013567ffffffffffffffff80821115613d6957600080fd5b613d758c838d01613c34565b985060408b0135915080821115613d8b57600080fd5b613d978c838d01613c34565b975060608b0135915080821115613dad57600080fd5b613db98c838d01613c34565b965060808b0135915080821115613dcf57600080fd5b613ddb8c838d01613c34565b955060a08b0135915080821115613df157600080fd5b613dfd8c838d016139ed565b945060c08b0135915080821115613e1357600080fd5b613e1f8c838d016139ed565b935060e08b0135915080821115613e3557600080fd5b50613e428b828c01613cc4565b9150509295985092959890939650565b60008060408385031215613e6557600080fd5b613e6e8361375d565b9150613e7c60208401613a0d565b90509250929050565b6000815160808452613e9a6080850182613705565b905060208301518482036020860152613eb38282613705565b91505060408301518482036040860152613ecd8282613705565b915050606083015184820360608601526137e38282613705565b602081526000825160c06020840152613f0360e0840182613705565b90506020840151601f1980858403016040860152613f218383613705565b92506040860151915080858403016060860152613f3e8383613705565b92506060860151915080858403016080860152613f5b8383613705565b925060808601519150808584030160a0860152815160408452613f816040850182613705565b905060208301511515602085015260a08701519350818682030160c0870152612ac88185613e85565b60008060008060808587031215613fc057600080fd5b613fc98561375d565b9350613fd76020860161375d565b925060408501359150606085013567ffffffffffffffff811115613ffa57600080fd5b8501601f8101871361400b57600080fd5b61401a87823560208401613995565b91505092959194509250565b6000806040838503121561403957600080fd5b6140428361375d565b9150613e7c6020840161375d565b60208152600061307060208301846137a3565b600181811c9082168061407757607f821691505b60208210810361409757634e487b7160e01b600052602260045260246000fd5b50919050565b600081516140af8185602086016136e1565b9290920192915050565b7f646174613a6170706c69636174696f6e2f6a736f6e3b6261736536342c0000008152600082516140f181601d8501602087016136e1565b91909101601d0192915050565b601f82111561075757600081815260208120601f850160051c810160208610156141255750805b601f850160051c820191505b8181101561414457828155600101614131565b505050505050565b815167ffffffffffffffff8111156141665761416661394e565b61417a816141748454614063565b846140fe565b602080601f8311600181146141af57600084156141975750858301515b600019600386901b1c1916600185901b178555614144565b600085815260208120601f198616915b828110156141de578886015182559484019460019091019084016141bf565b50858210156141fc5787850151600019600388901b60f8161c191681555b5050505050600190811b01905550565b6001600160a01b038a16815260208101899052610120604082018190526000906142388382018b613705565b9050828103606084015261424c818a613705565b905082810360808401526142608189613705565b905082810360a08401526142748188613705565b905082810360c08401526142888187613705565b905082810360e084015261429c8186613705565b9150508215156101008301529a9950505050505050505050565b6020808252602e908201527f4552433732313a2063616c6c6572206973206e6f7420746f6b656e206f776e6560408201526d1c881b9bdc88185c1c1c9bdd995960921b606082015260800190565b634e487b7160e01b600052603260045260246000fd5b6000835161432c8184602088016136e1565b8351908301906143408183602088016136e1565b01949350505050565b6a3d913a34ba3632911d101160a91b8152855160009061437081600b850160208b016136e1565b72111610113232b9b1b934b83a34b7b7111d101160691b600b9184019182015286516143a381601e840160208b016136e1565b6c1116101134b6b0b3b2911d101160991b601e929091019182015285516143d181602b840160208a016136e1565b6e111610113a37b5b2b724b2111d101160891b602b9290910191820152845161440181603a8401602089016136e1565b721116101130b93a34b9ba2fb730b6b2911d101160691b603a9290910191820152835161443581604d8401602088016136e1565b61444c604d8284010161227d60f01b815260020190565b9998505050505050505050565b6a3d913a34ba3632911d101160a91b8152865160009061448081600b850160208c016136e1565b72111610113232b9b1b934b83a34b7b7111d101160691b600b9184019182015287516144b381601e840160208c016136e1565b6c1116101134b6b0b3b2911d101160991b601e929091019182015286516144e181602b840160208b016136e1565b6e111610113a37b5b2b724b2111d101160891b602b9290910191820152855161451181603a840160208a016136e1565b721116101130b93a34b9ba2fb730b6b2911d101160691b603a9290910191820152845161454581604d8401602089016136e1565b61458961457b614575604d84860101741116101130b734b6b0ba34b7b72fbab936111d101160591b815260150190565b8761409d565b61227d60f01b815260020190565b9a9950505050505050505050565b634e487b7160e01b600052601160045260246000fd5b8082018082111561058357610583614597565b8181038181111561058357610583614597565b60208082526032908201527f4552433732313a207472616e7366657220746f206e6f6e20455243373231526560408201527131b2b4bb32b91034b6b83632b6b2b73a32b960711b606082015260800190565b60006001820161463757614637614597565b5060010190565b634e487b7160e01b600052601260045260246000fd5b6000826146635761466361463e565b500490565b6000826146775761467761463e565b500690565b808202811582820484141761058357610583614597565b6001600160a01b03858116825284166020820152604081018390526080606082018190526000906146c690830184613705565b9695505050505050565b6000602082840312156146e257600080fd5b8151613070816136ae56fe4142434445464748494a4b4c4d4e4f505152535455565758595a6162636465666768696a6b6c6d6e6f707172737475767778797a303132333435363738392b2fa26469706673582212205b4764e89a52402b06472ad3f4cffa5ffb66eb27bd054dd02bd5d82c69cc92e264736f6c63430008110033",
    "sourcePath": "/Users/shivam23/Desktop/solidity/Naksh-Marketplace/contracts/ERC721/Naksh721NFT.sol",
    "compiler": {
        "name": "solc",
        "version": "0.8.17+commit.8df45f5f"
    },
    "functionHashes": {
        "TotalSplits()": "2e098d2a",
        "admin()": "f851a440",
        "approve(address,uint256)": "095ea7b3",
        "balanceOf(address)": "70a08231",
        "bulkMintByArtistorAdmin(address,string[],string[],string[],string[],string,string,bool[])": "a10a9350",
        "burn(uint256)": "42966c68",
        "creatorFees(uint256)": "fc52d1f0",
        "creatorTokens(address,uint256)": "db3fa4cc",
        "creators(uint256)": "cd53d08e",
        "fetchArtist(address)": "feeeadfd",
        "getApproved(uint256)": "081812fc",
        "getCollectionDetails()": "b3ff78c1",
        "getCreatorFees()": "16b8964c",
        "getMintedNFTs()": "77bf44ea",
        "getNFTData(uint256)": "0ad4c4f4",
        "getRoyalties()": "33df048e",
        "getSellerFee()": "bc073e10",
        "getTotalCreatorFees()": "2c9996df",
        "grantAdminRights(address)": "5986ebd1",
        "isApprovedForAll(address,address)": "e985e9c5",
        "mintByArtistOrAdmin(address,string,string,string,string,string,string,bool)": "19598c0f",
        "name()": "06fdde03",
        "orgFee()": "64969ced",
        "orgFeeInitial()": "bcc2ace6",
        "ownerOf(uint256)": "6352211e",
        "safeTransferFrom(address,address,uint256)": "42842e0e",
        "safeTransferFrom(address,address,uint256,bytes)": "b88d4fde",
        "sellerFee()": "e1f3d55a",
        "sellerFeeInitial()": "43741e04",
        "setApprovalForAll(address,bool)": "a22cb465",
        "setRoyaltyPercentageFirstSale(uint256,uint256)": "4c8e943e",
        "supportsInterface(bytes4)": "01ffc9a7",
        "symbol()": "95d89b41",
        "tokenURI(uint256)": "c87b56dd",
        "totalCreatorFees()": "fe2b214c",
        "totalSupply()": "18160ddd",
        "transferFrom(address,address,uint256)": "23b872dd"
    },
    "gasEstimates": {
        "creation": {
            "codeDepositCost": "3655000",
            "executionCost": "infinite",
            "totalCost": "infinite"
        },
        "external": {
            "TotalSplits()": "2363",
            "admin()": "2403",
            "approve(address,uint256)": "infinite",
            "balanceOf(address)": "2657",
            "bulkMintByArtistorAdmin(address,string[],string[],string[],string[],string,string,bool[])": "infinite",
            "burn(uint256)": "infinite",
            "creatorFees(uint256)": "6335",
            "creatorTokens(address,uint256)": "4855",
            "creators(uint256)": "4703",
            "fetchArtist(address)": "infinite",
            "getApproved(uint256)": "4815",
            "getCollectionDetails()": "infinite",
            "getCreatorFees()": "infinite",
            "getMintedNFTs()": "infinite",
            "getNFTData(uint256)": "infinite",
            "getRoyalties()": "8736",
            "getSellerFee()": "2425",
            "getTotalCreatorFees()": "2338",
            "grantAdminRights(address)": "26857",
            "isApprovedForAll(address,address)": "infinite",
            "mintByArtistOrAdmin(address,string,string,string,string,string,string,bool)": "infinite",
            "name()": "infinite",
            "orgFee()": "2341",
            "orgFeeInitial()": "2340",
            "ownerOf(uint256)": "2671",
            "safeTransferFrom(address,address,uint256)": "infinite",
            "safeTransferFrom(address,address,uint256,bytes)": "infinite",
            "sellerFee()": "2428",
            "sellerFeeInitial()": "2362",
            "setApprovalForAll(address,bool)": "infinite",
            "setRoyaltyPercentageFirstSale(uint256,uint256)": "46754",
            "supportsInterface(bytes4)": "557",
            "symbol()": "infinite",
            "tokenURI(uint256)": "infinite",
            "totalCreatorFees()": "2405",
            "totalSupply()": "2420",
            "transferFrom(address,address,uint256)": "infinite"
        },
        "internal": {
            "TotalCreatorFees()": "infinite",
            "constructJSON(string memory,string memory,string memory,string memory,uint256,string memory,bool)": "infinite",
            "toString(uint256)": "infinite"
        }
    }
}