{
  "_format": "hh-sol-artifact-1",
  "contractName": "NakshAuction",
  "sourceName": "contracts/NakshAuction.sol",
  "abi": [
    {
      "anonymous": false,
      "inputs": [
        {
          "indexed": true,
          "internalType": "uint256",
          "name": "_tokenId",
          "type": "uint256"
        },
        {
          "indexed": true,
          "internalType": "address",
          "name": "_bidder",
          "type": "address"
        },
        {
          "indexed": true,
          "internalType": "uint256",
          "name": "_amount",
          "type": "uint256"
        }
      ],
      "name": "Bidding",
      "type": "event"
    },
    {
      "anonymous": false,
      "inputs": [
        {
          "indexed": true,
          "internalType": "uint256",
          "name": "_tokenId",
          "type": "uint256"
        },
        {
          "indexed": true,
          "internalType": "address",
          "name": "_buyer",
          "type": "address"
        },
        {
          "indexed": true,
          "internalType": "uint256",
          "name": "highestBID",
          "type": "uint256"
        }
      ],
      "name": "EndedAuction",
      "type": "event"
    },
    {
      "anonymous": false,
      "inputs": [
        {
          "indexed": false,
          "internalType": "uint256",
          "name": "startTime",
          "type": "uint256"
        },
        {
          "indexed": false,
          "internalType": "uint256",
          "name": "endTime",
          "type": "uint256"
        },
        {
          "indexed": true,
          "internalType": "uint256",
          "name": "tokenId",
          "type": "uint256"
        },
        {
          "indexed": true,
          "internalType": "address",
          "name": "owner",
          "type": "address"
        },
        {
          "indexed": true,
          "internalType": "uint256",
          "name": "price",
          "type": "uint256"
        }
      ],
      "name": "StartedAuction",
      "type": "event"
    },
    {
      "inputs": [
        {
          "internalType": "address",
          "name": "",
          "type": "address"
        },
        {
          "internalType": "uint256",
          "name": "",
          "type": "uint256"
        }
      ],
      "name": "auctionData",
      "outputs": [
        {
          "internalType": "uint256",
          "name": "startTime",
          "type": "uint256"
        },
        {
          "internalType": "uint256",
          "name": "endTime",
          "type": "uint256"
        },
        {
          "internalType": "uint256",
          "name": "tokenId",
          "type": "uint256"
        },
        {
          "internalType": "address",
          "name": "owner",
          "type": "address"
        },
        {
          "internalType": "uint256",
          "name": "price",
          "type": "uint256"
        },
        {
          "internalType": "uint256",
          "name": "highestBid",
          "type": "uint256"
        },
        {
          "internalType": "address",
          "name": "highestBidder",
          "type": "address"
        }
      ],
      "stateMutability": "view",
      "type": "function"
    },
    {
      "inputs": [
        {
          "internalType": "address",
          "name": "_nftAddress",
          "type": "address"
        },
        {
          "internalType": "uint256",
          "name": "_tokenId",
          "type": "uint256"
        }
      ],
      "name": "bid",
      "outputs": [
        {
          "internalType": "bool",
          "name": "",
          "type": "bool"
        }
      ],
      "stateMutability": "payable",
      "type": "function"
    },
    {
      "inputs": [
        {
          "internalType": "address",
          "name": "",
          "type": "address"
        }
      ],
      "name": "bids",
      "outputs": [
        {
          "internalType": "uint256",
          "name": "",
          "type": "uint256"
        }
      ],
      "stateMutability": "view",
      "type": "function"
    },
    {
      "inputs": [
        {
          "internalType": "address",
          "name": "_nftAddress",
          "type": "address"
        },
        {
          "internalType": "uint256",
          "name": "_tokenId",
          "type": "uint256"
        }
      ],
      "name": "endAuction",
      "outputs": [],
      "stateMutability": "nonpayable",
      "type": "function"
    },
    {
      "inputs": [
        {
          "internalType": "address",
          "name": "_nftAddress",
          "type": "address"
        },
        {
          "internalType": "uint256",
          "name": "_tokenId",
          "type": "uint256"
        }
      ],
      "name": "getBidHistory",
      "outputs": [
        {
          "components": [
            {
              "internalType": "address",
              "name": "bidder",
              "type": "address"
            },
            {
              "internalType": "uint256",
              "name": "amount",
              "type": "uint256"
            },
            {
              "internalType": "uint256",
              "name": "timestamp",
              "type": "uint256"
            }
          ],
          "internalType": "struct bidHistory[]",
          "name": "",
          "type": "tuple[]"
        }
      ],
      "stateMutability": "view",
      "type": "function"
    },
    {
      "inputs": [
        {
          "internalType": "address",
          "name": "",
          "type": "address"
        },
        {
          "internalType": "uint256",
          "name": "",
          "type": "uint256"
        },
        {
          "internalType": "uint256",
          "name": "",
          "type": "uint256"
        }
      ],
      "name": "prevBidData",
      "outputs": [
        {
          "internalType": "address",
          "name": "bidder",
          "type": "address"
        },
        {
          "internalType": "uint256",
          "name": "amount",
          "type": "uint256"
        },
        {
          "internalType": "uint256",
          "name": "timestamp",
          "type": "uint256"
        }
      ],
      "stateMutability": "view",
      "type": "function"
    },
    {
      "inputs": [
        {
          "internalType": "address",
          "name": "_nftAddress",
          "type": "address"
        },
        {
          "internalType": "uint256",
          "name": "_tokenId",
          "type": "uint256"
        },
        {
          "internalType": "uint256",
          "name": "_price",
          "type": "uint256"
        },
        {
          "internalType": "uint256",
          "name": "_auctionTime",
          "type": "uint256"
        }
      ],
      "name": "startAuction",
      "outputs": [
        {
          "internalType": "bool",
          "name": "",
          "type": "bool"
        }
      ],
      "stateMutability": "nonpayable",
      "type": "function"
    }
  ],
  "bytecode": "0x608060405234801561001057600080fd5b50610dbb806100206000396000f3fe6080604052600436106100705760003560e01c80638cbd46421161004e5780638cbd4642146100fa57806390b34705146101275780639c166273146101d3578063db1caef2146101f357600080fd5b806359d667a51461007557806362ea82db1461009d57806388cedbc4146100d8575b600080fd5b610088610083366004610c20565b610238565b60405190151581526020015b60405180910390f35b3480156100a957600080fd5b506100ca6100b8366004610c4c565b60046020526000908152604090205481565b604051908152602001610094565b3480156100e457600080fd5b506100f86100f3366004610c20565b610569565b005b34801561010657600080fd5b5061011a610115366004610c20565b6107e7565b6040516100949190610c70565b34801561013357600080fd5b50610192610142366004610c20565b60026020818152600093845260408085209091529183529120805460018201549282015460038301546004840154600585015460069095015493959492936001600160a01b039283169391921687565b604080519788526020880196909652948601939093526001600160a01b039182166060860152608085015260a08401919091521660c082015260e001610094565b3480156101df57600080fd5b506100886101ee366004610cd2565b610888565b3480156101ff57600080fd5b5061021361020e366004610d0d565b610bae565b604080516001600160a01b039094168452602084019290925290820152606001610094565b6001600160a01b0380831660009081526002602081815260408084208685528252808420815160e081018352815481526001820154938101849052938101549184019190915260038101548516606084015260048101546080840152600581015460a08401526006015490931660c082015290914211156102f45760405162461bcd60e51b8152602060048201526011602482015270105d58dd1a5bdb881a185cc8195b991959607a1b60448201526064015b60405180910390fd5b34816080015111156103485760405162461bcd60e51b815260206004820152601860248201527f506179206d6f7265207468616e2062617365207072696365000000000000000060448201526064016102eb565b348160a00151111561039c5760405162461bcd60e51b815260206004820152601960248201527f506179206d6f7265207468616e2068696768657374206269640000000000000060448201526064016102eb565b60c08101516001600160a01b0316156104a75760408051606081018252338152346020808301918252428385019081526001600160a01b03898116600090815260038085528782208b8352855287822080546001808201835591845286842089519190930290920180546001600160a01b031916928516929092178255955195810195909555915160029094019390935560c08601805184168252600490925284812054825184168252858220829055915194519394919391909216916108fc841502918491818181858888f1935050505015801561047f573d6000803e3d6000fd5b50503460a083018190523360008181526004602052604090209190915560c083015250610530565b3360c082018190523460a08301819052604080516060810182529283526020838101928352428483019081526001600160a01b03898116600090815260038085528582208b835285529481208054600180820183559183529490912096519390940290950180546001600160a01b03191692909516919091178455915190830155516002909101555b6040513490339085907f25503b4fa67c48e494bd01a58de80d35d064c1797891f4af928672a8f5ee063490600090a45060019392505050565b6001600160a01b038083166000908152600260208181526040808420868552825292839020835160e081018552815481526001820154928101929092529182015492810192909252600381015483166060830181905260048201546080840152600582015460a084015260069091015490921660c08201529033146106305760405162461bcd60e51b815260206004820152601f60248201527f4f6e6c79206f776e6572206f66206e66742063616e2063616c6c20746869730060448201526064016102eb565b42816020015111156106845760405162461bcd60e51b815260206004820152601960248201527f41756374696f6e20686173206e6f742079657420656e6465640000000000000060448201526064016102eb565b60c08101516001600160a01b03161561073b5760a0810151604051339180156108fc02916000818181858888f193505050501580156106c7573d6000803e3d6000fd5b5060c0810151604051632142170760e11b81523060048201526001600160a01b03918216602482015260448101849052908416906342842e0e90606401600060405180830381600087803b15801561071e57600080fd5b505af1158015610732573d6000803e3d6000fd5b505050506107a2565b604051632142170760e11b8152306004820152336024820152604481018390526001600160a01b038416906342842e0e90606401600060405180830381600087803b15801561078957600080fd5b505af115801561079d573d6000803e3d6000fd5b505050505b8060a001518160c001516001600160a01b0316837ff3745838906e0091221724f2af33775afbacb94216f63612b5caeaf848a5530060405160405180910390a4505050565b6001600160a01b03821660009081526003602090815260408083208484528252808320805482518185028101850190935280835260609492939192909184015b8282101561087c576000848152602090819020604080516060810182526003860290920180546001600160a01b0316835260018082015484860152600290910154918301919091529083529092019101610827565b50505050905092915050565b6040516331a9108f60e11b8152600481018490526000908590859033906001600160a01b03841690636352211e90602401602060405180830381865afa1580156108d6573d6000803e3d6000fd5b505050506040513d601f19601f820116820180604052508101906108fa9190610d42565b6001600160a01b03161461090d57600080fd5b604051632142170760e11b81523360048201523060248201526044810187905242906001600160a01b038916906342842e0e90606401600060405180830381600087803b15801561095d57600080fd5b505af1158015610971573d6000803e3d6000fd5b50505050600085426109839190610d5f565b905060006040518060e001604052808481526020018381526020018a8152602001336001600160a01b031681526020018981526020016000815260200160006001600160a01b0316815250905080600260008c6001600160a01b03166001600160a01b0316815260200190815260200160002060008b815260200190815260200160002060008201518160000155602082015181600101556040820151816002015560608201518160030160006101000a8154816001600160a01b0302191690836001600160a01b031602179055506080820151816004015560a0820151816005015560c08201518160060160006101000a8154816001600160a01b0302191690836001600160a01b03160217905550905050600081908060018154018082558091505060019003906000526020600020906007020160009091909190915060008201518160000155602082015181600101556040820151816002015560608201518160030160006101000a8154816001600160a01b0302191690836001600160a01b031602179055506080820151816004015560a0820151816005015560c08201518160060160006101000a8154816001600160a01b0302191690836001600160a01b03160217905550505087336001600160a01b03168a7f968141d6d28a795167315aa87433685af896e444219ee6a274cd87d89cd6843f8686604051610b96929190918252602082015260400190565b60405180910390a45060019998505050505050505050565b60036020528260005260406000206020528160005260406000208181548110610bd657600080fd5b60009182526020909120600390910201805460018201546002909201546001600160a01b039091169450909250905083565b6001600160a01b0381168114610c1d57600080fd5b50565b60008060408385031215610c3357600080fd5b8235610c3e81610c08565b946020939093013593505050565b600060208284031215610c5e57600080fd5b8135610c6981610c08565b9392505050565b602080825282518282018190526000919060409081850190868401855b82811015610cc557815180516001600160a01b0316855286810151878601528501518585015260609093019290850190600101610c8d565b5091979650505050505050565b60008060008060808587031215610ce857600080fd5b8435610cf381610c08565b966020860135965060408601359560600135945092505050565b600080600060608486031215610d2257600080fd5b8335610d2d81610c08565b95602085013595506040909401359392505050565b600060208284031215610d5457600080fd5b8151610c6981610c08565b60008219821115610d8057634e487b7160e01b600052601160045260246000fd5b50019056fea26469706673582212203d1b68a4ebdd314e7cbd37533aad20670d946a06c3675bada73a7266fb79eaac64736f6c634300080a0033",
  "linkReferences": {},
  "deployedLinkReferences": {}
}